:10000000004000202D4100006941000069410000CE
:1000100069410000694100006941000000000000E2
:100020000000000000000000000000006941000026
:1000300069410000000000006941000069410000C2
:10004000B1260000D9400000E7400000F540000064
:1000500005410000694100008117000035170000CC
:1000600049230000690C0000790C00006941000080
:1000700069410000ED07000061390000412F0000D8
:10008000712F000069410000FD0F0000050700000E
:100090003931000051310000694100006941000020
:1000A000D9300000F130000009310000213100009A
:1000B000AD3C0000D53C00006941000069410000F2
:1000C00069410000694100006941000059090000D0
:1000D0006941000069410000694100006941000078
:1000E00069410000FD150000592F0000991500001E
:1000F0006941000075040000750200000000000066
:1001000000000000000000000000000000000000EF
:1001100000000000000000000000000000000000DF
:100120006941000069410000694100006941000027
:100130006941000069410000694100006941000017
:10014000000000000000000081390000FD3C0000BC
:10015000253D0000694100000000000069410000E9
:10018000FFFFFFFFFFFFFFFFFFFFFFFFFFFFFFFF7F
:1001900003329CA7FD000000FFFFFFFFFFFFFFFFF2
:1001C00010B5054C237833B9044B13B10448AFF391
:1001D00000800123237010BD000C042000000000EB
:1001E00004D0000008B5034B1BB103490348AFF32B
:1001F000008008BD00000000040C042004D00000B2
:10020000154B002B08BF134B9D46A3F5803A0021E8
:100210008B460F461348144A121A05F0D5F80F4BB7
:10022000002B00D098470E4B002B00D098470020A1
:10023000002104000D000D48002802D00C4807F0F2
:10024000ABFB05F09DF82000290004F06BFB05F0E6
:1002500087F800BF000008000040002000000000F8
:1002600000000000000C04206816042099790000AA
:10027000F188000080B584B000AF7D4B1B68BB6087
:10028000BB685B689B8C9BB2DBB2002B14D0BB6855
:100290001B6803F02003002B05D1BB685B690221BA
:1002A000B868984708E0BB685B689B8C9AB2BB68EB
:1002B0005B68D2B292B29A84BB685B689B8C9BB23B
:1002C00003F47F43002B73D0BB685B689B8C9BB2AD
:1002D0001BB2002B15DABB681B6843F00402BB6835
:1002E0001A60BB685B684FF400429A84BB68DB68A5
:1002F000002B06D0BB68DB68BA6890680022012139
:100300009847BB685B689B8C9BB203F48043002BCF
:1003100015D0BB681B6843F48072BB681A60BB6869
:100320005B684FF480429A84BB68DB68002B06D080
:10033000BB68DB68BA689068002200219847BB68F8
:100340005B689B8C9BB203F48073002B0AD0BB6864
:100350001B6843F40072BB681A60BB685B684FF4AB
:1003600080729A84BB685B689B8C9BB203F40073B9
:10037000002B0AD0BB681B6843F40052BB681A60AC
:10038000BB685B684FF400729A84BB685B689B8CA7
:100390009BB203F48063002B0AD0BB681B6843F454
:1003A0008042BB681A60BB685B684FF480629A84C5
:1003B000BB685B681B8D9BB2002B12D0BB685B686F
:1003C0001B8DFB80BB681B6803F02003002B04D14E
:1003D000BB685B690321B8689847BB685B68FA88AB
:1003E0001A85BB685B689B8D9BB2002B3BD0BB68BA
:1003F0005B689B8D9BB23B60BB681B6803F020036E
:10040000202B2BD1BB68DB68002B27D00023FB609F
:1004100021E0FB685B0001229A403B681340002BFF
:1004200006D0BB68DB68BA689068FA680321984711
:10043000FB685B00013301229A403B681340002BAC
:1004400006D0BB68DB68BA689068FA6804219847F0
:10045000FB680133FB60FB68032BDAD9BB685B6880
:100460003A6892B29A8500BF1037BD4680BD00BF82
:100470000000042090B587B000AF524B3B613B6950
:100480001B68FB604FF47C43FB823B695B681B7815
:10049000DBB2002B00F08280FB681B889BB223F448
:1004A0007F7323F003039CB22346FB82FB689B8887
:1004B0009BB223409CB2234603F40843002B28D070
:1004C0003B695B681B783B695B681433184601F035
:1004D00037FA3B695B681B78DAB23B695B6822F0EC
:1004E0000C02D2B21A70FB681B889BB223F4807393
:1004F0009AB2FB681A803B695B685B68002B08D086
:100500003B695B685B683A695268906821460022E3
:10051000984704F480539BB2002B3FD03B695B6843
:10052000BB60BB681B7CDAB2BB685B7C9A4235D28D
:10053000BB68D968BB681B7CDBB23A1D5B000B440F
:100540001B881380BB681B7CDBB20133DAB2BB684B
:100550001A74BB68D968BB681B7CDBB23A465B0087
:100560000B441B881380BB681B7CDBB20133DAB2FF
:10057000BB681A743B799BB21B029AB27B799BB21F
:1005800013439AB2FB681A813B789BB21B029AB262
:100590007B789BB213439AB2FB689A81FB689B8875
:1005A0009BB21AB2B7F9163023F47F7323F003031A
:1005B0001BB213431BB29AB2FB689A8000BF1C3770
:1005C000BD4690BD1C0C042080B483B000AF034630
:1005D000FB7197F90730002B0BDBFB7903F01F024F
:1005E000074997F907305B09012000FA02F241F848
:1005F000232000BF0C37BD465DF8047B704700BF69
:1006000000E100E080B584B000AF0023FB60EFF3B1
:1006100010837B607B68FB6072B61B4B1B7883F09A
:100620000103DBB2002B26D0174B01221A70174BA7
:100630005B68164A43F001035360154A134B9A60F6
:100640001320FFF7C1FF6FF07843BB600F4ABB6810
:1006500013620E4ABB68D3620C4ABB6853630B4AF1
:10066000BB68D363094ABB689364084ABB68D36418
:10067000064ABB681365FB683B603B6883F31088E0
:1006800000BF1037BD4680BD0014042000000140AB
:100690000010042080B489B000AF0346B9607A60CE
:1006A000FB730023FB77164AFB7BDB001344043308
:1006B000BB61BB69BA681A60BB697A685A60FB7B28
:1006C000012202FA03F37B61BB68002B08D00C4BBC
:1006D000D3F8DC200A497B691343C1F8DC3008E019
:1006E000074BD3F8DC207B69DB4305491340C1F895
:1006F000DC30FB7F18462437BD465DF8047B70472D
:100700000014042080B58AB000AF2C4BDB6CFB6179
:100710002A4B9B6CBB61294B1B6D7B61284BD3F82B
:10072000DC20B9697B690B4313407B627B6A002B39
:1007300037D020233B617B6AB3FA83F33B622CE022
:100740003A693B6AD31A013BFB600122FB6802FA5B
:1007500003F3BB601A4AFB68DB00134404337B607D
:100760007B681B68002B0FD0BA69BB681340002B55
:1007700001D0012300E002233B607B681B687A689C
:100780005068002239689847BB68DB437A6A134097
:100790007B627B6AB3FA83F33B623A6A3B699A42B3
:1007A000CED3064ABB699364044A7B691365034A46
:1007B000FB69D36400BF2837BD4680BD00000140FF
:1007C0000014042080B483B000AF7860396000BFAB
:1007D0007B681B681A683B681340002BF8D100BF88
:1007E0000C37BD465DF8047B7047000080B582B0D1
:1007F00000AF0023FB710023BB71544BDB683B60EF
:100800003B681B681A683B685A613B681B683A681A
:1008100052691A603B685A694D4B13403A689361BC
:100820003B689B69002B01D00123BB71BB7983F02E
:100830000103DBB2002B45D03B685B6903F0080382
:10084000002B36D03B689B6A002B2BD03B681A6A82
:100850003B681B68DA603B681B6A03F108023B686F
:100860001A623B685A6A3B681B6812681A613B68E7
:100870005B6A1A1D3B685A623B685A6A3B681B6890
:1008800012685A613B685B6A1A1D3B685A623B6892
:100890009B6AA3F108023B689A623B681B680422CA
:1008A0009A6011E001213868FFF78CFF0123FB718A
:1008B0000AE03B685B6903F00403002B04D00123CA
:1008C000FB7101E00123FB71FB79002B39D03B6800
:1008D0001B685A683B681B6822F007025A603B6835
:1008E0001B681C4A1A623B681B681A6B3B681B68D2
:1008F00022F003021A633B681B6800221A623B68FD
:1009000000225A773B689B68002B15D0BB7983F097
:100910000103DBB2002B07D03B689B683A68D068C4
:1009200000220021984707E03B689B683A68D0683E
:100930003A689269012198473B682C33184600F0C9
:10094000FFFF00BF0837BD4680BD00BF0800042080
:10095000F0AF01B865756C6780B582B000AF314B00
:10096000DB687B607B681B681A687B685A617B6800
:100970001B687A6852691A607B685A692A4B13406F
:100980007A6893617B681B68284A1A627B681B68D7
:100990001A6B7B681B6822F003021A637B681B6872
:1009A00000221A627B6800229A627B6800225A77D2
:1009B0007B689B68002B2CD07B689B69002B0CD13B
:1009C0007B681B7FDBB2002B07D17B689B687A6852
:1009D000D0680022002198471BE07B689B69002BB0
:1009E00008D17B689B687A68D0687A68926901212F
:1009F00098470EE07B681B7FDBB2002B09D17B6838
:100A00009B687A68D0687A68127FD2B21146002259
:100A100098477B682C33184600F092FF00BF0837D8
:100A2000BD4680BD08000420F0AF01B865756C6755
:100A300080B483B000AF0346FB7197F90730002BF9
:100A40000BDBFB7903F01F02074997F907305B09BD
:100A5000012000FA02F241F8232000BF0C37BD4606
:100A60005DF8047B704700BF00E100E080B584B012
:100A700000AF78603960144B1B69002B1ED1124AFD
:100A80007B6813610023FB600FE00F4B1B69FA6862
:100A9000002143F832100C4B1A69FB68DB00134449
:100AA00000225A60FB680133FB60FB68012BECD924
:100AB0000920FFF7BDFF0A20FFF7BAFF0023184601
:100AC0001037BD4680BD00BF1800042080B487B039
:100AD00000AF0346FB710B46BB801346BB7100237E
:100AE0007B61FB79154A52F823303B61EFF31083A9
:100AF000FB60FB687B6172B6BB79002B08D03B6959
:100B00009B889AB2BB8813439AB23B699A8009E0EA
:100B10003B699B889AB2BB88DB439BB213409AB275
:100B20003B699A807B69BB60BB6883F310880023B4
:100B300018461C37BD465DF8047B7047180004203A
:100B400080B485B000AF03460A46FB711346BB80F4
:100B5000FB79074A52F82330FB60FB68BA881A8396
:100B6000002318461437BD465DF8047B704700BF6C
:100B70001800042080B485B000AF03460A46FB711C
:100B80001346BB80FB79074A52F82330FB60FB68B1
:100B9000BA889A83002318461437BD465DF8047B53
:100BA000704700BF1800042080B485B000AF034632
:100BB0000A46FB711346BB80FB79074A52F8233083
:100BC000FB60FB68BA881A84002318461437BD46B8
:100BD0005DF8047B704700BF1800042080B586B024
:100BE00000AF03460A46FB711346BB711D4B1A69E1
:100BF000FB79DB0013443B610023FB752BE0FB7D9D
:100C0000184A52F82330FB6097F90630092B03D1BC
:100C1000FB681B8DBB8202E0FB689B8DBB82FB687F
:100C20001B8E9AB2BB8A13409BB27B817A89FB6888
:100C30001A863B691B68002B0AD07B89002B07D0E2
:100C40003B691B683A695068F97D07F10A029847C9
:100C5000FB7D0133FB75FB7D032BD0D900BF18371B
:100C6000BD4680BD1800042080B500AF09210020DA
:100C7000FFF7B4FF00BF80BD80B500AF0A2101209F
:100C8000FFF7ACFF00BF80BD80B483B000AF034668
:100C9000FB7197F90730002B10DBFB7903F01F0283
:100CA000094997F907305B09012000FA02F2203365
:100CB00041F82320BFF34F8FBFF36F8F00BF0C3776
:100CC000BD465DF8047B704700E100E080B485B06C
:100CD00000AF78607B681B68B3F84C309BB21B1187
:100CE0009BB203F003039BB2C3F10203FB8116E046
:100CF0007B685B691B78DAB27B681B6892B29A8169
:100D00007B685B695A1C7B685A617B681B8B9BB252
:100D1000013B9AB27B681A83FB89013BFB817B68AC
:100D20001B8B9BB2002B02D0FB89002BE0D17B6890
:100D30001B8B9BB2002B30D17B681B8D9BB2002B91
:100D400023D07B681B687A68D2891A8325E07B6888
:100D5000DB691B78DAB27B681B6892B29A817B6888
:100D6000DB695A1C7B68DA617B681B8C9BB2013B98
:100D70009AB27B681A847B685B8D9BB201339AB20E
:100D80007B685A85FB89013BFB817B681B8C9BB28E
:100D9000002B02D0FB89002BD9D17B681B8B9BB227
:100DA000002B16D17B681B8C9BB2002B11D120230A
:100DB000BB817B681B681B889BB21AB2B7F90C30E9
:100DC000DB431BB213401BB27B817B681B687A89B3
:100DD0001A807B681B8C9BB2002B03D17B681B683D
:100DE00004229A8000BF1437BD465DF8047B70472B
:100DF00080B485B000AF78607B681B68B3F84C3076
:100E00009BB29B119BB203F00303FB8140E0FB8983
:100E1000013BFB817B685B8D9BB201339AB27B689F
:100E20005A857B681B681B899AB27B685B6AD2B261
:100E30001A707B685B6A5A1C7B685A627B681B6805
:100E40009B8A9BB2002B23D17B681B8D9BB2B3F591
:100E5000807F0DD97B681B684FF480721A827B6893
:100E60001B8D9BB2A3F580739AB27B681A850FE045
:100E70007B681B8D9BB2002B0AD07B681B8D9AB2BE
:100E80007B681B68013A92B21A827B6800221A853D
:100E9000FB89002BBBD100BF1437BD465DF8047B36
:100EA0007047000080B582B000AF786000BF0D4B86
:100EB0001B881A467B681B689B889BB203F4886377
:100EC0009A42F4D17B685B6893F900301846FFF7CB
:100ED000DBFE7B681B68044A12881A8000BF083753
:100EE000BD4680BDE01404203C00042080B483B0E3
:100EF00000AF7860404B1B881A467B681B8903F063
:100F000010039A4208D07B6893F82D3043F0010318
:100F1000DAB27B6883F82D20374B1B881A467B6832
:100F20001B8903F080039A4208D07B6893F82D3028
:100F300043F00203DAB27B6883F82D202E4B1B8826
:100F40001A467B681B8903F020039A4208D07B680D
:100F500093F82D3043F00403DAB27B6883F82D2038
:100F6000254B1B881A467B681B8903F400739A4241
:100F700008D07B6893F82D3043F01003DAB27B6819
:100F800083F82D201C4B1B881A467B681B8903F4B1
:100F900080539A4208D07B6893F82D3043F02003A9
:100FA000DAB27B6883F82D207B6893F82D305AB233
:100FB0007B6893F82E305BB2DB435BB213405BB2CD
:100FC000DAB27B6883F82D207B6893F82D30002BF4
:100FD0000BD17B6893F82E309AB2074B1B889A424C
:100FE00003D17B68082283F82D2000BF0C37BD4653
:100FF0005DF8047B704700BFE014042080B582B028
:1010000000AF284BDB687B607B681B689B889AB2CB
:101010007B681A817B689B7A002B07D07B681B68F2
:101020007A68D2891A837B6800229A721E4B1B88C9
:101030001A467B681B8903F004039A4202D0786841
:10104000FFF744FE184B1B881A467B681B8903F088
:1010500008039A4202D07868FFF7CAFE124B1B8839
:101060001A467B681B89194641F2B0230B409A420D
:1010700002D07868FFF73AFF0B4B1B881A467B6853
:101080001B8903F480739A4207D07868FFF70AFF40
:101090007B683033184600F053FC00BF0837BD466C
:1010A00080BD00BF2C000420E014042080B483B075
:1010B00000AF0346FB7197F90730002B0BDBFB7980
:1010C00003F01F02074997F907305B09012000FA76
:1010D00002F241F8232000BF0C37BD465DF8047BC7
:1010E000704700BF00E100E080B500AF2A4B4CF62E
:1010F0001432DA60284B294A1A61294B00221A60FF
:10110000254B4CF61432DA60234B1B69224A43F01C
:101110000203136100BF204B1B6903F40073002B13
:10112000F9D0204B1B681F4A23F0030313601D4BAB
:1011300000221A601B4B1C4A5A601A4B00229A600C
:10114000184B46F61A02DA60164B5F225A61174BAB
:1011500000221A60154B00229A60144B00225A6438
:101160000D4B4CF61432DA600B4B1B690A4A23F024
:10117000080313610620FFF799FF0720FFF796FF8A
:101180002920FFF793FF2B20FFF790FF02F0F0FFDD
:101190000023184680BD00BF00C1044002C001000A
:1011A000E414042000C304400404100000C0044000
:1011B00080B500AF02F0DCFF0023184680BD0000C0
:1011C00080B487B000AF0346FB7100237B61EFF36F
:1011D0001083BB60BB687B6172B60E4B4CF6143259
:1011E000DA600C4B1B6923F001033B61FB79033B85
:1011F0003A6913433B61074A3B6913617B69FB60B2
:10120000FB6883F31088002318461C37BD465DF841
:10121000047B704700C1044080B487B000AF034630
:10122000FB7100237B61EFF31083BB60BB687B61C4
:1012300072B60C4B1B6823F003033B61FB79093B3F
:101240003A6913433B61074A3B6913607B69FB6062
:10125000FB6883F31088002318461C37BD465DF8F1
:10126000047B704700C3044080B584B000AF0346E0
:101270003960FB7102F07CFF134B1B68BB60FB798C
:10128000002B07D0012B0CD1104B5B6803F03F0300
:10129000FB6008E00D4B5B681B0A03F03F03FB603B
:1012A00001E004230BE0FB68002B01D10123FB606C
:1012B000BA68FB68B2FBF3F23B681A600023184679
:1012C0001037BD4680BD00BF0015042000C3044098
:1012D00080B588B000AF03460A46FB711346BB8059
:1012E00000237B61FB79012B04D0022B0ED0002B55
:1012F00005D011E03F23FB61BB88BB610EE04FF4DA
:101300007C53FB61BB881B02BB6107E0144BFB6194
:10131000BB881B04BB6101E004231CE0EFF31083D6
:10132000BB60BB687B6172B60E4B5B683B61FB695F
:10133000DB433A6913403B613A69BB6913433B6144
:10134000084A3B6953607B69FB60FB6883F3108844
:1013500002F00EFF002318462037BD4680BD00BFB7
:101360000000FF0100C3044080B48BB000AF03460F
:101370000A46FB711346BB7100237B6200233B626C
:101380000023FB610023BB61FB79042B2DD801A254
:1013900052F823F0A9130000B9130000C91300008C
:1013A000EB130000D913000008237B622F4B3B6234
:1013B0004FF40063FB611AE004237B622B4B3B621A
:1013C0004FF48063FB6112E002237B62274B3B6298
:1013D0004FF40073FB610AE04FF400737B62244B0F
:1013E0003B624FF40073FB6101E0092338E0EFF347
:1013F00010833B613B69BB6172B61E4B4CF61432E5
:10140000DA60BB79002B11D03B6A1A687B6A1A43F9
:101410003B6A1A60FB79042B0FD1174B1B6803F052
:1014200001037B617B69012BF7D106E03B6A1A68F7
:101430007B6ADB431A403B6A1A60BB69FB60FB684E
:1014400083F31088FB69002B09D0BB79002B06D0F1
:1014500000BF084B1A69FB691340002BF9D0002329
:1014600018462C37BD465DF8047B704710C1044018
:101470000CC3044000C1044018C3044080B485B0CC
:1014800000AF03463960FB71334B1B69FB603B685F
:1014900000221A70FB79032B4DD801A252F823F0D9
:1014A000D5140000F9140000B11400001D1500004F
:1014B000FB6803F00203002B41D0FB6803F40073C8
:1014C000002B03D03B6802221A7038E03B680122EF
:1014D0001A7034E0FB6803F00803002B31D0FB687E
:1014E00003F40063002B03D03B6802221A7028E04B
:1014F0003B6801221A7024E0FB6803F00403002B10
:1015000021D0FB6803F48063002B03D03B680222E8
:101510001A7018E03B6801221A7014E0FB6803F4AB
:101520008073002B03D03B6802221A700CE03B68EA
:1015300001221A7008E03B6803221A7004E000BF21
:1015400002E000BF00E000BF002318461437BD468C
:101550005DF8047B704700BF00C1044080B483B0D5
:1015600000AF0346FB71FB79012B06D1094B5B6C85
:10157000084A43F00203536405E0064B5B6C054ADE
:1015800023F002035364002318460C37BD465DF870
:10159000047B704700C0044080B582B000AF144B9C
:1015A0009B6903F006037B60124B1B68002B18D06D
:1015B0007B6803F00403002B07D00E4B1B680E4A18
:1015C000106800220F2198470BE07B6803F00203AC
:1015D000002B06D0074B1B68074A106800220E211B
:1015E0009847034A7B68936100BF0837BD4680BDBA
:1015F00000C30440E4140420E814042080B584B03F
:1016000000AF474B9B6903F4CC43BB60454B1A6961
:10161000454B13407B600023FB60444B1B68002B51
:1016200066D0BB68002B31D0BB6803F48043002B2D
:1016300004D0FB6843F00B03FB601CE0BB6803F4C1
:101640000053002B04D0FB6843F00A03FB6012E058
:10165000BB6803F40073002B04D0FB6843F00C0359
:10166000FB6008E0BB6803F48063002B03D0FB68D9
:1016700043F00D03FB60FB68002B39D02B4B1B683C
:101680002B4A10680022F968984731E07B68002BEC
:101690002ED07B68002B13DA244B1B68244A106879
:1016A0000022072198477B6803F40053002B1FD0CA
:1016B0001E4B1B681E4A106800220621984717E03F
:1016C0007B6803F08043002B12D0184B1B68184A2C
:1016D00010680022082198477B6803F48003002BE0
:1016E00006D0124B1B68124A106800220921984745
:1016F000BB68002B03D00A4ABB6893610CE07B688F
:10170000002B09D0074B4CF61432DA60054B1A69EE
:1017100004497B6813430B6100BF1037BD4680BD91
:1017200000C3044000C10440002040C0E414042071
:10173000E814042080B582B000AF0E4B5B687B607C
:101740007B6803F00103002B10D00B4B1B68002BB0
:1017500006D0094B1B68094A10680022796898472F
:10176000044B5B68034A43F00103536000BF083732
:10177000BD4680BD00C00440E4140420E8140420E9
:1017800080B582B000AF154B5B687B60144B1B6863
:10179000002B17D07B6803F00403002B06D0104BFE
:1017A0001B68104A10680022002198477B6803F0EC
:1017B0000203002B06D00A4B1B680A4A106800225D
:1017C00001219847054B5A687B6803F006030349DB
:1017D00013434B6000BF0837BD4680BD00C00440C6
:1017E000E4140420E814042080B491B000AF034650
:1017F0003960FB711346BB710023FB630023BB639D
:1018000000237B633B68002B05D1FB6B43F0020395
:10181000FB63464B3B60FB79032B1CD801A252F8BB
:1018200023F000BF391800003518000043180000ED
:101830004D180000002372E0BB6B43F00603BB634E
:101840000BE0FB6B43F00403FB6306E0FB6B43F030
:101850000603FB6301E0062361E0EFF31083FB6105
:10186000FB697B6372B6324B44F65902DA60304B47
:101870009B6823F00302FB792D4913438B602D4BAA
:101880001A69FB6B1A43BB6BDB432A4913400B619C
:10189000EFF311833B623B6A3B63274B1B89FB855C
:1018A000264B1B68BB62BB795B017B627B6A83F35F
:1018B00011880DE0BFF34F8F30BF7B6B7B617B697D
:1018C00083F31088EFF31083BB61BB697B6372B64F
:1018D0003B681B68002BEDD03B681B685A1E3B68B9
:1018E0001A603B6B3B613B6983F31188124AFB8DA5
:1018F0001381BB6A03F00103002B02D00F4B0122BE
:101900005A600C4B1B690B4A23F002031361BFF3AF
:101910004F8F7B6BFB60FB6883F3108800231846B6
:101920004437BD465DF8047B704700BFEC140420CB
:1019300000C0044000ED00E0002C00400000014029
:1019400080B487B000AF786000237B617B68002B98
:101950001AD1134B7B60EFF31083FB60FB687B6154
:1019600072B6104B9B680F4A23F0030393600E4B33
:101970001B690D4A23F006031361BFF34F8F7B6988
:101980003B613B6983F310887B681B685A1C7B684A
:101990001A60002318461C37BD465DF8047B70476B
:1019A000EC14042000C0044000ED00E080B483B0DB
:1019B00000AF0346FB7197F90730002B0BDBFB7977
:1019C00003F01F02074997F907305B09012000FA6D
:1019D00002F241F8232000BF0C37BD465DF8047BBE
:1019E000704700BF00E100E080B586B000AFF8604E
:1019F000B9607A603B60BB687B613B6800221A601B
:101A00007A680021B86803F0DFFC6449FA6813467D
:101A10005B0013449B000B441A687B691A6000BF8B
:101A20007B691B681B899BB203F08003002BF7D1F5
:101A30007B691B6800221A8000BF7B691B689B8D35
:101A40009BB203F48053002BF7D17B691B68002203
:101A50001A8500BF7B691B689B889BB203F08003DB
:101A6000802BF7D100BF7B691B689B8D9BB203F471
:101A70008043B3F5804FF6D100BF7B691B681B899B
:101A80009BB203F48073002BF7D17B691B687E2225
:101A90009A8000BF7B691B689B889BB203F48073AC
:101AA000B3F5807FF6D17B691B683D4A934204D130
:101AB0007B691B681F229A8503E07B691B680F22E4
:101AC0009A8500BF7B691B68B3F884309BB203F032
:101AD0000103002BF6D17B691B6841F6FD72A3F868
:101AE000482000BF7B691B68B3F880309BB203F0CD
:101AF0000103012BF6D100BF7B691B681B899BB2D8
:101B000003F4C063002BF7D17B691B6800229A8124
:101B10007B691B6800221A8200BF7B691B689B8857
:101B20009BB203F4C063B3F5C06FF6D11B49FA68EA
:101B300013465B0013449B000B4408337A691A6018
:101B4000FA6813465B0013449B00144A1A447B69ED
:101B50005A61FA6813465B0013441B01114A13448F
:101B60001946786900F014FB3B687A691A600B49E2
:101B7000FA6813465B0013449B000B44043393F94B
:101B800000207B691A737B6993F90C301846FFF7C4
:101B90000DFF002318461837BD4680BD48000420BD
:101BA000001400406000042080B487B000AF78606B
:101BB0000B46FB707B687B6100BF7B691B681B89E0
:101BC0009BB203F08003002BF7D100233B61EFF3BE
:101BD0001083FB60FB683B6172B6FB78002B0AD078
:101BE0007B691B681B889AB27B691B6842F0020202
:101BF00092B21A8009E07B691B681B889AB27B69E4
:101C00001B6822F0020292B21A803B69BB60BB687B
:101C100083F3108800BF7B691B689B889BB203F02D
:101C20008003802BF7D1002318461C37BD465DF892
:101C3000047B704780B487B000AF78600B46FB70C0
:101C40007B687B6100BF7B691B681B899BB203F0CB
:101C50008003002BF7D100233B61EFF31083FB607F
:101C6000FB683B6172B6FB78002B0AD07B691B686E
:101C70001B889AB27B691B6842F0010292B21A80FB
:101C800009E07B691B681B889AB27B691B6822F09C
:101C9000010292B21A803B69BB60BB6883F3108873
:101CA00000BF7B691B689B889BB203F08003802B7D
:101CB000F7D1002318461C37BD465DF8047B7047FA
:101CC00080B489B000AFF860B9601346FB71FB685F
:101CD000BB6100BFBB691B681B899BB203F080031B
:101CE000002BF7D100BFBB691B689B8D9BB203F42F
:101CF0008053002BF7D10023FB77834B00221A80FF
:101D0000824B00221A80824B00221A80814B0022D3
:101D10001A80814B00221A80804B00221A8020E01A
:101D2000BB6803F00103002B15D0FB7F7C4A52F8FF
:101D300033307B61FB7F7A4ADB0013449B887B82D4
:101D40007B691A887B8A012101FA03F39BB2134352
:101D50009AB27B691A80BB685B08BB60FB7F01336A
:101D6000FB77BB68002BDBD1FB79002B4AD0BB692A
:101D70001B681B8899B2644B1A88BB691B680A43AD
:101D800092B21A80BB691B681B8D99B25F4B1A888F
:101D9000BB691B680A4392B21A85BB691B68B3F81A
:101DA000503099B25A4B1A88BB691B680A4392B2E9
:101DB000A3F85020BB691B68B3F8543099B2554B57
:101DC0001A88BB691B680A4392B2A3F85420BB6906
:101DD0001B68B3F84C3099B24F4B1A88BB691B682B
:101DE0000A4392B2A3F84C20BB691B68B3F8C43015
:101DF00099B24A4B1A88BB691B680A4392B2A3F88E
:101E0000C42067E0BB691B681B889BB21AB23E4BBB
:101E10001B881BB2DB431BB213401AB2BB691B68A1
:101E200092B21A80BB691B681B8D9BB21AB2374BEA
:101E30001B881BB2DB431BB213401AB2BB691B6881
:101E400092B21A85BB691B68B3F850309BB21AB2C4
:101E50002F4B1B881BB2DB431BB213401AB2BB696A
:101E60001B6892B2A3F85020BB691B68B3F85430CA
:101E70009BB21AB2274B1B881BB2DB431BB2134029
:101E80001AB2BB691B6892B2A3F85420BB691B68E5
:101E9000B3F84C309BB21AB21F4B1B881BB2DB430A
:101EA0001BB213401AB2BB691B6892B2A3F84C2054
:101EB000BB691B68B3F8C4309BB21AB2174B1B88BE
:101EC0001BB2DB431BB213401AB2BB691B6892B250
:101ED000A3F8C42000BFBB691B689B889BB203F0BA
:101EE0008003802BF7D100BFBB691B689B8D9BB221
:101EF00003F48043B3F5804FF6D10023184624370E
:101F0000BD465DF8047B7047F0140420F2140420F1
:101F1000F4140420F6140420F8140420FA14042005
:101F2000C000042080B584B000AF7860396007F14C
:101F300008031946786800F08FFD0346FB737B8920
:101F40001B043A891A433B681A60FB7B184610371A
:101F5000BD4680BD80B487B000AF786039607B68D3
:101F60007B6100BF7B691B681B899BB203F4C05374
:101F7000002BF7D100233B61EFF31083BB60BB68FC
:101F80003B6172B67B691B683A6892B29A823B6881
:101F90001A0C7B691B6892B21A837B691B6800224A
:101FA000A3F844203B69FB60FB6883F3108800BF03
:101FB0007B691B689B889BB203F4C053B3F5C05F79
:101FC000F6D100BF7B691B689B8D9BB203F4004375
:101FD000B3F5004FF6D1002318461C37BD465DF817
:101FE000047B704780B489B000AF78600B46FB700B
:101FF0007B68FB6100BFFB691B689B8D9BB203F490
:102000008053002BF7D10023BB61EFF31083FB60FB
:10201000FB68BB6172B6FB691B681B8D9BB223F426
:10202000F073FB82FB789BB25B019AB2FB8A13438D
:10203000FB82FB691B68FA8A1A85BB693B613B69B5
:1020400083F3108800BFFB691B689B8D9BB203F470
:102050008043B3F5804FF6D1002318462437BD46A0
:102060005DF8047B704780B487B000AFF860B9605A
:102070007A60FB687B6100BF7B691B681B899BB230
:1020800003F08003002BF7D17B69BA685A607B6943
:102090007A689A60002318461C37BD465DF8047BB9
:1020A000704780B487B000AF786039607B687B612F
:1020B00000BF7B691B681B899BB203F4C063002BC4
:1020C000F7D100BF7B691B681B899BB203F4C06317
:1020D000002BF7D100233B61EFF31083BB60BB689B
:1020E0003B6172B67B691B683A6892B29A813B6821
:1020F0001A0C7B691B6892B21A823B69FB60FB6811
:1021000083F3108800BF7B691B689B889BB203F434
:10211000C063B3F5C06FF6D1002318461C37BD4627
:102120005DF8047B704780B485B000AF78600846E6
:1021300011461A4603467B800B467B7013463B7064
:102140007B68FB607A887B781A433B781343BB60DB
:1021500000BFFB681B681B899BB203F40053002B74
:10216000F7D1FB681B68BA6892B29A8300BFFB681C
:102170001B689B889BB203F40053B3F5005FF6D154
:10218000002318461437BD465DF8047B70470000F5
:1021900080B483B000AF7860396000BF7B681B6893
:1021A0001B899BB203F08003002BF7D17B681B686F
:1021B0003A6812881A8000BF7B681B689B8D9BB2AF
:1021C00003F48053002BF7D17B681B683A68528870
:1021D0001A8500BF7B681B681B899BB203F4C06330
:1021E000002BF7D17B681B683A6892889A817B68DC
:1021F0001B683A68D2881A8200BF7B681B681B89FB
:102200009BB203F4C053002BF7D17B681B683A687C
:1022100012899A827B681B683A6852891A8300BFC8
:102220007B681B689B8D9BB203F40053002BF7D196
:102230007B681B683A689289A3F844207B681B6816
:10224000404A93424FD100BF7B681B68B3F884308B
:102250009BB203F05E03002BF6D17B681B683A68E3
:10226000128AA3F84C207B681B683A68528AA3F84C
:1022700050207B681B683A68928AA3F854207B68D8
:102280001B683A68D28AA3F858207B681B683A68B2
:10229000128BA3F8702000BF7B681B68B3F8D8309E
:1022A0009BB203F45C53002BF6D17B681B683A6841
:1022B000D28CA3F8C4207B681B683A68128DA3F8FF
:1022C000C8207B681B683A68528DA3F8CC207B68D5
:1022D0001B683A68928DA3F8E0207B681B683A6817
:1022E000D28DA3F8E42000BF7B681B689B889BB25B
:1022F00003F4F453B3F5F45FF6D100BF7B681B68B9
:102300009B8D9BB203F44043B3F5404FF6D100BF21
:102310007B681B68B3F880309BB203F05E035E2BD2
:10232000F6D100BF7B681B68B3F8D4309BB203F4CE
:102330005C53B3F55C5FF5D100BF0C37BD465DF86B
:10234000047B70470014004080B586B000AF0023C6
:102350007B6100233B61A14B9B68FB60FB681B68B2
:102360001B889BB21A464FF6040313403B61FB687F
:102370001B689B889BB203F07E037B817B89002BCB
:1023800056D03B69002B53D03B6903F01003002B60
:1023900008D07B8903F00403002B03D07B6943F052
:1023A00002037B613B6903F00403002B08D07B89A7
:1023B00003F00203002B03D07B6943F001037B6130
:1023C0003B6903F48053002B08D07B8903F008039A
:1023D000002B03D07B6943F004037B613B6903F46A
:1023E0000043002B08D07B8903F04003002B03D06F
:1023F0007B6943F020037B613B6903F48043002B3E
:1024000008D07B8903F02003002B03D07B6943F0C5
:1024100010037B613B6903F40053002B08D07B89D8
:1024200003F01003002B03D07B6943F008037B61AA
:10243000FB681B681B8D9BB203F01F033B61FB68AD
:102440001B689B8D9BB203F00F033B813B89002BE4
:102450003AD03B69002B37D03B6903F00803002BCF
:1024600008D03B8903F00803002B03D07B6943F4B9
:1024700000737B613B6903F00403002B08D03B89A8
:1024800003F00403002B03D07B6943F480737B616A
:102490003B6903F00203002B08D03B8903F00203E1
:1024A000002B03D07B6943F080037B613B6903F021
:1024B0000103002B08D03B8903F00103002B03D05C
:1024C0007B6943F040037B61FB681B68B3F85030C5
:1024D0009BB21A4641F6FE7313403B61FB681B68D2
:1024E000B3F848309AB241F6FD731340FB80FB8885
:1024F000002B75D03B69002B72D03B6903F48053ED
:10250000002B08D0FB8803F48053002B03D07B6999
:1025100043F480437B613B6903F40063002B08D0E4
:10252000FB8803F40063002B03D07B6943F4005362
:102530007B613B6903F48063002B08D0FB8803F4C4
:102540008063002B03D07B6943F480537B613B693C
:1025500003F40073002B08D0FB8803F40073002BF6
:1025600003D07B6943F400637B613B6903F48073B0
:10257000002B08D0FB8803F48073002B03D07B6909
:1025800043F480137B613B6903F08003002B08D088
:10259000FB8803F04003002B03D07B6943F4001356
:1025A0007B613B6903F04003002B08D0FB8803F0FC
:1025B0008003002B03D07B6943F480037B613B697C
:1025C00003F02003002B0BD0FB8803F02003002B2B
:1025D00006D07B6943F400037B6101E048000420DE
:1025E000FB681B68B3F850309BB21A464FF21C438D
:1025F00013403B61FB88002B3AD03B69002B37D05E
:102600003B6903F48043002B08D0FB8803F01003E0
:10261000002B03D07B6943F480237B613B6903F487
:102620000053002B08D0FB8803F00803002B03D0D5
:102630007B6943F400337B613B6903F48053002BD7
:1026400008D0FB8803F00403002B03D07B6943F41C
:1026500080337B613B6903F48063002B08D0FB88E7
:1026600003F00103002B03D07B6943F400437B613B
:10267000FB685B68002B09D07B69002B06D0FB68E8
:102680005B68FA689068002279699847FB681B6864
:102690007A899A80FB681B683A899A85FB681B686F
:1026A000FA88A3F8482000BF1837BD4680BD00BF98
:1026B00080B586B000AF00237B6100233B61A84B4F
:1026C0005B69FB60FB681B681B889BB21A464FF670
:1026D000040313403B61FB681B689B889BB203F0BB
:1026E0007E037B817B89002B56D03B69002B53D026
:1026F0003B6903F01003002B08D07B8903F004032F
:10270000002B03D07B6943F002037B613B6903F03C
:102710000403002B08D07B8903F00203002B03D0B5
:102720007B6943F001037B613B6903F48053002B19
:1027300008D07B8903F00803002B03D07B6943F0AA
:1027400004037B613B6903F40043002B08D07B89C1
:1027500003F04003002B03D07B6943F020037B612F
:102760003B6903F48043002B08D07B8903F02003EE
:10277000002B03D07B6943F010037B613B6903F4BA
:102780000053002B08D07B8903F01003002B03D0EB
:102790007B6943F008037B61FB681B681B8D9BB260
:1027A00003F01F033B61FB681B689B8D9BB203F02A
:1027B0001F033B813B89002B48D03B69002B45D050
:1027C0003B6903F01003002B08D03B8903F0100392
:1027D000002B03D07B6943F480637B613B6903F08A
:1027E0000803002B08D03B8903F00803002B03D01B
:1027F0007B6943F400737B613B6903F00403002BA6
:1028000008D03B8903F00403002B03D07B6943F419
:1028100080737B613B6903F00203002B08D03B8986
:1028200003F00203002B03D07B6943F080037B613C
:102830003B6903F00103002B08D03B8903F001033F
:10284000002B03D07B6943F040037B61FB681B686E
:10285000B3F850309BB21A4641F6FE7313403B6109
:10286000FB681B68B3F848309AB241F6FD73134019
:10287000FB80FB88002B75D03B69002B72D03B6935
:1028800003F48053002B08D0FB8803F48053002B03
:1028900003D07B6943F480437B613B6903F40063AD
:1028A000002B08D0FB8803F40063002B03D07B6966
:1028B00043F400537B613B6903F48063002B08D031
:1028C000FB8803F48063002B03D07B6943F48053BF
:1028D0007B613B6903F40073002B08D0FB8803F491
:1028E0000073002B03D07B6943F400637B613B6979
:1028F00003F48073002B08D0FB8803F48073002B53
:1029000003D07B6943F480137B613B6903F0800350
:10291000002B08D0FB8803F04003002B03D07B6919
:1029200043F400137B613B6903F04003002B08D0A4
:10293000FB8803F08003002B03D07B6943F4800302
:102940007B613B6903F02003002B0BD0FB8803F075
:102950002003002B06D07B6943F400037B6101E078
:1029600048000420FB681B68B3F84C309BB21A4641
:102970004FF21C4313403B61FB88002B3AD03B696C
:10298000002B37D03B6903F48043002B08D0FB8831
:1029900003F01003002B03D07B6943F480237B6199
:1029A0003B6903F40053002B08D0FB8803F00803B5
:1029B000002B03D07B6943F400337B613B6903F454
:1029C0008053002B08D0FB8803F00403002B03D0B6
:1029D0007B6943F480337B613B6903F48063002BA4
:1029E00008D0FB8803F00103002B03D07B6943F47C
:1029F00000437B61FB685B68002B09D07B69002B7F
:102A000006D0FB685B68FA6890680022796998478D
:102A1000FB681B689B8899B2FB681B687A890A432C
:102A200092B29A80FB681B689B8D99B2FB681B6809
:102A30003A890A4392B29A85FB681B68B3F848301A
:102A400099B2FB681B68FA880A4392B2A3F848203F
:102A500000BF1837BD4680BD2DE9F04F9DB000AFD7
:102A600078603960002287F86F204FF000014FF046
:102A70000002C7E918120222BA657A687A6500BFB7
:102A80007A6D1268128992B202F4C062002AF7D1FC
:102A900000223A65EFF31082BA63BA6B3A6572B6F8
:102AA0007A6D126847F2276111847A6D1268128E6E
:102AB00092B2BA847A6D1268928E92B2FA847A6D6A
:102AC0001268128F92B23A857A6D126847F22761C6
:102AD00011847A6D1268128E92B27A857A6D1268BC
:102AE000928E92B2BA857A6D1268128F92B2FA857E
:102AF0007A6D126847F2276111847A6D1268128E1E
:102B000092B23A867A6D1268928E92B27A867A6D15
:102B10001268128F92B2BA867A6D1268128DA7F877
:102B20004E203A6DFA63FA6B82F31088704A11688E
:102B30007A6D1268914211D0B7F84E2052091046B2
:102B40004FF000010A4601464FF00F0A4FF0000B0C
:102B500001EA0A0102EA0B02C7E91812386E4FF0C7
:102B600001014FF00002A0F1200EC0F1200C02FA8A
:102B700000F601FA0EFE46EA0E0621FA0CFC46EAC1
:102B80000C0601FA00F515F1FF3146F1FF32C7E9F5
:102B900010120022FA6552E0F96D0A4652000A440A
:102BA000520007F170010A444A3A128891B24FF07C
:102BB00000024FEA11494FEA0148F96D0A465200F6
:102BC0000A44520007F170010A444C3A128891B24B
:102BD0004FF0000241EA080A42EA090B386EA0F100
:102BE0002006C0F120050BFA00F40AFA06F6344379
:102BF0002AFA05F52C430AFA00F3F96D0A46520049
:102C00000A44520007F170010A44483A128895B20A
:102C10004FF00006D7E9101201EA050A02EA060B96
:102C20004AEA03014BEA0402F86DC00007F170059F
:102C300028446838C0E90012FA6D0132FA65FA6D6D
:102C4000022AA9D9D7E90612D7E90434A24208BF5B
:102C5000994236D0D7E90612D7E904566B1C46F1E3
:102C60000004A24208BF99422BD0D7E90612D7E947
:102C70000234A24208BF994223D0D7E90612D7E90D
:102C800002566B1C46F10004A24208BF994218D0BC
:102C9000D7E90412D7E90234A24208BF99420AD008
:102CA000D7E90412D7E902566B1C46F10004A24290
:102CB00008BF994202D10123BB6502E0012387F8D6
:102CC0006F303968BA6D13465B0013445B0007F13F
:102CD00070021344A3F14C020B46116819609288EC
:102CE0009A8097F86F3018467437BD46BDE8F08F6C
:102CF0004800042080B483B000AF0346FB7197F90D
:102D00000730002B10DBFB7903F01F02094997F90C
:102D100007305B09012000FA02F2203341F823203A
:102D2000BFF34F8FBFF36F8F00BF0C37BD465DF809
:102D3000047B704700E100E080B586B000AF7860AA
:102D40000023FB747B681B681B883B820023FB818C
:102D50007B681B683A8A1A807B681B681B8CBB8166
:102D6000FB8943F08003FB81FB8943F01003FB8167
:102D7000FA893B8A13409BB2002B1AD03B8A03F09E
:102D800010039BB2002B05D07B681B6943F0010246
:102D90007B681A613B8A03F080039BB2002B05D04D
:102DA0007B681B6943F002027B681A610123FB7494
:102DB00059E0BB8903F00F039BB2C3F10803FB8208
:102DC000BB891B0A9BB203F00F03BB8217E07B6831
:102DD0005B691A787B681B6892B21A817B685B69B1
:102DE0007A6892F820201A447B685A617B689B8B32
:102DF000013B9AB27B689A83FB8A013BFB82FB8A88
:102E0000002B03D07B689B8B002BE0D17B6893F871
:102E1000243083F00103DBB2002B1DD17B689B8B38
:102E2000002B20D118E07B681B689B889AB27B68D6
:102E30009B69D2B21A707B689B697A6892F82120EC
:102E40001A447B689A617B68DB8B013B9AB27B6892
:102E5000DA83BB8A013BBB82BB8A002B03D07B6831
:102E6000DB8B002BDFD17B68DB8B002B31D17B68C8
:102E70009B8B002B2DD17B681B681B8A9BB203F0B8
:102E80000203022B19D13B8A03F00203002B07D166
:102E90007B681B681B889BB203F00203022B18D1CE
:102EA0000123FB747B681B689B8B9AB27B681B6851
:102EB00022F0010292B29A830BE00123FB747B683B
:102EC0001B689B8B9AB27B681B6822F0010292B24E
:102ED0009A83FB7C002B2ED07B681B689B8A9AB25E
:102EE0007B681B6822F4185292B29A827B68012296
:102EF00083F822207B685B6893F90C301846FFF753
:102F0000F9FE7B681B681B883B827B681B683A8ADA
:102F10001A807B689B68002B08D07B689B687A6866
:102F2000D0687A6811690022984704E07B682833EA
:102F30001846FEF705FD00BF1837BD4680BD0000EE
:102F400080B500AF034B1B691846FFF7F5FE00BFC5
:102F500080BD00BFB801042080B500AF034B5B6AA1
:102F60001846FFF7E9FE00BF80BD00BFB80104208E
:102F700080B500AF034B9B6B1846FFF7DDFE00BF2B
:102F800080BD00BFB801042080B582B000AF78607A
:102F900039607B6800229A837B681B689B8B9AB29E
:102FA0007B681B6822F0020292B29A837B68DB8BFB
:102FB000002B29D13B68002B0AD07B681B689B8AB9
:102FC0009AB27B681B6842F4005292B29A821BE06C
:102FD0007B681B689B8A9AB27B681B6822F4185234
:102FE00092B29A827B689B68002B08D07B689B68B2
:102FF0007A68D0687A6811690022984704E07B6893
:1030000028331846FEF79CFC00BF0837BD4680BD3C
:1030100080B582B000AF786039607B680022DA83C7
:103020007B681B689B8B9AB27B681B6822F004024A
:1030300092B29A837B681B681B8A9AB27B681B6872
:1030400042F4805292B21A827B689B8B002B3ED155
:103050003B68002B0AD07B681B689B8A9AB27B680E
:103060001B6842F4005292B29A8230E07B681B687F
:103070009B8A9AB27B681B6822F4185292B29A8299
:103080007B681B689B8B9AB27B681B6822F00102ED
:1030900092B29A837B68012283F822207B685B6866
:1030A00093F90C301846FFF725FE7B689B68002BD0
:1030B00008D07B689B687A68D0687A6811690022BA
:1030C000984704E07B6828331846FEF739FC00BFB8
:1030D0000837BD4680BD000080B500AF034B1B69BB
:1030E00001211846FFF750FF00BF80BDB801042042
:1030F00080B500AF034B1B6901211846FFF788FF1D
:1031000000BF80BDB801042080B500AF034B5B6AEF
:1031100001211846FFF738FF00BF80BDB801042029
:1031200080B500AF034B5B6A01211846FFF770FFC3
:1031300000BF80BDB801042080B500AF034B9B6B7E
:1031400001211846FFF720FF00BF80BDB801042011
:1031500080B500AF034B9B6B01211846FFF758FF6A
:1031600000BF80BDB801042080B483B000AF034627
:10317000FB7197F90730002B0BDBFB7903F01F0283
:10318000074997F907305B09012000FA02F241F87C
:10319000232000BF0C37BD465DF8047B704700BF9D
:1031A00000E100E080B483B000AF0346FB7197F903
:1031B0000730002B10DBFB7903F01F02094997F958
:1031C00007305B09012000FA02F2203341F8232086
:1031D000BFF34F8FBFF36F8F00BF0C37BD465DF855
:1031E000047B704700E100E080B483B000AF034689
:1031F000FB7197F90730002B0CDBFB7903F01F0202
:10320000074997F907305B09012000FA02F26033A1
:1032100041F8232000BF0C37BD465DF8047B7047A2
:1032200000E100E080B588B000AFF860B9607A6076
:10323000FB68BB61BB695B6A5B6B5B697B6100239D
:10324000FB61BB68012B02D0022B05D009E0FB69B2
:1032500043F48073FB6109E0FB6943F48063FB6125
:1032600004E0FB6943F48053FB6100BF7B691B688A
:10327000002B13D07B699B7C002B0FD0BB699A6914
:10328000FB691A43BB699A617B6900225A74BB6966
:103290005B6A00221946B86900F0FBFDBB699A69B8
:1032A000FB691A43BB699A61BB695B6A00221946D4
:1032B000B86900F0EEFD00BF2037BD4680BD80B587
:1032C00088B000AFF860B9607A60FB68BB61BB6929
:1032D0001B6A5B6B5B697B610023FB61BB68012B35
:1032E00002D0022B05D009E0FB6943F40073FB61B7
:1032F00009E0FB6943F40063FB6104E0FB6943F40C
:103300000053FB6100BF7B691B68002B13D07B69F6
:103310009B7C002B0FD0BB699A69FB691A43BB6980
:103320009A617B6900225A74BB691B6A01221946A3
:10333000B86900F0AEFDBB699A69FB691A43BB69C5
:103340009A61BB691B6A01221946B86900F0A1FDA8
:1033500000BF2037BD4680BD80B586B000AFF860A5
:103360007A603B600B46FB720023FB823B6A0022C3
:103370001A607B683B613A680021786802F024F8A3
:10338000FB681B016E4A1A443B695A606C4AFB6831
:103390001B01134408331A683B699A603B69FA7A47
:1033A0001A707B6830337B60FDF72CF9FB7A012BB8
:1033B0003CD03B697A681A623B691B6A002283F839
:1033C0003C203B691A6A3B691B6A1A633B691A6AAB
:1033D0003B691B6A9A633B691A6A3B691B6A5A63B9
:1033E0003B691B6A00229A643B691B6A554A1A644E
:1033F0003B691A6A3B691B6A18325A613B691A6A4F
:103400003B691B6ADA623B695B681B783A694E4923
:103410001846FDF73FF90346002B04D0386900F049
:103420009BF80F2387E07B684C337B60FB7A002B93
:1034300039D03B697A685A623B695B6A002283F83B
:103440003C203B695A6A3B695B6A1A633B695A6A6A
:103450003B695B6A9A633B695A6A3B695B6A5A6378
:103460003B695B6A00229A643B695B6A374A1A646B
:103470003B695A6A3B695B6A18325A613B695A6A0E
:103480003B695B6ADA623B695B685B783A69304941
:103490001846FDF7FFF80346002B04D0386900F00A
:1034A0005BF80F2347E0F968386900F0B3FD3B692A
:1034B0009B681B8C9BB203F00103002B14BF0123FC
:1034C0000023DAB23B6983F82D203B699B681B8C93
:1034D0009BB29B119BB203F00303FB82FB8A1D4A44
:1034E000D25C3B6983F82E203B6A3A691A60144A21
:1034F000FB681B0113440C333A691A603B695B6833
:1035000093F904301846FFF76FFE3B695B6893F947
:1035100004301846FFF728FE3B695B6893F90230D8
:103520001846FFF721FE3B695B6893F903301846A4
:10353000FFF71AFE002318461837BD4680BD00BFAE
:10354000F401042069360000BF3200007537000026
:103550002532000050C8000080B582B000AF78600E
:103560007B689B6800229A807B685B6893F90330D4
:103570001846FFF717FE7B685B6893F90230184620
:10358000FFF710FE7B685B6893F904301846FFF77D
:1035900009FE7B685B680022DA6000231846083762
:1035A000BD4680BD80B584B000AFF860B9607A6078
:1035B000FB70FB681B6A1B6BBA681A60FB681B6AAE
:1035C0001B6B7A685A60FB681B6A1B6B7A68DA604F
:1035D000FB681B6A1B6B00229A60FB681B6A1B6BF3
:1035E00001225A74FB681B6A1B6BFA789A74FB6899
:1035F0001B6A012283F84520FB681B6A022283F8BC
:103600004420FB78002B0CD0FB685B681B781946C4
:10361000144A01238B405363FB681B6A1B6B012216
:103620001A74FB681B6A1A6BFB681B6A52691A637F
:10363000FB681B6A93F83C30002B0DD1FB681B6ABA
:10364000022283F83C20FB681B6A1B6CFA68126A32
:10365000526B1146F8689847002318461037BD464C
:1036600080BD00BF0000014080B489B000AF786029
:1036700039603B689B7C002B5BD07B685B681B7868
:1036800019463A4A01238B40C2F814387B685B68BC
:103690001B781946354A01238B4093627B685B682F
:1036A0001B781946314A01238B4053623B681B68E3
:1036B0001A463B685B681A442D4B19687B685B6847
:1036C0001B781B010B44013A1A607B689B68194602
:1036D000274B1A687B685B681B781B0113440A46FA
:1036E0005A603B685B68013B1B01214A11687A689C
:1036F0005268127812010A4443F0404343F0010338
:1037000093600023BB61EFF310833B613B69BB61B6
:1037100072B67B689B689B889AB27B689B6842F014
:10372000100292B29A80BB697B617B6983F3108837
:1037300016E00023FB61EFF31083BB60BB68FB6105
:1037400072B67B689B689B889AB27B689B6842F0E4
:10375000020292B29A80FB69FB60FB6883F31088D7
:1037600000BF2437BD465DF8047B70470000014070
:1037700030C8000080B489B000AF786039603B6821
:103780009B7C002B5BD07B685B685B7819463A4A70
:1037900001238B40C2F81C387B685B685B78194654
:1037A000354A01238B4093627B685B685B781946DE
:1037B000314A01238B4053627B689B6819462F4B2B
:1037C0001A687B685B685B781B0113440A461A60C1
:1037D0003B681B681A463B685B681A44274B1968AC
:1037E0007B685B685B781B010B44013A5A603B685D
:1037F0005B68013B1B01214A11687A685268527864
:1038000012010A4443F0406343F001039360002334
:10381000BB61EFF310833B613B69BB6172B67B68B0
:103820009B689B889AB27B689B6842F0200292B2A8
:103830009A80BB697B617B6983F3108816E0002363
:10384000FB61EFF31083BB60BB68FB6172B67B6802
:103850009B689B889AB27B689B6842F0010292B297
:103860009A80FB69FB60FB6883F3108800BF2437F4
:10387000BD465DF8047B70470000014030C8000081
:1038800080B483B000AF786039603B6800221A7062
:103890007B689B689B8A9BB203F04003402B02D15C
:1038A0003B6801221A70002318460C37BD465DF8AC
:1038B000047B704780B485B000AF7860084611463D
:1038C0001A460346FB700B46BB7013467B707B6841
:1038D0009B689B899BB223F00F03FB817A78BB78AE
:1038E0001343DAB2FB781343DBB29AB2FB8913437A
:1038F000FB817B689B68FA899A81002318461437FC
:10390000BD465DF8047B704780B485B000AFF860B9
:10391000084611461A4603467B810B467B721346C6
:10392000FB80FB689B687A891A857B7A9BB2DB02F5
:103930009AB2FB8813439BB2FA6892686FEA4343DA
:103940006FEA53439BB29384FB689B683A7E92B2C2
:103950009A85002318461437BD465DF8047B7047EE
:1039600080B582B000AF054BDB687B60786800F003
:1039700017F800BF0837BD4680BD00BFF401042022
:1039800080B582B000AF054BDB697B60786800F0E2
:1039900007F800BF0837BD4680BD00BFF401042012
:1039A00080B58EB002AF78607B689B681B899BB244
:1039B00003F00E030C2B00F2718101A252F823F0E8
:1039C000BF3A00009D3C0000F53900009D3C00001E
:1039D000113A00009D3C0000213A00009D3C00008F
:1039E0009D3C00009D3C00009D3C00009D3C000073
:1039F000FD390000786800F00FFA52E17B689B689F
:103A00009B8E9BB2DBB21946786800F09FF948E1C3
:103A10007B6893F82E301946786800F097F940E1FA
:103A20000023FB627B689B689B8ABB83BB8B03F094
:103A300010039BB2002B05D07B689B681B888023FA
:103A4000FB6209E0BB8B03F008039BB2002B03D0A1
:103A5000FB6A43F01003FB62BB8B03F004039BB2D1
:103A6000002B03D0FB6A43F02003FB62BB8B03F007
:103A700002039BB2002B03D0FB6A43F04003FB62BE
:103A8000FB6A002B00F00C817B681B7D83F0010337
:103A9000DBB2002B00F004817B689A69FB6A1A4351
:103AA0007B689A617B681B78002B00F0F9807B684B
:103AB0005B6A04221946786800F0EBF9F0E0002315
:103AC000BB627B689B68B3F844309BB203F00F0382
:103AD0007B837B689B68B3F840309BB203F00103A3
:103AE0003B837B8B002B00F0C9803B8B002B00F0CD
:103AF000C58007F10C0319460020FDF7B5FB03460E
:103B0000002B01D00023FB607B689B68B3F8483032
:103B10009BB21B037B617B689B68B3F844309BB20C
:103B20001B099BB21A467B6913437B617B8B03F0B5
:103B30000103002B6FD07B689B689B8C9BB203F4C6
:103B40000043B3F5004F4DD1002387F827304FF4E1
:103B500000633B610123FB837B693F2B06D87B69B4
:103B60005B02DA083B69D31A3B6228E07B697F2B52
:103B700009D87B691B02DA083B69D31A3B6201232F
:103B800087F827301BE07B69FF2B09D87B69DB01B5
:103B9000DA083B69D31A3B62022387F827300EE02C
:103BA0007B691B0AFB837B699A01FB8BDB00B2FB01
:103BB000F3F23B69D31A3B62032387F827303B6A51
:103BC0009AB2F98B97F82730009313460122786850
:103BD000FFF79AFEFB68DA007B69B2FBF3F27B68C1
:103BE0009A6206E0FB68DA007B69B2FBF3F27B685D
:103BF0009A627B68DB68002B3DD07B6893F82C30A1
:103C0000002B38D07B68DB687A6810697A68926A22
:103C1000032198472FE07B8B03F00203002B03D096
:103C2000BB6A43F40073BB627B8B03F00403002B7D
:103C300003D0BB6A43F48073BB627B8B03F0080341
:103C4000002B03D0BB6A43F48063BB627B68DB68F4
:103C5000002B0DD07B685B6A93F83C30022B07D1B8
:103C60007B68DB687A681069BA6A0521984702E0C8
:103C70007B68BA6ADA617B689B681B887B689B6893
:103C8000B3F840309AB27B689B6822F0070292B288
:103C9000A3F840207B6800221A7502E000BF00E014
:103CA00000BF00BF3037BD4680BD00BF80B582B0C9
:103CB00000AF074BDB687B607B681B6A01221946FB
:103CC000786800F0E6F800BF0837BD4680BD00BF49
:103CD000F401042080B582B000AF074BDB687B6045
:103CE0007B685B6A00221946786800F0D2F800BF52
:103CF0000837BD4680BD00BFF401042080B582B006
:103D000000AF074BDB697B607B681B6A01221946A9
:103D1000786800F0BEF800BF0837BD4680BD00BF20
:103D2000F401042080B582B000AF074BDB697B60F3
:103D30007B685B6A00221946786800F0AAF800BF29
:103D40000837BD4680BD00BFF401042080B586B0B1
:103D500000AF78600B46FB707B685B6A5B6B7B61D6
:103D60007B691B683B613B69002B05D07B695B7CF1
:103D7000002B01D0012300E00023FB73FB7B03F049
:103D80000103FB73FB7B002B28D00EE07B689B6854
:103D90001B8899B27B699B683A691344CAB21A704E
:103DA0007B699B685A1C7B699A60FB785A1EFA7083
:103DB000002B05D07B699A687B695B689A42E5D3E2
:103DC0007B699A687B695B689A4221D17B685B6AF0
:103DD00000221946786800F05CF819E07B68DB681F
:103DE000002B06D07B68DB687A681069002202210C
:103DF00098477B691B68002B0AD17B695B7C83F049
:103E00000103DBB2002B03D07B689B681B8800BFDB
:103E100000BF1837BD4680BD80B584B000AF786064
:103E20007B681B6A5B6B1B68002B2ED07B681B6A50
:103E30005B6B5B7C002B28D07B681B6A5B6B1B6811
:103E4000FB607B681B6A5B6B9B68FA6813441B789A
:103E5000DAB27B689B6892B21A807B681B6A5B6BE4
:103E60009A6801329A607B681B6A5B6B9A687B6810
:103E70001B6A5B6B5B689A4207D37B681B6A0122F3
:103E80001946786800F005F800BF00BF1037BD463E
:103E900080BD80B58CB000AFF860B9601346FB718F
:103EA000BB6893F83C30002B08D0BB685B6B0022EA
:103EB0005A74BB685B6B5A69BB685A63BB685B6BBF
:103EC0005B7C87F82F300023BB62EFF31083BB616C
:103ED000BB69BB6272B6FB79012B0AD1FB689B6898
:103EE0009B889AB2FB689B6822F0120292B29A8079
:103EF0001BE0FB689B689B889AB2FB689B6822F07A
:103F0000200292B29A80FB6893F82D3083F001036F
:103F1000DBB2002B09D0FB689B689B889AB2FB68D8
:103F20009B6822F0010292B29A80BB6A7B617B6936
:103F300083F31088FB68DB68002B3AD0BB6893F8EA
:103F40003C30022B35D1FB689B697B62FB68002209
:103F50009A61BB689B6B1B683B623B6AFB61BB68F9
:103F60009B6B00221A60BB689B6B5A69BB689A63A3
:103F7000BB689B6B1B68002B03D1BB68002283F8D6
:103F80003C207B6A002B07D0FB68DB68FA6810696D
:103F90007A6A0421984706E0FB68DB68FA681069D2
:103FA000F979FA699847BB6848331846FDF7C8FCA9
:103FB00020E0FB79012B0ED100BFFB689B689B8A38
:103FC0009BB203F04003402BF7D1FB689B681B8F2B
:103FD0009BB2002BF1D1BB689B6B5B691B68002B0C
:103FE00003D1BB68002283F83C20BB6848331846E5
:103FF000FDF7A6FC97F82F30002B06D0BB681B6C92
:10400000BA68526B1146F868984700BF3037BD4612
:1040100080BD000080B485B000AF786039603A6838
:104020001346DB009B1A5B00154A1344FB607B6858
:104030009B68FA6812889A817B689B68FA68528844
:104040001A857B689B68FA6892889A847B689B686B
:10405000FA68D2889A857B689B68FA6812891A8404
:104060007B689B68FA6852899A877B689B68FA68C4
:1040700092899A8000BF1437BD465DF8047B704773
:1040800034C8000080B582B000AF0346FB71FB79F5
:104090000F4A012101FA03F313610E4B1A68FB79F1
:1040A000DB0013441B68002B0ED00A4B1A68FB7907
:1040B000DB0013441B68074A1168FA79D2000A44EE
:1040C0005068F9790022984700BF0837BD4680BD87
:1040D00080C00440FC14042080B500AF0020FFF72E
:1040E000D1FF00BF80BD80B500AF0120FFF7CAFF40
:1040F00000BF80BD80B500AF0220FFF7C3FF00BF47
:1041000080BD000080B500AF074B5B6803F0200363
:10411000202B03D10520FFF7B5FF02E00320FFF7B6
:10412000B1FF00BF80BD00BF80C0044080B582B039
:1041300000AF00F087F8094B7B60094B3B6007E05C
:104140007A68131D7B603B68191D396012681A601C
:104150003B68044A9342F3D3FCF752F824D00000A2
:1041600000000420D40B042080B400AFFEE7000060
:1041700080B487B000AF2E4B1B6803F00303032B02
:1041800050D801A252F823F099410000A14100004B
:10419000A941000011420000264B274A1A603CE06A
:1041A000244B254A1A6038E0214B1B6803F4C053A6
:1041B000002B02D0204B7B6101E01F4B7B611C4B2D
:1041C000DB6803F01F033B61194BDB68DB0A03F07C
:1041D0000F03FB60164BDB681B0C03F00103BB6095
:1041E000134BDB681B0A03F001037B607A69BB6831
:1041F00002FA03F33A6902FB03F2FB68B2FBF3F243
:104200007B6822FA03F37B610A4A7B69136004E04E
:104210000A4B1B68074A136000BF064B1B68084A1D
:10422000136000E000BF1C37BD465DF8047B70479B
:1042300000C304400015042080BA8C01041504203A
:104240000815042080B584B000AF0121FA2000F0E9
:1042500027F8EFF310837B607B68FB6072B60E4B30
:104260000E4A9A600C4B4FF4E0225A620A4BD3F884
:104270008830094A43F47003C2F88830BFF36F8F67
:10428000BFF34F8FFB68BB60BB6883F3108800BF30
:104290001037BD4680BD00BF00ED00E0000000000B
:1042A00080B485B000AF78600B46FB700023FB60E4
:1042B0007B6803F00203002B03D0FB6843F001038B
:1042C000FB607B6803F01803002B03D0FB6843F00E
:1042D0000203FB607B6803F02003002B03D0FB6824
:1042E00043F48073FB607B6803F0C003002B03D0B2
:1042F000FB6843F40073FB600D4B44F65902DA602F
:10430000FB78002B06D00A4B5A690949FB68134316
:104310004B6106E0064B5A69FB68DB4304491340D6
:104320004B61002318461437BD465DF8047B704787
:1043300000C0044080B582B000AFFCF7D5FE00207D
:10434000FDF70CF90123FB7101210020FDF70CF8AA
:1043500004E0FB1D19460020FDF790F8FB79022BC5
:10436000F7D10A20FCF758FF01210120FCF7B0FF2C
:1043700001210020FCF7ACFF01210120FCF7F4FF34
:104380000123FB7104E0FB1D19460120FDF776F8BF
:10439000FB79022BF7D10420FCF712FFFCF708FF92
:1043A00000F028FB00F04CF800F0E6F900BF0837F9
:1043B000BD4680BD80B582B000AF00220A49022010
:1043C000FDF712FA0346FB71FB79002B07D0FB794E
:1043D00000221946054800F031FB012300E00023CC
:1043E00018460837BD4680BD38150420C0C80000F7
:1043F00080B582B000AF0023FB710F4B1B680E4AE3
:1044000043F4801313600C4B1B680B4A43F4800386
:10441000136001224FF480410020FCF757FB034654
:10442000FB71FB79002B02D0044800F05FFB00BF5A
:104430000837BD4680BD00BF0000024034C90000FF
:1044400080B582B000AF0023FB7110210848FCF753
:104450000DFB0346FB71FB7900221946054800F06D
:10446000EDFAFFF7C5FF00BF0837BD4680BD00BFAE
:104470000C15042054C9000080B485B000AFF8606A
:10448000B9607A60044B01221A6000BF1437BD4640
:104490005DF8047B704700BF38150420B0B5A0B0AC
:1044A00004AFA44B07F148041D460FCD0FC495E897
:1044B00003002060043421709F4B07F118041D464F
:1044C0000FCD0FC40FCD0FC495E80F0084E80F0087
:1044D0000123BB6607F114013A4607F148003B1D72
:1044E000039307F10803029307F10C03019307F10B
:1044F000100300930B46914900F0D2FF3B46032284
:104500008F49184601F06AF80346002B02D10123B7
:10451000BB6682E03B4603228A49184601F05EF8FA
:104520000346002B02D10223BB6676E03B46032202
:104530008549184601F052F80346002B02D10323A7
:10454000BB666AE03B4603228049184601F046F804
:104550000346002B02D10423BB665EE03B460322E8
:104560007B49184601F03AF80346002B02D1052397
:10457000BB6652E03B4603227649184601F02EF80E
:104580000346002B02D10623BB6646E03B460322CE
:104590007149184601F022F80346002B02D1072387
:1045A000BB663AE03B4603226C49184601F016F818
:1045B0000346002B02D10823BB662EE03B460322B4
:1045C0006749184601F00AF80346002B02D1092377
:1045D000BB6622E03B4603226249184600F0FEFF1C
:1045E0000346002B02D10A23BB6616E03B4603229A
:1045F0005D49184600F0F2FF0346002B02D10B2361
:10460000BB660AE03B4603225849184600F0E6FF25
:104610000346002B01D10C23BB660023FB6640F24E
:10462000B2737B6629E0FB6E03F26D13FB667B6E53
:1046300003F00303002B0CD17A6E4D4B83FB021366
:104640005911D317CB1A642101FB03F3D31A002BA2
:104650000DD17A6E464B83FB0213D911D317CB1AB7
:104660004FF4C87101FB03F3D31A002B02D1FB6E88
:104670000133FB667B6E01337B667A6E3B699A423F
:10468000D1D301233B660EE03B6E013B9B0007F15B
:104690007002134453F8583C1A46FB6E1344FB66F1
:1046A0003B6E01333B663B6EBA6E9A42ECD83B6977
:1046B00003F00303002B0AD13A692D4BA3FB02132D
:1046C0005B09642101FB03F3D31A002B0BD13A6978
:1046D000274BA3FB0213DB094FF4C87101FB03F363
:1046E000D31A002B0BD1BB6E022B05D8BB6E022B4D
:1046F00005D17B691D2B02D1FB6E0133FB667A6904
:10470000FB6E1344013BFB66FB6E1A4A02FB03F28D
:10471000FB684FF4616101FB03F3D118BA681346DB
:104720001B019B1A9B00CA187B68134418467037FC
:10473000BD46B0BDACC90000C4C9000068C90000D6
:104740007CC9000080C9000084C9000088C900003D
:104750008CC9000090C9000094C9000098C90000ED
:104760009CC90000A0C90000A4C90000A8C900009D
:104770001F85EB518051010080B582B000AFFFF77B
:104780008DFE78603F4B18223F490020FDF72CF941
:104790000346FB70FB78002219463C4800F04EF9B6
:1047A000384B1B68012201211846FDF789FA0346A0
:1047B000FB70FB7800221946354800F03FF9314B79
:1047C0001B680F211846FDF70DFC0346FB70FB78B4
:1047D000002219462F4800F031F92A4B1868294B5E
:1047E0001B681A462C49FDF73EFC0346FB70FB781C
:1047F00000221946294800F021F9224B18680023AD
:1048000001224FF46071FDF78EFC0346FB70FB78CC
:1048100000221946224800F011F9224800F066F9FA
:10482000184B1B6879681846FDF73BFC0346FB7084
:10483000FB78002219461C4800F000F9114B1B6858
:1048400001211846FDF7F6F90346FB70FB780022BC
:104850001946164800F0F2F80A4B1B680121184669
:10486000FDF7A2F90346FB70FB78002B05D0FB781F
:10487000002219460E4800F0E1F8FB781846083788
:10488000BD4680BD341504201C150420F4C9000069
:1048900018CA000038CA00007944000080CA00002D
:1048A000A0CA0000C0CA0000D0CA0000E4CA0000CC
:1048B00000CB000080B582B000AF174B1B683A46B2
:1048C00011461846FDF72EFB0346FB71FB79002BC2
:1048D00007D0FB7900221946104800F0AFF8FB79A9
:1048E00015E00D4B1A683B68783319461046FDF702
:1048F00031FB0346FB71FB79002B07D0FB790022CB
:104900001946074800F09AF8FB7900E0FB79184651
:104910000837BD4680BD00BF341504205CCB0000C5
:104920007CCB000080B584B000AF78603960FFF7C1
:1049300001FD0023FB6036E04FF480410020FCF7CE
:10494000FFF82A4B4FF4FA621A60284B1B68642266
:1049500002FB03F3254A136000BF244B1B68013B95
:10496000224A1360214B1B68002BF6D14FF4804183
:104970000020FCF7FFF81D4B4FF4FA621A601B4B46
:104980001B68642202FB03F3184A136000BF174B35
:104990001B68013B154A1360144B1B68002BF6D1B2
:1049A000FB680133FB60FB68032BC5DD4FF48041DE
:1049B0000020FCF7F9F80D4B4FF4FA621A600B4B2C
:1049C0001B680A4A136000BF084B1B68013B074A7B
:1049D0001360064B1B68002BF6D1054B00221A60B2
:1049E000FFF768FFFFF7E6FCE0E700BF14020420D2
:1049F0003815042080B582B002AF0E4B0093C82357
:104A00000D4A02210020FEF7A7FC0A4B1868032379
:104A100000220021FEF74EFF064B18680323009387
:104A200040F2B45302220221FEF76EFF00BFBD46E2
:104A300080BD00BF3C1504204015042090B5C9B0CE
:104A400002AF07F10C03186007F1080319603B1D62
:104A50001A60002387F8133107F108023B1D126822
:104A60001B689A4238D007F1080307F10C0207F1DE
:104A70001400391D096800911B681268194900F07B
:104A8000EDFC07E0184B1B6807F21312114618469D
:104A9000FEF7F6FE97F8133183F00103DBB2002B2B
:104AA000F0D1114B1C6807F11403184600F028FDE3
:104AB000024607F1140101232046FEF773FD4FF46F
:104AC000FA43C7F81431D7F81431013BC7F8143151
:104AD000D7F81431002BF6D100BF07F58E77BD460D
:104AE00090BD00BF9CCB00003C15042090B5C5B024
:104AF00000AF3B1D1860002387F80B3107F10C0352
:104B00001846FF231A46002100F05EFC3B1D07F10A
:104B10000C001A68194900F0A1FC07E0184B1B684B
:104B200007F20B1211461846FEF7AAFE97F80B3152
:104B300083F00103DBB2002BF0D1114B1C6807F1AD
:104B40000C03184600F0DCFC024607F10C010123BF
:104B50002046FEF727FD4FF4FA43C7F80C31D7F88B
:104B60000C31013BC7F80C31D7F80C31002BF6D1D2
:104B700000BF07F58A77BD4690BD00BFD4CB0000CB
:104B80003C15042081F0004102E000BF83F00043A7
:104B900030B54FEA41044FEA430594EA050F08BFD8
:104BA00090EA020F1FBF54EA000C55EA020C7FEA9C
:104BB000645C7FEA655C00F0E2804FEA5454D4EB19
:104BC0005555B8BF6D420CDD2C4480EA020281EAE3
:104BD000030382EA000083EA010180EA020281EA1B
:104BE0000303362D88BF30BD11F0004F4FEA01316D
:104BF0004FF4801C4CEA113102D0404261EB41017C
:104C000013F0004F4FEA03334CEA133302D0524201
:104C100063EB430394EA050F00F0A780A4F10104BD
:104C2000D5F1200E0DDB02FA0EFC22FA05F28018F7
:104C300041F1000103FA0EF2801843FA05F35941DD
:104C40000EE0A5F120050EF1200E012A03FA0EFC5C
:104C500028BF4CF0020C43FA05F3C01851EBE37186
:104C600001F0004507D54FF0000EDCF1000C7EEBA3
:104C700000006EEB0101B1F5801F1BD3B1F5001FE1
:104C80000CD349085FEA30004FEA3C0C04F1010400
:104C90004FEA445212F5800F80F09A80BCF1004F29
:104CA00008BF5FEA500C50F1000041EB045141EAAB
:104CB000050130BD5FEA4C0C404141EB010111F4AC
:104CC000801FA4F10104E9D191F0000F04BF014657
:104CD0000020B1FA81F308BF2033A3F10B03B3F135
:104CE00020020CDA0C3208DD02F1140CC2F10C02C5
:104CF00001FA0CF021FA02F10CE002F11402D8BF23
:104D0000C2F1200C01FA02F120FA0CFCDCBF41EAEE
:104D10000C019040E41AA2BF01EB0451294330BDBD
:104D20006FEA04041F3C1CDA0C340EDC04F114049A
:104D3000C4F1200220FA04F001FA02F340EA030071
:104D400021FA04F345EA030130BDC4F10C04C4F1B7
:104D5000200220FA02F001FA04F340EA0300294697
:104D600030BD21FA04F0294630BD94F0000F83F4E1
:104D7000801306BF81F480110134013D4EE77FEAC4
:104D8000645C18BF7FEA655C29D094EA050F08BF10
:104D900090EA020F05D054EA000C04BF19461046F1
:104DA00030BD91EA030F1EBF0021002030BD5FEA35
:104DB000545C05D14000494128BF41F0004130BD5D
:104DC00014F580043CBF01F5801130BD01F00045B1
:104DD00045F0FE4141F470014FF0000030BD7FEA24
:104DE000645C1ABF194610467FEA655C1CBF0B461F
:104DF000024650EA013406BF52EA033591EA030F36
:104E000041F4002130BD00BF90F0000F04BF00212D
:104E1000704730B54FF4806404F132044FF0000560
:104E20004FF0000150E700BF90F0000F04BF0021D9
:104E3000704730B54FF4806404F1320410F000453F
:104E400048BF40424FF000013EE700BF42004FEA3A
:104E5000E2014FEA31014FEA02701FBF12F07F43B7
:104E600093F07F4F81F06051704732F07F4208BF6E
:104E7000704793F07F4F04BF41F40021704730B575
:104E80004FF4607401F0004521F000411CE700BFC1
:104E900050EA010208BF704730B54FF000050AE044
:104EA00050EA010208BF704730B511F0004502D545
:104EB000404261EB41014FF4806404F132045FEA47
:104EC000915C3FF4D8AE4FF003025FEADC0C18BFF0
:104ED00003325FEADC0C18BF033202EBDC02C2F1E2
:104EE000200300FA03FC20FA02F001FA03FE40EA74
:104EF0000E0021FA02F11444BDE600BF70B54FF078
:104F0000FF0C4CF4E06C1CEA11541DBF1CEA135555
:104F100094EA0C0F95EA0C0F00F0DEF82C4481EABD
:104F2000030621EA4C5123EA4C5350EA013518BFDD
:104F300052EA033541F4801143F4801338D0A0FBCA
:104F400002CE4FF00005E1FB02E506F00042E0FB77
:104F500003E54FF00006E1FB03569CF0000F18BF7D
:104F60004EF0010EA4F1FF04B6F5007F64F5407425
:104F700004D25FEA4E0E6D4146EB060642EAC621B8
:104F800041EA55514FEAC52040EA5E504FEACE2E25
:104F9000B4F1FD0C88BFBCF5E06F1ED8BEF1004F28
:104FA00008BF5FEA500E50F1000041EB045170BDA4
:104FB00006F0004646EA010140EA020081EA0301E8
:104FC000B4EB5C04C2BFD4EB0C0541EA045170BDE4
:104FD00041F480114FF0000E013C00F3AB8014F15E
:104FE000360FDEBF002001F0004170BDC4F10004A7
:104FF000203C35DA0C341BDC04F11404C4F1200528
:1050000000FA05F320FA04F001FA05F240EA020082
:1050100001F0004221F0004110EBD37021FA04F6B8
:1050200042EB06015EEA430E08BF20EAD37070BD72
:10503000C4F10C04C4F1200500FA04F320FA05F0D1
:1050400001FA04F240EA020001F0004110EBD370D3
:1050500041F100015EEA430E08BF20EAD37070BD43
:10506000C4F1200500FA05F24EEA020E20FA04F31C
:1050700001FA05F243EA020321FA04F001F00041CB
:1050800021FA04F220EA020000EBD3705EEA430E3C
:1050900008BF20EAD37070BD94F0000F0FD101F06B
:1050A0000046400041EB010111F4801F08BF013CA4
:1050B000F7D041EA060195F0000F18BF704703F0E2
:1050C0000046520043EB030313F4801F08BF013D69
:1050D000F7D043EA0603704794EA0C0F0CEA135525
:1050E00018BF95EA0C0F0CD050EA410618BF52EADF
:1050F0004306D1D181EA030101F000414FF00000E5
:1051000070BD50EA410606BF1046194652EA4306F2
:1051100019D094EA0C0F02D150EA013613D195EA66
:105120000C0F05D152EA03361CBF104619460AD1AE
:1051300081EA030101F0004141F0FE4141F47001B8
:105140004FF0000070BD41F0FE4141F4780170BDA8
:1051500070B54FF0FF0C4CF4E06C1CEA11541DBF0D
:105160001CEA135594EA0C0F95EA0C0F00F0A7F80F
:10517000A4EB050481EA030E52EA03354FEA01313C
:1051800000F088804FEA03334FF0805545EA13134F
:1051900043EA12634FEA022245EA111545EA106517
:1051A0004FEA00260EF000419D4208BF964244F1AE
:1051B000FD0404F5407402D25B084FEA3202B61ACD
:1051C00065EB03055B084FEA32024FF480104FF4A1
:1051D000002CB6EB020E75EB030E22BFB61A754615
:1051E00040EA0C005B084FEA3202B6EB020E75EBA8
:1051F000030E22BFB61A754640EA5C005B084FEA10
:105200003202B6EB020E75EB030E22BFB61A7546DC
:1052100040EA9C005B084FEA3202B6EB020E75EBE7
:10522000030E22BFB61A754640EADC0055EA060EA8
:1052300018D04FEA051545EA16754FEA06164FEAEB
:10524000C30343EA52734FEAC2025FEA1C1CC0D197
:1052500011F4801F0BD141EA00014FF000004FF024
:10526000004CB6E711F4801F04BF01430020B4F1E5
:10527000FD0C88BFBCF5E06F3FF6AFAEB5EB030C9D
:1052800004BFB6EB020C5FEA500C50F1000041EB9A
:10529000045170BD0EF0004E4EEA113114EB5C0467
:1052A000C2BFD4EB0C0541EA045170BD41F480113A
:1052B0004FF0000E013C90E645EA060E8DE60CEA42
:1052C000135594EA0C0F08BF95EA0C0F3FF43BAF5F
:1052D00094EA0C0F0AD150EA01347FF434AF95EA16
:1052E0000C0F7FF425AF104619462CE795EA0C0FFA
:1052F00006D152EA03353FF4FDAE1046194622E7C7
:1053000050EA410618BF52EA43067FF4C5AE50EAA0
:1053100041047FF40DAF52EA43057FF4EBAE12E790
:105320004A0011D212F5001211D20DD56FF4787324
:10533000B3EB62520ED44FEAC12343F0004343EA79
:10534000505323FA02F070474FF00000704750EAC4
:10535000013002D14FF0FF3070474FF0000070472E
:1053600008B50021044602F0A3FA044B1868C36B89
:1053700003B19847204607F04DFA00BFE8CB000084
:1053800070B50D4E0D4D761BB61006D000240134BD
:1053900055F8043B9847A642F9D1094E094D761BB2
:1053A00007F03AFAB61006D00024013455F8043B51
:1053B0009847A642F9D170BDC80B0420C80B042041
:1053C000D00B0420C80B0420F0B4860743D0541E31
:1053D000002A3ED0CAB2034602E014F1FF3438D3AB
:1053E00003F8012B9D07F8D1032C2BD9CDB245EA48
:1053F00005250F2C45EA054516D9A4F110073F09EC
:1054000003F1200606EB071603F1100242E90455EA
:1054100042E902551032B242F8D104F00F040137CC
:10542000032C03EB07130DD91E462246043A032A28
:1054300046F8045BFAD8221F22F003020432134418
:1054400004F003042CB1C9B21C4403F8011B9C42B4
:10545000FBD1F0BC704714460346C5E70EB430B527
:105460009CB01FAB0C4C0D4D53F8042B019301461F
:1054700002910691206802A96FF000440794CDE9DB
:10548000044500F0F9F8029B00221A701CB0BDE838
:10549000304003B0704700BF180204200802FFFF2D
:1054A0000EB470B59DB021AC4FF4017254F8045B9A
:1054B000ADF814200290069000F022F80C4B0194F5
:1054C00001462A46039107910A4E18680A96234618
:1054D0004FF6FF75002402A90E941394ADF81650F0
:1054E00001F0F0FA1DB0BDE8704003B0704700BF96
:1054F00018020420F954000000207047000000004A
:1055000090F800F06DE9024520F007016FF0000C03
:1055100010F0070491F820F040F049804FF00004AB
:105520006FF00700D1E9002391F840F000F1080086
:1055300082FA4CF2A4FA8CF283FA4CF3A2FA8CF3BE
:105540004BBBD1E9022382FA4CF200F10800A4FA25
:105550008CF283FA4CF3A2FA8CF3E3B9D1E9042379
:1055600082FA4CF200F10800A4FA8CF283FA4CF3B0
:10557000A2FA8CF37BB9D1E9062301F1200182FA6A
:105580004CF200F10800A4FA8CF283FA4CF3A2FA70
:105590008CF3002BC6D0002A04BF04301A4612BA7E
:1055A000B2FA82F2FDE8024500EBD2007047D1E981
:1055B000002304F00305C4F100004FEAC50514F010
:1055C000040F91F840F00CFA05F562EA05021CBFE1
:1055D00063EA050362464FF00004A9E7002A41D0C0
:1055E00040EA010313F00303F0B425D1032A23D9C1
:1055F00004680D68AC421FD1043A35D0A4F10135DE
:1056000025EA040414F0803F31D1071D0D1D0DE083
:1056100057F8043B0E68A3F10134B34224EA0304B3
:105620000AD1043A20D014F0803F1DD1032A294624
:10563000384605F10405EBD803780C789C4202F15A
:10564000FF320CD182B114B90EE06AB17BB110F80F
:10565000013F11F8014FA34202F1FF32F5D0181BB0
:10566000F0BC7047104670470020F0BC70471846E9
:10567000F6E700BF000000002DE9F04FC1B00C4676
:10568000089191460B93099003F0C0FA03681493B4
:105690001846FFF735FFA38913901D0603D523692C
:1056A000002B00F018879FED947B00238DED107B7D
:1056B000CDE924330DF1C0080F931293159306938F
:1056C000CDF88C80C246CB469BF80030002B00F012
:1056D0009980252B5C4602D11CE0252B03D014F8C1
:1056E000013F002BF9D1A4EB0B0585B1DDE9243294
:1056F00001332A44072BCAF800B0CAF80450CDE998
:10570000243277DC0AF1080A069B2B44069323789F
:10571000002B77D000231A468DF86F301946079377
:105720001F464FF0FF306378059004F1010B0BF139
:10573000010B9946A9F12003582B00F27583DFE88D
:1057400013F0C30273037303BE0273037303730383
:10575000730373037303B202AD02730367034C0355
:1057600073036C03B600B600B600B600B600B60010
:10577000B600B600B60073037303730373037303B9
:10578000730373037303730373033703E402730335
:10579000E4027303730373037303DF02730373037E
:1057A000A50073037303730373037303750073031B
:1057B00073038D0273037303730373037303730320
:1057C00073037303730373037C012F01E402E40288
:1057D000E4022A012F01730373031D0173030901FE
:1057E000A700CA00C5007303E100730377007303C9
:1057F0007303CB0223AADDE9081005F0A7FF40B927
:10580000C24681E7259B23B10998089923AA05F090
:105810009DFF089B9B8913F0400F069B18BF4FF01C
:10582000FF330693069841B0BDE8F08F47F01007AC
:10583000BE0640F127850B9D073525F0070303F1D0
:105840000802D3E900450B920123059A0026013294
:105850008DF86F6000F0288427F08002039254EAEC
:10586000050240F0C080059A002A40F0B086002B67
:1058700040F0D68417F001030A9300F0488540AB4E
:105880001A46302302F8413D0D92CDE047F0100753
:1058900017F0200300F000850B9D073525F0070366
:1058A00003F10802D3E900450B920023CDE7A9F1EB
:1058B000300300201BF8019B00EB800003EB40004D
:1058C000A9F13003092BF5D9079033E747F02007FA
:1058D0009BF800302BE70B9A094B146812930432A3
:1058E00047F63003ADF8703047F002070B92002501
:1058F00002234FF07809A8E7000000000000000034
:1059000010CC00000B9A13680D9300248DF86F40A3
:10591000151D002B00F00B86059A531C00F0B38672
:1059200021460D9803F06CFC002800F094870D9B35
:105930000594C31A0A930B95039723EAE3739DF822
:105940006F6004930E94002E00F08980049B013355
:10595000049384E0002A41F0A4800B9AB90652F81F
:10596000043B0B9200F11285FA0600F106867F06D1
:1059700040F10386BDF818201A80A5E69BF8003098
:105980006C2B03BF9BF8013047F020070BF1010B94
:1059900047F01007CBE647F040079BF80030C6E61B
:1059A000002A41F06080BC0640F10A820B9D073559
:1059B00025F00703D3E9004503F108020B92002C00
:1059C00075F10003C0F2AF84059B9DF86F60013351
:1059D00000F0B48427F08002039254EA05024FF0ED
:1059E00001033FF440AF012B00F06283022B00F073
:1059F0008283414600E01146E20842EA4572E80827
:105A000004F0070305461446303354EA050001F854
:105A1000013C01F1FF32EED103980D92C00700F175
:105A20005984A8EB02030A93059B0A9A9342B8BFD4
:105A30001346049300230E9385E70B9900230A680D
:105A40008DF86F301E468DF8982001230A1DCDE990
:105A50000373CDE90A3226AB05960E960D93039B90
:105A600013F0020702D0049B02330493039B259C8E
:105A700013F084030C933FD1079B049A9D1A002DC9
:105A80003ADD102D249B29DD52462146AA461026D8
:105A9000DDE9085406E0AAF1100ABAF1100F02F18C
:105AA000080218DD0133BB481031072BCDE9243142
:105AB000C2E90006EFDD23AA2946204605F046FE8E
:105AC00000287FF4A6AEAAF1100ABAF1100FDDE9A2
:105AD00024314246E6DC55460C4692460133AD4A37
:105AE0002C44072BCDE92434CAE9002500F349856D
:105AF0009DF86F600AF1080A76B1249B01330134E6
:105B00000DF16F010122072BCDE92434CAE90012FF
:105B100000F3DB820AF1080A6FB1249B01330234DF
