:1000000000400020353300007133000071330000E0
:1000100071330000713300007133000000000000F4
:10002000000000000000000000000000713300002C
:1000300071330000000000007133000071330000D4
:10004000551B0000E1320000EF320000FD320000DD
:100050000D3300007133000019170000CD160000A9
:10006000ED170000010C0000110C000071330000BE
:1000700071330000ED070000692B000049210000EA
:100080007921000071330000950F00000507000082
:100090004123000059230000713300007133000038
:1000A000E1220000F92200001123000029230000B2
:1000B000B52E0000DD2E000071330000713300000A
:1000C00071330000713300007133000059090000E2
:1000D0007133000071330000713300007133000090
:1000E00071330000951500006121000031150000FA
:1000F000713300007504000075020000000000006C
:1001000000000000000000000000000000000000EF
:1001100000000000000000000000000000000000DF
:10012000713300007133000071330000713300003F
:10013000713300007133000071330000713300002F
:100140000000000000000000892B0000052F0000C7
:100150002D2F0000713300000000000071330000FB
:10018000FFFFFFFFFFFFFFFFFFFFFFFFFFFFFFFF7F
:1001900003329CA7FD000000FFFFFFFFFFFFFFFFF2
:1001C00010B5054C237833B9044B13B10448AFF391
:1001D00000800123237010BD000C042000000000EB
:1001E000D885000008B5034B1BB103490348AFF3A2
:1001F000008008BD00000000040C0420D885000029
:10020000154B002B08BF134B9D46A3F5803A0021E8
:100210008B460F461348144A121A03F045FF0F4B42
:10022000002B00D098470E4B002B00D098470020A1
:10023000002104000D000D48002802D00C4805F0F4
:10024000B3FA03F00DFF2000290003F0F9F903F0E1
:10025000F7FE00BF00000800004000200000000082
:1002600000000000000C04203C160420A9570000E8
:100270000167000080B584B000AF7D4B1B68BB6098
:10028000BB685B689B8C9BB2DBB2002B14D0BB6855
:100290001B6803F02003002B05D1BB685B690221BA
:1002A000B868984708E0BB685B689B8C9AB2BB68EB
:1002B0005B68D2B292B29A84BB685B689B8C9BB23B
:1002C00003F47F43002B73D0BB685B689B8C9BB2AD
:1002D0001BB2002B15DABB681B6843F00402BB6835
:1002E0001A60BB685B684FF400429A84BB68DB68A5
:1002F000002B06D0BB68DB68BA6890680022012139
:100300009847BB685B689B8C9BB203F48043002BCF
:1003100015D0BB681B6843F48072BB681A60BB6869
:100320005B684FF480429A84BB68DB68002B06D080
:10033000BB68DB68BA689068002200219847BB68F8
:100340005B689B8C9BB203F48073002B0AD0BB6864
:100350001B6843F40072BB681A60BB685B684FF4AB
:1003600080729A84BB685B689B8C9BB203F40073B9
:10037000002B0AD0BB681B6843F40052BB681A60AC
:10038000BB685B684FF400729A84BB685B689B8CA7
:100390009BB203F48063002B0AD0BB681B6843F454
:1003A0008042BB681A60BB685B684FF480629A84C5
:1003B000BB685B681B8D9BB2002B12D0BB685B686F
:1003C0001B8DFB80BB681B6803F02003002B04D14E
:1003D000BB685B690321B8689847BB685B68FA88AB
:1003E0001A85BB685B689B8D9BB2002B3BD0BB68BA
:1003F0005B689B8D9BB23B60BB681B6803F020036E
:10040000202B2BD1BB68DB68002B27D00023FB609F
:1004100021E0FB685B0001229A403B681340002BFF
:1004200006D0BB68DB68BA689068FA680321984711
:10043000FB685B00013301229A403B681340002BAC
:1004400006D0BB68DB68BA689068FA6804219847F0
:10045000FB680133FB60FB68032BDAD9BB685B6880
:100460003A6892B29A8500BF1037BD4680BD00BF82
:100470000000042090B587B000AF524B3B613B6950
:100480001B68FB604FF47C43FB823B695B681B7815
:10049000DBB2002B00F08280FB681B889BB223F448
:1004A0007F7323F003039CB22346FB82FB689B8887
:1004B0009BB223409CB2234603F40843002B28D070
:1004C0003B695B681B783B695B681433184601F035
:1004D00057F93B695B681B78DAB23B695B6822F0CD
:1004E0000C02D2B21A70FB681B889BB223F4807393
:1004F0009AB2FB681A803B695B685B68002B08D086
:100500003B695B685B683A695268906821460022E3
:10051000984704F480539BB2002B3FD03B695B6843
:10052000BB60BB681B7CDAB2BB685B7C9A4235D28D
:10053000BB68D968BB681B7CDBB23A1D5B000B440F
:100540001B881380BB681B7CDBB20133DAB2BB684B
:100550001A74BB68D968BB681B7CDBB23A465B0087
:100560000B441B881380BB681B7CDBB20133DAB2FF
:10057000BB681A743B799BB21B029AB27B799BB21F
:1005800013439AB2FB681A813B789BB21B029AB262
:100590007B789BB213439AB2FB689A81FB689B8875
:1005A0009BB21AB2B7F9163023F47F7323F003031A
:1005B0001BB213431BB29AB2FB689A8000BF1C3770
:1005C000BD4690BD1C0C042080B483B000AF034630
:1005D000FB7197F90730002B0BDBFB7903F01F024F
:1005E000074997F907305B09012000FA02F241F848
:1005F000232000BF0C37BD465DF8047B704700BF69
:1006000000E100E080B584B000AF0023FB60EFF3B1
:1006100010837B607B68FB6072B61B4B1B7883F09A
:100620000103DBB2002B26D0174B01221A70174BA7
:100630005B68164A43F001035360154A134B9A60F6
:100640001320FFF7C1FF6FF07843BB600F4ABB6810
:1006500013620E4ABB68D3620C4ABB6853630B4AF1
:10066000BB68D363094ABB689364084ABB68D36418
:10067000064ABB681365FB683B603B6883F31088E0
:1006800000BF1037BD4680BD0014042000000140AB
:100690000010042080B489B000AF0346B9607A60CE
:1006A000FB730023FB77164AFB7BDB001344043308
:1006B000BB61BB69BA681A60BB697A685A60FB7B28
:1006C000012202FA03F37B61BB68002B08D00C4BBC
:1006D000D3F8DC200A497B691343C1F8DC3008E019
:1006E000074BD3F8DC207B69DB4305491340C1F895
:1006F000DC30FB7F18462437BD465DF8047B70472D
:100700000014042080B58AB000AF2C4BDB6CFB6179
:100710002A4B9B6CBB61294B1B6D7B61284BD3F82B
:10072000DC20B9697B690B4313407B627B6A002B39
:1007300037D020233B617B6AB3FA83F33B622CE022
:100740003A693B6AD31A013BFB600122FB6802FA5B
:1007500003F3BB601A4AFB68DB00134404337B607D
:100760007B681B68002B0FD0BA69BB681340002B55
:1007700001D0012300E002233B607B681B687A689C
:100780005068002239689847BB68DB437A6A134097
:100790007B627B6AB3FA83F33B623A6A3B699A42B3
:1007A000CED3064ABB699364044A7B691365034A46
:1007B000FB69D36400BF2837BD4680BD00000140FF
:1007C0000014042080B483B000AF7860396000BFAB
:1007D0007B681B681A683B681340002BF8D100BF88
:1007E0000C37BD465DF8047B7047000080B582B0D1
:1007F00000AF0023FB710023BB71544BDB683B60EF
:100800003B681B681A683B685A613B681B683A681A
:1008100052691A603B685A694D4B13403A689361BC
:100820003B689B69002B01D00123BB71BB7983F02E
:100830000103DBB2002B45D03B685B6903F0080382
:10084000002B36D03B689B6A002B2BD03B681A6A82
:100850003B681B68DA603B681B6A03F108023B686F
:100860001A623B685A6A3B681B6812681A613B68E7
:100870005B6A1A1D3B685A623B685A6A3B681B6890
:1008800012685A613B685B6A1A1D3B685A623B6892
:100890009B6AA3F108023B689A623B681B680422CA
:1008A0009A6011E001213868FFF78CFF0123FB718A
:1008B0000AE03B685B6903F00403002B04D00123CA
:1008C000FB7101E00123FB71FB79002B39D03B6800
:1008D0001B685A683B681B6822F007025A603B6835
:1008E0001B681C4A1A623B681B681A6B3B681B68D2
:1008F00022F003021A633B681B6800221A623B68FD
:1009000000225A773B689B68002B15D0BB7983F097
:100910000103DBB2002B07D03B689B683A68D068C4
:1009200000220021984707E03B689B683A68D0683E
:100930003A689269012198473B682C33184600F0C9
:100940001FFF00BF0837BD4680BD00BF0800042060
:10095000F0AF01B865756C6780B582B000AF314B00
:10096000DB687B607B681B681A687B685A617B6800
:100970001B687A6852691A607B685A692A4B13406F
:100980007A6893617B681B68284A1A627B681B68D7
:100990001A6B7B681B6822F003021A637B681B6872
:1009A00000221A627B6800229A627B6800225A77D2
:1009B0007B689B68002B2CD07B689B69002B0CD13B
:1009C0007B681B7FDBB2002B07D17B689B687A6852
:1009D000D0680022002198471BE07B689B69002BB0
:1009E00008D17B689B687A68D0687A68926901212F
:1009F00098470EE07B681B7FDBB2002B09D17B6838
:100A00009B687A68D0687A68127FD2B21146002259
:100A100098477B682C33184600F0B2FE00BF0837B9
:100A2000BD4680BD08000420F0AF01B865756C6755
:100A300080B483B000AF0346FB7197F90730002BF9
:100A40000BDBFB7903F01F02074997F907305B09BD
:100A5000012000FA02F241F8232000BF0C37BD4606
:100A60005DF8047B704700BF00E100E080B584B012
:100A700000AF78603960144B1B69002B1ED1124AFD
:100A80007B6813610023FB600FE00F4B1B69FA6862
:100A9000002143F832100C4B1A69FB68DB00134449
:100AA00000225A60FB680133FB60FB68012BECD924
:100AB0000920FFF7BDFF0A20FFF7BAFF0023184601
:100AC0001037BD4680BD00BF1800042080B487B039
:100AD00000AF0346FB710B46BB801346BB7100237E
:100AE0007B61FB79154A52F823303B61EFF31083A9
:100AF000FB60FB687B6172B6BB79002B08D03B6959
:100B00009B889AB2BB8813439AB23B699A8009E0EA
:100B10003B699B889AB2BB88DB439BB213409AB275
:100B20003B699A807B69BB60BB6883F310880023B4
:100B300018461C37BD465DF8047B7047180004203A
:100B400080B485B000AF03460A46FB711346BB80F4
:100B5000FB79074A52F82330FB60FB68BA881A8495
:100B6000002318461437BD465DF8047B704700BF6C
:100B70001800042080B586B000AF03460A46FB711A
:100B80001346BB711D4B1A69FB79DB0013443B61B3
:100B90000023FB752BE0FB7D184A52F82330FB60E5
:100BA00097F90630092B03D1FB681B8DBB8202E04D
:100BB000FB689B8DBB82FB681B8E9AB2BB8A13407D
:100BC0009BB27B817A89FB681A863B691B68002B84
:100BD0000AD07B89002B07D03B691B683A695068B3
:100BE000F97D07F10A029847FB7D0133FB75FB7D18
:100BF000032BD0D900BF1837BD4680BD1800042094
:100C000080B500AF09210020FFF7B4FF00BF80BD11
:100C100080B500AF0A210120FFF7ACFF00BF80BD07
:100C200080B483B000AF0346FB7197F90730002B07
:100C300010DBFB7903F01F02094997F907305B09C4
:100C4000012000FA02F2203341F82320BFF34F8F36
:100C5000BFF36F8F00BF0C37BD465DF8047B704754
:100C600000E100E080B485B000AF78607B681B686D
:100C7000B3F84C309BB21B119BB203F003039BB241
:100C8000C3F10203FB8116E07B685B691B78DAB273
:100C90007B681B6892B29A817B685B695A1C7B688F
:100CA0005A617B681B8B9BB2013B9AB27B681A83AB
:100CB000FB89013BFB817B681B8B9BB2002B02D025
:100CC000FB89002BE0D17B681B8B9BB2002B30D1C2
:100CD0007B681B8D9BB2002B23D07B681B687A68D6
:100CE000D2891A8325E07B68DB691B78DAB27B68DE
:100CF0001B6892B29A817B68DB695A1C7B68DA6157
:100D00007B681B8C9BB2013B9AB27B681A847B6820
:100D10005B8D9BB201339AB27B685A85FB89013B9C
:100D2000FB817B681B8C9BB2002B02D0FB89002BC4
:100D3000D9D17B681B8B9BB2002B16D17B681B8C97
:100D40009BB2002B11D12023BB817B681B681B88C1
:100D50009BB21AB2B7F90C30DB431BB213401BB283
:100D60007B817B681B687A891A807B681B8C9BB2AD
:100D7000002B03D17B681B6804229A8000BF1437C4
:100D8000BD465DF8047B704780B485B000AF7860E5
:100D90007B681B68B3F84C309BB29B119BB203F08D
:100DA0000303FB8140E0FB89013BFB817B685B8D9A
:100DB0009BB201339AB27B685A857B681B681B899A
:100DC0009AB27B685B6AD2B21A707B685B6A5A1C03
:100DD0007B685A627B681B689B8A9BB2002B23D17D
:100DE0007B681B8D9BB2B3F5807F0DD97B681B6838
:100DF0004FF480721A827B681B8D9BB2A3F58073BF
:100E00009AB27B681A850FE07B681B8D9BB2002B22
:100E10000AD07B681B8D9AB27B681B68013A92B23C
:100E20001A827B6800221A85FB89002BBBD100BF88
:100E30001437BD465DF8047B7047000080B582B072
:100E400000AF786000BF0D4B1B881A467B681B689B
:100E50009B889BB203F488639A42F4D17B685B68F9
:100E600093F900301846FFF7DBFE7B681B68044AE5
:100E700012881A8000BF0837BD4680BDE0140420E8
:100E80003C00042080B483B000AF7860404B1B88E6
:100E90001A467B681B8903F010039A4208D07B68CE
:100EA00093F82D3043F00103DAB27B6883F82D20EC
:100EB000374B1B881A467B681B8903F080039A42D4
:100EC00008D07B6893F82D3043F00203DAB27B68D8
:100ED00083F82D202E4B1B881A467B681B8903F054
:100EE00020039A4208D07B6893F82D3043F0040326
:100EF000DAB27B6883F82D20254B1B881A467B6865
:100F00001B8903F400739A4208D07B6893F82D3054
:100F100043F01003DAB27B6883F82D201C4B1B884A
:100F20001A467B681B8903F480539A4208D07B6879
:100F300093F82D3043F02003DAB27B6883F82D203C
:100F40007B6893F82D305AB27B6893F82E305BB2F1
:100F5000DB435BB213405BB2DAB27B6883F82D20CF
:100F60007B6893F82D30002B0BD17B6893F82E30E3
:100F70009AB2074B1B889A4203D17B68082283F8F8
:100F80002D2000BF0C37BD465DF8047B704700BFC5
:100F9000E014042080B582B000AF284BDB687B6092
:100FA0007B681B689B889AB27B681A817B689B7AF6
:100FB000002B07D07B681B687A68D2891A837B680C
:100FC00000229A721E4B1B881A467B681B8903F00D
:100FD00004039A4202D07868FFF744FE184B1B883E
:100FE0001A467B681B8903F008039A4202D078688E
:100FF000FFF7CAFE124B1B881A467B681B891946ED
:1010000041F2B0230B409A4202D07868FFF73AFFD2
:101010000B4B1B881A467B681B8903F480739A422A
:1010200007D07868FFF70AFF7B683033184600F076
:10103000A7FB00BF0837BD4680BD00BF2C000420C1
:10104000E014042080B483B000AF0346FB7197F92D
:101050000730002B0BDBFB7903F01F02074997F9E0
:1010600007305B09012000FA02F241F8232000BF9B
:101070000C37BD465DF8047B704700BF00E100E01F
:1010800080B500AF2A4B4CF61432DA60284B294A5F
:101090001A61294B00221A60254B4CF61432DA6093
:1010A000234B1B69224A43F00203136100BF204B0C
:1010B0001B6903F40073002BF9D0204B1B681F4AF7
:1010C00023F0030313601D4B00221A601B4B1C4AC4
:1010D0005A601A4B00229A60184B46F61A02DA60E0
:1010E000164B5F225A61174B00221A60154B0022E3
:1010F0009A60144B00225A640D4B4CF61432DA609D
:101100000B4B1B690A4A23F0080313610620FFF703
:1011100099FF0720FFF796FF2920FFF793FF2B2069
:10112000FFF790FF02F028F90023184680BD00BFAA
:1011300000C1044002C00100E414042000C30440C4
:101140000404100000C0044080B500AF02F014F9A0
:101150000023184680BD000080B487B000AF03466E
:10116000FB7100237B61EFF31083BB60BB687B6185
:1011700072B60E4B4CF61432DA600C4B1B6923F03E
:1011800001033B61FB79033B3A6913433B61074A27
:101190003B6913617B69FB60FB6883F31088002364
:1011A00018461C37BD465DF8047B704700C10440FB
:1011B00080B487B000AF0346FB7100237B61EFF37F
:1011C0001083BB60BB687B6172B60C4B1B6823F05D
:1011D00003033B61FB79093B3A6913433B61074ACF
:1011E0003B6913607B69FB60FB6883F31088002315
:1011F00018461C37BD465DF8047B704700C30440A9
:1012000080B584B000AF03463960FB7102F0B4F8DA
:10121000134B1B68BB60FB79002B07D0012B0CD153
:10122000104B5B6803F03F03FB6008E00D4B5B680D
:101230001B0A03F03F03FB6001E004230BE0FB68A3
:10124000002B01D10123FB60BA68FB68B2FBF3F20B
:101250003B681A60002318461037BD4680BD00BFAA
:10126000F414042000C3044080B588B000AF0346E6
:101270000A46FB711346BB8000237B61FB79012B7F
:1012800004D0022B0ED0002B05D011E03F23FB61D0
:10129000BB88BB610EE04FF47C53FB61BB881B0233
:1012A000BB6107E0144BFB61BB881B04BB6101E021
:1012B00004231CE0EFF31083BB60BB687B6172B654
:1012C0000E4B5B683B61FB69DB433A6913403B6152
:1012D0003A69BB6913433B61084A3B6953607B69C8
:1012E000FB60FB6883F3108802F046F80023184681
:1012F0002037BD4680BD00BF0000FF0100C3044091
:1013000080B48BB000AF03460A46FB711346BB7135
:1013100000237B6200233B620023FB610023BB614F
:10132000FB79042B2DD801A252F823F041130000C1
:1013300051130000611300008313000071130000BB
:1013400008237B622F4B3B624FF40063FB611AE082
:1013500004237B622B4B3B624FF48063FB6112E002
:1013600002237B62274B3B624FF40073FB610AE070
:101370004FF400737B62244B3B624FF40073FB61BC
:1013800001E0092338E0EFF310833B613B69BB6167
:1013900072B61E4B4CF61432DA60BB79002B11D0BA
:1013A0003B6A1A687B6A1A433B6A1A60FB79042B12
:1013B0000FD1174B1B6803F001037B617B69012B85
:1013C000F7D106E03B6A1A687B6ADB431A403B6A46
:1013D0001A60BB69FB60FB6883F31088FB69002B14
:1013E00009D0BB79002B06D000BF084B1A69FB69F6
:1013F0001340002BF9D0002318462C37BD465DF86A
:10140000047B704710C104400CC3044000C1044079
:1014100018C3044080B485B000AF03463960FB7147
:10142000334B1B69FB603B6800221A70FB79032B6E
:101430004DD801A252F823F06D1400009114000061
:1014400049140000B5140000FB6803F00203002BF0
:1014500041D0FB6803F40073002B03D03B680222E9
:101460001A7038E03B6801221A7034E0FB6803F020
:101470000803002B31D0FB6803F40063002B03D07A
:101480003B6802221A7028E03B6801221A7024E0AF
:10149000FB6803F00403002B21D0FB6803F4806396
:1014A000002B03D03B6802221A7018E03B6801222F
:1014B0001A7014E0FB6803F48073002B03D03B68C0
:1014C00002221A700CE03B6801221A7008E03B68A7
:1014D00003221A7004E000BF02E000BF00E000BF7A
:1014E000002318461437BD465DF8047B704700BFE3
:1014F00000C1044080B483B000AF0346FB71FB79A8
:10150000012B06D1094B5B6C084A43F0020353647C
:1015100005E0064B5B6C054A23F00203536400238D
:1015200018460C37BD465DF8047B704700C0044088
:1015300080B582B000AF144B9B6903F006037B605B
:10154000124B1B68002B18D07B6803F00403002BA0
:1015500007D00E4B1B680E4A106800220F219847D7
:101560000BE07B6803F00203002B06D0074B1B68DF
:10157000074A106800220E219847034A7B6893614E
:1015800000BF0837BD4680BD00C30440E4140420FA
:10159000E814042080B584B000AF474B9B6903F486
:1015A000CC43BB60454B1A69454B13407B6000231D
:1015B000FB60444B1B68002B66D0BB68002B31D00E
:1015C000BB6803F48043002B04D0FB6843F00B039B
:1015D000FB601CE0BB6803F40053002B04D0FB68E5
:1015E00043F00A03FB6012E0BB6803F40073002BB6
:1015F00004D0FB6843F00C03FB6008E0BB6803F415
:101600008063002B03D0FB6843F00D03FB60FB6895
:10161000002B39D02B4B1B682B4A10680022F9682D
:10162000984731E07B68002B2ED07B68002B13DAC3
:10163000244B1B68244A10680022072198477B68C6
:1016400003F40053002B1FD01E4B1B681E4A10686A
:1016500000220621984717E07B6803F08043002BA7
:1016600012D0184B1B68184A1068002208219847AE
:101670007B6803F48003002B06D0124B1B68124AD0
:101680001068002209219847BB68002B03D00A4A42
:10169000BB6893610CE07B68002B09D0074B4CF6CC
:1016A0001432DA60054B1A6904497B6813430B61F5
:1016B00000BF1037BD4680BD00C3044000C10440D8
:1016C000002040C0E4140420E814042080B582B057
:1016D00000AF0E4B5B687B607B6803F00103002B5F
:1016E00010D00B4B1B68002B06D0094B1B68094A16
:1016F0001068002279689847044B5B68034A43F0FE
:101700000103536000BF0837BD4680BD00C00440E0
:10171000E4140420E814042080B582B000AF154B17
:101720005B687B60144B1B68002B17D07B6803F051
:101730000403002B06D0104B1B68104A10680022CF
:10174000002198477B6803F00203002B06D00A4B68
:101750001B680A4A1068002201219847054B5A6805
:101760007B6803F00603034913434B6000BF08374F
:10177000BD4680BD00C00440E4140420E8140420E9
:1017800080B487B000AF786000237B617B68002B5A
:101790001AD1134B7B60EFF31083FB60FB687B6116
:1017A00072B6104B9B680F4A23F0030393600E4BF5
:1017B0001B690D4A23F006031361BFF34F8F7B694A
:1017C0003B613B6983F310887B681B685A1C7B680C
:1017D0001A60002318461C37BD465DF8047B70472D
:1017E000EC14042000C0044000ED00E080B586B099
:1017F00000AF00237B6100233B61A14B9B68FB6032
:10180000FB681B681B889BB21A464FF60403134003
:101810003B61FB681B689B889BB203F07E037B8166
:101820007B89002B56D03B69002B53D03B6903F0DA
:101830001003002B08D07B8903F00403002B03D096
:101840007B6943F002037B613B6903F00403002BD7
:1018500008D07B8903F00203002B03D07B6943F09F
:1018600001037B613B6903F48053002B08D07B8923
:1018700003F00803002B03D07B6943F004037B6172
:101880003B6903F40043002B08D07B8903F040033D
:10189000002B03D07B6943F020037B613B6903F499
:1018A0008043002B08D07B8903F02003002B03D05A
:1018B0007B6943F010037B613B6903F40053002B09
:1018C00008D07B8903F01003002B03D07B6943F021
:1018D00008037B61FB681B681B8D9BB203F01F0331
:1018E0003B61FB681B689B8D9BB203F00F033B8140
:1018F0003B89002B3AD03B69002B37D03B6903F082
:101900000803002B08D03B8903F00803002B03D009
:101910007B6943F400737B613B6903F00403002B94
:1019200008D03B8903F00403002B03D07B6943F408
:1019300080737B613B6903F00203002B08D03B8975
:1019400003F00203002B03D07B6943F080037B612B
:101950003B6903F00103002B08D03B8903F001032E
:10196000002B03D07B6943F040037B61FB681B685D
:10197000B3F850309BB21A4641F6FE7313403B61F8
:10198000FB681B68B3F848309AB241F6FD73134008
:10199000FB80FB88002B75D03B69002B72D03B6924
:1019A00003F48053002B08D0FB8803F48053002BF2
:1019B00003D07B6943F480437B613B6903F400639C
:1019C000002B08D0FB8803F40063002B03D07B6955
:1019D00043F400537B613B6903F48063002B08D020
:1019E000FB8803F48063002B03D07B6943F48053AE
:1019F0007B613B6903F40073002B08D0FB8803F480
:101A00000073002B03D07B6943F400637B613B6967
:101A100003F48073002B08D0FB8803F48073002B41
:101A200003D07B6943F480137B613B6903F080033F
:101A3000002B08D0FB8803F04003002B03D07B6908
:101A400043F400137B613B6903F04003002B08D093
:101A5000FB8803F08003002B03D07B6943F48003F1
:101A60007B613B6903F02003002B0BD0FB8803F064
:101A70002003002B06D07B6943F400037B6101E067
:101A800048000420FB681B68B3F850309BB21A462C
:101A90004FF21C4313403B61FB88002B3AD03B695B
:101AA000002B37D03B6903F48043002B08D0FB8820
:101AB00003F01003002B03D07B6943F480237B6188
:101AC0003B6903F40053002B08D0FB8803F00803A4
:101AD000002B03D07B6943F400337B613B6903F443
:101AE0008053002B08D0FB8803F00403002B03D0A5
:101AF0007B6943F480337B613B6903F48063002B93
:101B000008D0FB8803F00103002B03D07B6943F46A
:101B100000437B61FB685B68002B09D07B69002B6D
:101B200006D0FB685B68FA6890680022796998477C
:101B3000FB681B687A899A80FB681B683A899A85DA
:101B4000FB681B68FA88A3F8482000BF1837BD4619
:101B500080BD00BF80B586B000AF00237B6100234D
:101B60003B61A84B5B69FB60FB681B681B889BB2F1
:101B70001A464FF6040313403B61FB681B689B88C1
:101B80009BB203F07E037B817B89002B56D03B699F
:101B9000002B53D03B6903F01003002B08D07B8946
:101BA00003F00403002B03D07B6943F002037B6145
:101BB0003B6903F00403002B08D07B8903F0020388
:101BC000002B03D07B6943F001037B613B6903F485
:101BD0008053002B08D07B8903F00803002B03D02F
:101BE0007B6943F004037B613B6903F40043002BF2
:101BF00008D07B8903F04003002B03D07B6943F0BE
:101C000020037B613B6903F48043002B08D07B8970
:101C100003F02003002B03D07B6943F010037B61AA
:101C20003B6903F40053002B08D07B8903F01003B9
:101C3000002B03D07B6943F008037B61FB681B68C2
:101C40001B8D9BB203F01F033B61FB681B689B8DE0
:101C50009BB203F01F033B813B89002B48D03B69BB
:101C6000002B45D03B6903F01003002B08D03B89C3
:101C700003F01003002B03D07B6943F480637B6186
:101C80003B6903F00803002B08D03B8903F00803ED
:101C9000002B03D07B6943F400737B613B6903F045
:101CA0000403002B08D03B8903F00403002B03D06E
:101CB0007B6943F480737B613B6903F00203002B73
:101CC00008D03B8903F00203002B03D07B6943F06B
:101CD00080037B613B6903F00103002B08D03B8943
:101CE00003F00103002B03D07B6943F040037B61C9
:101CF000FB681B68B3F850309BB21A4641F6FE737E
:101D000013403B61FB681B68B3F848309AB241F658
:101D1000FD731340FB80FB88002B75D03B69002BC3
:101D200072D03B6903F48053002B08D0FB8803F486
:101D30008053002B03D07B6943F480437B613B6974
:101D400003F40063002B08D0FB8803F40063002B2E
:101D500003D07B6943F400537B613B6903F48063E8
:101D6000002B08D0FB8803F48063002B03D07B6931
:101D700043F480537B613B6903F40073002B08D06C
:101D8000FB8803F40073002B03D07B6943F40063EA
:101D90007B613B6903F48073002B08D0FB8803F45C
:101DA0008073002B03D07B6943F480137B613B6914
:101DB00003F08003002B08D0FB8803F04003002BC6
:101DC00003D07B6943F400137B613B6903F040035C
:101DD000002B08D0FB8803F08003002B03D07B6925
:101DE00043F480037B613B6903F02003002B0BD09D
:101DF000FB8803F02003002B06D07B6943F400032B
:101E00007B6101E048000420FB681B68B3F84C309C
:101E10009BB21A464FF21C4313403B61FB88002BD8
:101E20003AD03B69002B37D03B6903F48043002B49
:101E300008D0FB8803F01003002B03D07B6943F428
:101E400080237B613B6903F40053002B08D0FB889F
:101E500003F00803002B03D07B6943F400337B615C
:101E60003B6903F48053002B08D0FB8803F0040384
:101E7000002B03D07B6943F480337B613B6903F41F
:101E80008063002B08D0FB8803F00103002B03D0F4
:101E90007B6943F400437B61FB685B68002B09D0DE
:101EA0007B69002B06D0FB685B68FA6890680022AB
:101EB00079699847FB681B689B8899B2FB681B6827
:101EC0007A890A4392B29A80FB681B689B8D99B20B
:101ED000FB681B683A890A4392B29A85FB681B68C3
:101EE000B3F8483099B2FB681B68FA880A4392B28B
:101EF000A3F8482000BF1837BD4680BD80B483B02A
:101F000000AF0346FB7197F90730002B10DBFB791C
:101F100003F01F02094997F907305B09012000FA15
:101F200002F2203341F82320BFF34F8FBFF36F8FAE
:101F300000BF0C37BD465DF8047B704700E100E050
:101F400080B586B000AF78600023FB747B681B68A7
:101F50001B883B820023FB817B681B683A8A1A80BE
:101F60007B681B681B8CBB81FB8943F08003FB8172
:101F7000FB8943F01003FB81FA893B8A13409BB233
:101F8000002B1AD03B8A03F010039BB2002B05D024
:101F90007B681B6943F001027B681A613B8A03F08E
:101FA00080039BB2002B05D07B681B6943F00202C3
:101FB0007B681A610123FB7459E0BB8903F00F03AE
:101FC0009BB2C3F10803FB82BB891B0A9BB203F0DF
:101FD0000F03BB8217E07B685B691A787B681B681C
:101FE00092B21A817B685B697A6892F820201A4461
:101FF0007B685A617B689B8B013B9AB27B689A83B2
:10200000FB8A013BFB82FB8A002B03D07B689B8B06
:10201000002BE0D17B6893F8243083F00103DBB21E
:10202000002B1DD17B689B8B002B20D118E07B6897
:102030001B689B889AB27B689B69D2B21A707B68D6
:102040009B697A6892F821201A447B689A617B68C0
:10205000DB8B013B9AB27B68DA83BB8A013BBB8294
:10206000BB8A002B03D07B68DB8B002BDFD17B6826
:10207000DB8B002B31D17B689B8B002B2DD17B68B8
:102080001B681B8A9BB203F00203022B19D13B8A07
:1020900003F00203002B07D17B681B681B889BB2EF
:1020A00003F00203022B18D10123FB747B681B6829
:1020B0009B8B9AB27B681B6822F0010292B29A83D2
:1020C0000BE00123FB747B681B689B8B9AB27B68D7
:1020D0001B6822F0010292B29A83FB7C002B2ED067
:1020E0007B681B689B8A9AB27B681B6822F4185233
:1020F00092B29A827B68012283F822207B685B6817
:1021000093F90C301846FFF7F9FE7B681B681B88B3
:102110003B827B681B683A8A1A807B689B68002B2D
:1021200008D07B689B687A68D0687A681169002259
:10213000984704E07B6828331846FFF721FB00BF6F
:102140001837BD4680BD000080B500AF034B1B694A
:102150001846FFF7F5FE00BF80BD00BF60000420F9
:1021600080B500AF034B5B6A1846FFF7E9FE00BF7E
:1021700080BD00BF6000042080B500AF034B9B6BA7
:102180001846FFF7DDFE00BF80BD00BF60000420E1
:1021900080B582B000AF786039607B6800229A8396
:1021A0007B681B689B8B9AB27B681B6822F00202DB
:1021B00092B29A837B68DB8B002B29D13B68002B82
:1021C0000AD07B681B689B8A9AB27B681B6842F4C2
:1021D000005292B29A821BE07B681B689B8A9AB27B
:1021E0007B681B6822F4185292B29A827B689B68C3
:1021F000002B08D07B689B687A68D0687A68116980
:102200000022984704E07B6828331846FFF7B8FAA5
:1022100000BF0837BD4680BD80B582B000AF786092
:1022200039607B680022DA837B681B689B8B9AB2DB
:102230007B681B6822F0040292B29A837B681B6859
:102240001B8A9AB27B681B6842F4805292B21A824F
:102250007B689B8B002B3ED13B68002B0AD07B68B0
:102260001B689B8A9AB27B681B6842F4005292B248
:102270009A8230E07B681B689B8A9AB27B681B68F5
:1022800022F4185292B29A827B681B689B8B9AB296
:102290007B681B6822F0010292B29A837B6801225C
:1022A00083F822207B685B6893F90C301846FFF7AF
:1022B00025FE7B689B68002B08D07B689B687A684A
:1022C000D0687A6811690022984704E07B68283357
:1022D0001846FFF755FA00BF0837BD4680BD00001D
:1022E00080B500AF034B1B6901211846FFF750FF73
:1022F00000BF80BD6000042080B500AF034B1B69A8
:1023000001211846FFF788FF00BF80BD6000042050
:1023100080B500AF034B5B6A01211846FFF738FF19
:1023200000BF80BD6000042080B500AF034B5B6A36
:1023300001211846FFF770FF00BF80BD6000042038
:1023400080B500AF034B9B6B01211846FFF720FFC0
:1023500000BF80BD6000042080B500AF034B9B6BC5
:1023600001211846FFF758FF00BF80BD6000042020
:1023700080B483B000AF0346FB7197F90730002BA0
:102380000BDBFB7903F01F02074997F907305B0964
:10239000012000FA02F241F8232000BF0C37BD46AD
:1023A0005DF8047B704700BF00E100E080B483B0BB
:1023B00000AF0346FB7197F90730002B10DBFB7968
:1023C00003F01F02094997F907305B09012000FA61
:1023D00002F2203341F82320BFF34F8FBFF36F8FFA
:1023E00000BF0C37BD465DF8047B704700E100E09C
:1023F00080B483B000AF0346FB7197F90730002B20
:102400000CDBFB7903F01F02074997F907305B09E2
:10241000012000FA02F2603341F8232000BF0C379C
:10242000BD465DF8047B704700E100E080B588B0F0
:1024300000AFF860B9607A60FB68BB61BB695B6A3A
:102440005B6B5B697B610023FB61BB68012B02D086
:10245000022B05D009E0FB6943F48073FB6109E0BE
:10246000FB6943F48063FB6104E0FB6943F4805340
:10247000FB6100BF7B691B68002B13D07B699B7CD1
:10248000002B0FD0BB699A69FB691A43BB699A613B
:102490007B6900225A74BB695B6A00221946B869DD
:1024A00000F0FBFDBB699A69FB691A43BB699A613D
:1024B000BB695B6A00221946B86900F0EEFD00BFF7
:1024C0002037BD4680BD80B588B000AFF860B960E8
:1024D0007A60FB68BB61BB691B6A5B6B5B697B6194
:1024E0000023FB61BB68012B02D0022B05D009E061
:1024F000FB6943F40073FB6109E0FB6943F400638B
:10250000FB6104E0FB6943F40053FB6100BF7B699E
:102510001B68002B13D07B699B7C002B0FD0BB6901
:102520009A69FB691A43BB699A617B6900225A74F4
:10253000BB691B6A01221946B86900F0AEFDBB6990
:102540009A69FB691A43BB699A61BB691B6A0122DC
:102550001946B86900F0A1FD00BF2037BD4680BD17
:1025600080B586B000AFF8607A603B600B46FB72C6
:102570000023FB823B6A00221A607B683B613A6859
:102580000021786801F090FDFB681B016E4A1A4437
:102590003B695A606C4AFB681B01134408331A6894
:1025A0003B699A603B69FA7A1A707B6830337B60CA
:1025B000FEF728F8FB7A012B3CD03B697A681A6257
:1025C0003B691B6A002283F83C203B691A6A3B691D
:1025D0001B6A1A633B691A6A3B691B6A9A633B6907
:1025E0001A6A3B691B6A5A633B691B6A00229A6438
:1025F0003B691B6A554A1A643B691A6A3B691B6A44
:1026000018325A613B691A6A3B691B6ADA623B6994
:102610005B681B783A694E491846FEF73BF803465B
:10262000002B04D0386900F09BF80F2387E07B680B
:102630004C337B60FB7A002B39D03B697A685A6255
:102640003B695B6A002283F83C203B695A6A3B691C
:102650005B6A1A633B695A6A3B695B6A9A633B69C6
:102660005A6A3B695B6A5A633B695B6A00229A64F7
:102670003B695B6A374A1A643B695A6A3B695B6A21
:1026800018325A613B695A6A3B695B6ADA623B6994
:102690005B685B783A6930491846FDF7FBFF0346F3
:1026A000002B04D0386900F05BF80F2347E0F9688D
:1026B000386900F0B3FD3B699B681B8C9BB203F04B
:1026C0000103002B14BF01230023DAB23B6983F816
:1026D0002D203B699B681B8C9BB29B119BB203F026
:1026E0000303FB82FB8A1D4AD25C3B6983F82E20E0
:1026F0003B6A3A691A60144AFB681B0113440C33A5
:102700003A691A603B695B6893F904301846FFF731
:102710006FFE3B695B6893F904301846FFF728FEAB
:102720003B695B6893F902301846FFF721FE3B696D
:102730005B6893F903301846FFF71AFE002318462A
:102740001837BD4680BD00BF9C00042071280000E2
:10275000C72400007D2900002D240000C482000051
:1027600080B582B000AF78607B689B6800229A8059
:102770007B685B6893F903301846FFF717FE7B68A8
:102780005B6893F902301846FFF710FE7B685B68C0
:1027900093F904301846FFF709FE7B685B68002256
:1027A000DA60002318460837BD4680BD80B584B086
:1027B00000AFF860B9607A60FB70FB681B6A1B6B46
:1027C000BA681A60FB681B6A1B6B7A685A60FB6800
:1027D0001B6A1B6B7A68DA60FB681B6A1B6B002242
:1027E0009A60FB681B6A1B6B01225A74FB681B6AA8
:1027F0001B6BFA789A74FB681B6A012283F84520E8
:10280000FB681B6A022283F84420FB78002B0CD063
:10281000FB685B681B781946144A01238B4053639D
:10282000FB681B6A1B6B01221A74FB681B6A1A6B1C
:10283000FB681B6A52691A63FB681B6A93F83C3099
:10284000002B0DD1FB681B6A022283F83C20FB6839
:102850001B6A1B6CFA68126A526B1146F86898473B
:10286000002318461037BD4680BD00BF0000014060
:1028700080B489B000AF786039603B689B7C002BE6
:102880005BD07B685B681B7819463A4A01238B4012
:10289000C2F814387B685B681B781946354A0123F7
:1028A0008B4093627B685B681B781946314A012331
:1028B0008B4053623B681B681A463B685B681A444E
:1028C0002D4B19687B685B681B781B010B44013A30
:1028D0001A607B689B681946274B1A687B685B689F
:1028E0001B781B0113440A465A603B685B68013B36
:1028F0001B01214A11687A685268127812010A4451
:1029000043F0404343F0010393600023BB61EFF3C6
:1029100010833B613B69BB6172B67B689B689B8897
:102920009AB27B689B6842F0100292B29A80BB69AF
:102930007B617B6983F3108816E00023FB61EFF372
:102940001083BB60BB68FB6172B67B689B689B8829
:102950009AB27B689B6842F0020292B29A80FB694D
:10296000FB60FB6883F3108800BF2437BD465DF829
:10297000047B704700000140A482000080B489B04D
:1029800000AF786039603B689B7C002B5BD07B6834
:102990005B685B7819463A4A01238B40C2F81C38C1
:1029A0007B685B685B781946354A01238B409362EC
:1029B0007B685B685B781946314A01238B40536220
:1029C0007B689B6819462F4B1A687B685B685B784D
:1029D0001B0113440A461A603B681B681A463B6891
:1029E0005B681A44274B19687B685B685B781B013E
:1029F0000B44013A5A603B685B68013B1B01214A6A
:102A000011687A685268527812010A4443F04063B0
:102A100043F0010393600023BB61EFF310833B613C
:102A20003B69BB6172B67B689B689B889AB27B6886
:102A30009B6842F0200292B29A80BB697B617B69FD
:102A400083F3108816E00023FB61EFF31083BB6073
:102A5000BB68FB6172B67B689B689B889AB27B6897
:102A60009B6842F0010292B29A80FB69FB60FB68AE
:102A700083F3108800BF2437BD465DF8047B7047A0
:102A800000000140A482000080B483B000AF7860F1
:102A900039603B6800221A707B689B689B8A9BB2F6
:102AA00003F04003402B02D13B6801221A7000233F
:102AB00018460C37BD465DF8047B704780B485B07E
:102AC00000AF7860084611461A460346FB700B4675
:102AD000BB7013467B707B689B689B899BB223F01D
:102AE0000F03FB817A78BB781343DAB2FB78134388
:102AF000DBB29AB2FB891343FB817B689B68FA893E
:102B00009A81002318461437BD465DF8047B704750
:102B100080B485B000AFF860084611461A460346F7
:102B20007B810B467B721346FB80FB689B687A892E
:102B30001A857B7A9BB2DB029AB2FB8813439BB265
:102B4000FA6892686FEA43436FEA53439BB29384F7
:102B5000FB689B683A7E92B29A8500231846143728
:102B6000BD465DF8047B704780B582B000AF054B71
:102B7000DB687B60786800F017F800BF0837BD4657
:102B800080BD00BF9C00042080B582B000AF054B23
:102B9000DB697B60786800F007F800BF0837BD4646
:102BA00080BD00BF9C00042080B58EB002AF78606D
:102BB0007B689B681B899BB203F00E030C2B00F211
:102BC000718101A252F823F0C72C0000A52E00004D
:102BD000FD2B0000A52E0000192C0000A52E0000E2
:102BE000292C0000A52E0000A52E0000A52E000017
:102BF000A52E0000A52E0000052C0000786800F02E
:102C00000FFA52E17B689B689B8E9BB2DBB2194640
:102C1000786800F09FF948E17B6893F82E301946F8
:102C2000786800F097F940E10023FB627B689B68BD
:102C30009B8ABB83BB8B03F010039BB2002B05D098
:102C40007B689B681B888023FB6209E0BB8B03F0D9
:102C500008039BB2002B03D0FB6A43F01003FB6216
:102C6000BB8B03F004039BB2002B03D0FB6A43F041
:102C70002003FB62BB8B03F002039BB2002B03D04B
:102C8000FB6A43F04003FB62FB6A002B00F00C81FF
:102C90007B681B7D83F00103DBB2002B00F0048115
:102CA0007B689A69FB6A1A437B689A617B681B7828
:102CB000002B00F0F9807B685B6A04221946786873
:102CC00000F0EBF9F0E00023BB627B689B68B3F88F
:102CD00044309BB203F00F037B837B689B68B3F89F
:102CE00040309BB203F001033B837B8B002B00F051
:102CF000C9803B8B002B00F0C58007F10C031946FF
:102D00000020FEF77DFA0346002B01D00023FB6074
:102D10007B689B68B3F848309BB21B037B617B6880
:102D20009B68B3F844309BB21B099BB21A467B697F
:102D300013437B617B8B03F00103002B6FD07B6817
:102D40009B689B8C9BB203F40043B3F5004F4DD1BD
:102D5000002387F827304FF400633B610123FB8396
:102D60007B693F2B06D87B695B02DA083B69D31A83
:102D70003B6228E07B697F2B09D87B691B02DA085C
:102D80003B69D31A3B62012387F827301BE07B693C
:102D9000FF2B09D87B69DB01DA083B69D31A3B6258
:102DA000022387F827300EE07B691B0AFB837B69CF
:102DB0009A01FB8BDB00B2FBF3F23B69D31A3B6257
:102DC000032387F827303B6A9AB2F98B97F82730AC
:102DD0000093134601227868FFF79AFEFB68DA0039
:102DE0007B69B2FBF3F27B689A6206E0FB68DA006B
:102DF0007B69B2FBF3F27B689A627B68DB68002B2D
:102E00003DD07B6893F82C30002B38D07B68DB6892
:102E10007A6810697A68926A032198472FE07B8B61
:102E200003F00203002B03D0BB6A43F40073BB62C0
:102E30007B8B03F00403002B03D0BB6A43F4807345
:102E4000BB627B8B03F00803002B03D0BB6A43F407
:102E50008063BB627B68DB68002B0DD07B685B6A9C
:102E600093F83C30022B07D17B68DB687A681069E5
:102E7000BA6A0521984702E07B68BA6ADA617B6822
:102E80009B681B887B689B68B3F840309AB27B686C
:102E90009B6822F0070292B2A3F840207B680022D0
:102EA0001A7502E000BF00E000BF00BF3037BD462A
:102EB00080BD00BF80B582B000AF074BDB687B6090
:102EC0007B681B6A01221946786800F0E6F800BFAB
:102ED0000837BD4680BD00BF9C00042080B582B08D
:102EE00000AF074BDB687B607B685B6A002219469A
:102EF000786800F0D2F800BF0837BD4680BD00BF3B
:102F00009C00042080B582B000AF074BDB697B607A
:102F10007B681B6A01221946786800F0BEF800BF82
:102F20000837BD4680BD00BF9C00042080B582B03C
:102F300000AF074BDB697B607B685B6A0022194648
:102F4000786800F0AAF800BF0837BD4680BD00BF12
:102F50009C00042080B586B000AF78600B46FB7003
:102F60007B685B6A5B6B7B617B691B683B613B6970
:102F7000002B05D07B695B7C002B01D0012300E096
:102F80000023FB73FB7B03F00103FB73FB7B002B34
:102F900028D00EE07B689B681B8899B27B699B6890
:102FA0003A691344CAB21A707B699B685A1C7B69E0
:102FB0009A60FB785A1EFA70002B05D07B699A68DC
:102FC0007B695B689A42E5D37B699A687B695B6839
:102FD0009A4221D17B685B6A00221946786800F02A
:102FE0005CF819E07B68DB68002B06D07B68DB6847
:102FF0007A6810690022022198477B691B68002BC0
:103000000AD17B695B7C83F00103DBB2002B03D028
:103010007B689B681B8800BF00BF1837BD4680BD1A
:1030200080B584B000AF78607B681B6A5B6B1B68FF
:10303000002B2ED07B681B6A5B6B5B7C002B28D03F
:103040007B681B6A5B6B1B68FB607B681B6A5B6B46
:103050009B68FA6813441B78DAB27B689B6892B26B
:103060001A807B681B6A5B6B9A6801329A607B6886
:103070001B6A5B6B9A687B681B6A5B6B5B689A4236
:1030800007D37B681B6A01221946786800F005F8AF
:1030900000BF00BF1037BD4680BD80B58CB000AF0B
:1030A000F860B9601346FB71BB6893F83C30002BA5
:1030B00008D0BB685B6B00225A74BB685B6B5A69B3
:1030C000BB685A63BB685B6B5B7C87F82F3000235F
:1030D000BB62EFF31083BB61BB69BB6272B6FB7965
:1030E000012B0AD1FB689B689B889AB2FB689B689E
:1030F00022F0120292B29A801BE0FB689B689B88C8
:103100009AB2FB689B6822F0200292B29A80FB6818
:1031100093F82D3083F00103DBB2002B09D0FB685C
:103120009B689B889AB2FB689B6822F0010292B26E
:103130009A80BB6A7B617B6983F31088FB68DB68DC
:10314000002B3AD0BB6893F83C30022B35D1FB689A
:103150009B697B62FB6800229A61BB689B6B1B6862
:103160003B623B6AFB61BB689B6B00221A60BB68D9
:103170009B6B5A69BB689A63BB689B6B1B68002B8F
:1031800003D1BB68002283F83C207B6A002B07D068
:10319000FB68DB68FA6810697A6A0421984706E0E0
:1031A000FB68DB68FA681069F979FA699847BB68C7
:1031B00048331846FEF7E4FA20E0FB79012B0ED1E4
:1031C00000BFFB689B689B8A9BB203F04003402BC7
:1031D000F7D1FB689B681B8F9BB2002BF1D1BB68BA
:1031E0009B6B5B691B68002B03D1BB68002283F8D3
:1031F0003C20BB6848331846FEF7C2FA97F82F30D8
:10320000002B06D0BB681B6CBA68526B1146F8687D
:10321000984700BF3037BD4680BD000080B485B000
:1032200000AF786039603A681346DB009B1A5B0098
:10323000154A1344FB607B689B68FA6812889A8180
:103240007B689B68FA6852881A857B689B68FA6875
:1032500092889A847B689B68FA68D2889A857B6892
:103260009B68FA6812891A847B689B68FA6852899D
:103270009A877B689B68FA6892899A8000BF1437A6
:10328000BD465DF8047B7047A882000080B582B01F
:1032900000AF0346FB71FB790F4A012101FA03F3EA
:1032A00013610E4B1A68FB79DB0013441B68002B7B
:1032B0000ED00A4B1A68FB79DB0013441B68074ADF
:1032C0001168FA79D2000A445068F97900229847C7
:1032D00000BF0837BD4680BD80C00440F014042004
:1032E00080B500AF0020FFF7D1FF00BF80BD80B5E3
:1032F00000AF0120FFF7CAFF00BF80BD80B500AF5F
:103300000220FFF7C3FF00BF80BD000080B500AF03
:10331000074B5B6803F02003202B03D10520FFF748
:10332000B5FF02E00320FFF7B1FF00BF80BD00BF83
:1033300080C0044080B582B000AF00F087F8094B30
:103340007B60094B3B6007E07A68131D7B603B683C
:10335000191D396012681A603B68044A9342F3D31E
:10336000FCF74EFFF8850000000004207C0A0420D2
:1033700080B400AFFEE7000080B487B000AF2E4BF2
:103380001B6803F00303032B50D801A252F823F06B
:10339000A1330000A9330000B1330000193400004C
:1033A000264B274A1A603CE0244B254A1A6038E035
:1033B000214B1B6803F4C053002B02D0204B7B61D0
:1033C00001E01F4B7B611C4BDB6803F01F033B617B
:1033D000194BDB68DB0A03F00F03FB60164BDB685D
:1033E0001B0C03F00103BB60134BDB681B0A03F0EB
:1033F00001037B607A69BB6802FA03F33A6902FB56
:1034000003F2FB68B2FBF3F27B6822FA03F37B6101
:103410000A4A7B69136004E00A4B1B68074A136081
:1034200000BF064B1B68084A136000E000BF1C3752
:10343000BD465DF8047B704700C30440F4140420CB
:1034400080BA8C01F8140420FC14042080B584B0E8
:1034500000AF0121FA2000F027F8EFF310837B6022
:103460007B68FB6072B60E4B0E4A9A600C4B4FF4B1
:10347000E0225A620A4BD3F88830094A43F47003B9
:10348000C2F88830BFF36F8FBFF34F8FFB68BB600C
:10349000BB6883F3108800BF1037BD4680BD00BFF6
:1034A00000ED00E00000000080B485B000AF78605F
:1034B0000B46FB700023FB607B6803F00203002BCC
:1034C00003D0FB6843F00103FB607B6803F0180343
:1034D000002B03D0FB6843F00203FB607B6803F022
:1034E0002003002B03D0FB6843F48073FB607B68F0
:1034F00003F0C003002B03D0FB6843F40073FB60B0
:103500000D4B44F65902DA60FB78002B06D00A4BCB
:103510005A690949FB6813434B6106E0064B5A6937
:10352000FB68DB43044913404B6100231846143702
:10353000BD465DF8047B704700C0044080B582B092
:1035400000AFFDF79DFD0020FDF7D4FF0123FB71C7
:1035500001210020FDF7D4FE04E0FB1D19460020E8
:10356000FDF758FFFB79022BF7D10A20FDF720FE6B
:1035700001210120FDF778FE01210020FDF774FEF6
:1035800001210120FDF7BCFE0123FB7104E0FB1DBE
:1035900019460120FDF73EFFFB79022BF7D10420ED
:1035A000FDF7DAFDFDF7D0FD00F07AF800F02CF819
:1035B00000BF0837BD4680BD80B582B000AF002394
:1035C000FB710F4B1B680E4A43F4801313600C4BC6
:1035D0001B680B4A43F48003136001224FF48041BF
:1035E0000020FDF773FA0346FB71FB79002B02D034
:1035F000044800F00BF900BF0837BD4680BD00BF8E
:1036000000000240C882000080B582B000AF0023F5
:10361000FB7110210848FDF729FA0346FB71FB797D
:1036200000221946054800F099F8FFF7C5FF00BFD2
:103630000837BD4680BD00BF00150420E8820000A9
:1036400080B584B000AF78603960FFF777FF4FF442
:1036500080410020FDF774FA00F022F80D4B1B8822
:1036600019460D4800F04CF800F03EF807F1080349
:1036700019460120FDF7C4FDBB68084AA2FB0323DD
:103680001B0BFB60FB68013BFB60FB68002BF9D167
:10369000DDE700BFBC000420FC82000073B2E745F8
:1036A00080B582B002AF0E4B0093C8230D4A0221B1
:1036B0000020FEF755FF0A4B186803230022002163
:1036C000FFF7FCF9064B1868032300934FF4AE7321
:1036D00002220221FFF71CFA00BFBD4680BD00BFD9
:1036E000101504201415042080B500AF034B1B688F
:1036F0001846FFF735F800BF80BD00BF1015042045
:1037000080B584B000AF78600B467B800023FB72ED
:1037100007E0114B1B6807F10B0211461846FFF733
:10372000B3F9FB7A83F00103DBB2002BF1D10A4B32
:1037300018687A8801237968FFF738F845F6C0538E
:10374000FB60FB68013BFB60FB68002BF9D100BF0D
:103750001037BD4680BD00BF1015042090B5C9B01C
:1037600002AF07F10C03186007F1080319603B1D55
:103770001A60002387F8133107F108023B1D126815
:103780001B689A4238D007F1080307F10C0207F1D1
:103790001400391D096800911B681268194900F06E
:1037A000CDFC07E0184B1B6807F2131211461846B0
:1037B000FFF76AF997F8133183F00103DBB2002BAE
:1037C000F0D1114B1C6807F11403184600F0D8FC27
:1037D000024607F1140101232046FEF7E7FF4FF4EC
:1037E000FA43C7F81431D7F81431013BC7F8143144
:1037F000D7F81431002BF6D100BF07F58E77BD4600
:1038000090BD00BF048300001015042090B5C5B022
:1038100000AF3B1D1860002387F80B3107F10C0344
:103820001846FF231A46002100F03EFC3B1D07F11D
:103830000C001A68194900F081FC07E0184B1B685E
:1038400007F20B1211461846FFF71EF997F80B31D5
:1038500083F00103DBB2002BF0D1114B1C6807F1A0
:103860000C03184600F08CFC024607F10C01012302
:103870002046FEF79BFF4FF4FA43C7F80C31D7F808
:103880000C31013BC7F80C31D7F80C31002BF6D1C5
:1038900000BF07F58A77BD4690BD00BF3C8300009E
:1038A0001015042081F0004102E000BF83F00043C6
:1038B00030B54FEA41044FEA430594EA050F08BFCB
:1038C00090EA020F1FBF54EA000C55EA020C7FEA8F
:1038D000645C7FEA655C00F0E2804FEA5454D4EB0C
:1038E0005555B8BF6D420CDD2C4480EA020281EAD6
:1038F000030382EA000083EA010180EA020281EA0E
:103900000303362D88BF30BD11F0004F4FEA01315F
:103910004FF4801C4CEA113102D0404261EB41016E
:1039200013F0004F4FEA03334CEA133302D05242F4
:1039300063EB430394EA050F00F0A780A4F10104B0
:10394000D5F1200E0DDB02FA0EFC22FA05F28018EA
:1039500041F1000103FA0EF2801843FA05F35941D0
:103960000EE0A5F120050EF1200E012A03FA0EFC4F
:1039700028BF4CF0020C43FA05F3C01851EBE37179
:1039800001F0004507D54FF0000EDCF1000C7EEB96
:1039900000006EEB0101B1F5801F1BD3B1F5001FD4
:1039A0000CD349085FEA30004FEA3C0C04F10104F3
:1039B0004FEA445212F5800F80F09A80BCF1004F1C
:1039C00008BF5FEA500C50F1000041EB045141EA9E
:1039D000050130BD5FEA4C0C404141EB010111F49F
:1039E000801FA4F10104E9D191F0000F04BF01464A
:1039F0000020B1FA81F308BF2033A3F10B03B3F128
:103A000020020CDA0C3208DD02F1140CC2F10C02B7
:103A100001FA0CF021FA02F10CE002F11402D8BF15
:103A2000C2F1200C01FA02F120FA0CFCDCBF41EAE1
:103A30000C019040E41AA2BF01EB0451294330BDB0
:103A40006FEA04041F3C1CDA0C340EDC04F114048D
:103A5000C4F1200220FA04F001FA02F340EA030064
:103A600021FA04F345EA030130BDC4F10C04C4F1AA
:103A7000200220FA02F001FA04F340EA030029468A
:103A800030BD21FA04F0294630BD94F0000F83F4D4
:103A9000801306BF81F480110134013D4EE77FEAB7
:103AA000645C18BF7FEA655C29D094EA050F08BF03
:103AB00090EA020F05D054EA000C04BF19461046E4
:103AC00030BD91EA030F1EBF0021002030BD5FEA28
:103AD000545C05D14000494128BF41F0004130BD50
:103AE00014F580043CBF01F5801130BD01F00045A4
:103AF00045F0FE4141F470014FF0000030BD7FEA17
:103B0000645C1ABF194610467FEA655C1CBF0B4611
:103B1000024650EA013406BF52EA033591EA030F28
:103B200041F4002130BD00BF90F0000F04BF002120
:103B3000704730B54FF4806404F132044FF0000553
:103B40004FF0000150E700BF90F0000F04BF0021CC
:103B5000704730B54FF4806404F1320410F0004532
:103B600048BF40424FF000013EE700BF42004FEA2D
:103B7000E2014FEA31014FEA02701FBF12F07F43AA
:103B800093F07F4F81F06051704732F07F4208BF61
:103B9000704793F07F4F04BF41F40021704730B568
:103BA0004FF4607401F0004521F000411CE700BFB4
:103BB00050EA010208BF704730B54FF000050AE037
:103BC00050EA010208BF704730B511F0004502D538
:103BD000404261EB41014FF4806404F132045FEA3A
:103BE000915C3FF4D8AE4FF003025FEADC0C18BFE3
:103BF00003325FEADC0C18BF033202EBDC02C2F1D5
:103C0000200300FA03FC20FA02F001FA03FE40EA66
:103C10000E0021FA02F11444BDE600BF70B54FF06A
:103C2000FF0C4CF4E06C1CEA11541DBF1CEA135548
:103C300094EA0C0F95EA0C0F00F0DEF82C4481EAB0
:103C4000030621EA4C5123EA4C5350EA013518BFD0
:103C500052EA033541F4801143F4801338D0A0FBBD
:103C600002CE4FF00005E1FB02E506F00042E0FB6A
:103C700003E54FF00006E1FB03569CF0000F18BF70
:103C80004EF0010EA4F1FF04B6F5007F64F5407418
:103C900004D25FEA4E0E6D4146EB060642EAC621AB
:103CA00041EA55514FEAC52040EA5E504FEACE2E18
:103CB000B4F1FD0C88BFBCF5E06F1ED8BEF1004F1B
:103CC00008BF5FEA500E50F1000041EB045170BD97
:103CD00006F0004646EA010140EA020081EA0301DB
:103CE000B4EB5C04C2BFD4EB0C0541EA045170BDD7
:103CF00041F480114FF0000E013C00F3AB8014F151
:103D0000360FDEBF002001F0004170BDC4F1000499
:103D1000203C35DA0C341BDC04F11404C4F120051A
:103D200000FA05F320FA04F001FA05F240EA020075
:103D300001F0004221F0004110EBD37021FA04F6AB
:103D400042EB06015EEA430E08BF20EAD37070BD65
:103D5000C4F10C04C4F1200500FA04F320FA05F0C4
:103D600001FA04F240EA020001F0004110EBD370C6
:103D700041F100015EEA430E08BF20EAD37070BD36
:103D8000C4F1200500FA05F24EEA020E20FA04F30F
:103D900001FA05F243EA020321FA04F001F00041BE
:103DA00021FA04F220EA020000EBD3705EEA430E2F
:103DB00008BF20EAD37070BD94F0000F0FD101F05E
:103DC0000046400041EB010111F4801F08BF013C97
:103DD000F7D041EA060195F0000F18BF704703F0D5
:103DE0000046520043EB030313F4801F08BF013D5C
:103DF000F7D043EA0603704794EA0C0F0CEA135518
:103E000018BF95EA0C0F0CD050EA410618BF52EAD1
:103E10004306D1D181EA030101F000414FF00000D7
:103E200070BD50EA410606BF1046194652EA4306E5
:103E300019D094EA0C0F02D150EA013613D195EA59
:103E40000C0F05D152EA03361CBF104619460AD1A1
:103E500081EA030101F0004141F0FE4141F47001AB
:103E60004FF0000070BD41F0FE4141F4780170BD9B
:103E700070B54FF0FF0C4CF4E06C1CEA11541DBF00
:103E80001CEA135594EA0C0F95EA0C0F00F0A7F802
:103E9000A4EB050481EA030E52EA03354FEA01312F
:103EA00000F088804FEA03334FF0805545EA131342
:103EB00043EA12634FEA022245EA111545EA10650A
:103EC0004FEA00260EF000419D4208BF964244F1A1
:103ED000FD0404F5407402D25B084FEA3202B61AC0
:103EE00065EB03055B084FEA32024FF480104FF494
:103EF000002CB6EB020E75EB030E22BFB61A754608
:103F000040EA0C005B084FEA3202B6EB020E75EB9A
:103F1000030E22BFB61A754640EA5C005B084FEA02
:103F20003202B6EB020E75EB030E22BFB61A7546CF
:103F300040EA9C005B084FEA3202B6EB020E75EBDA
:103F4000030E22BFB61A754640EADC0055EA060E9B
:103F500018D04FEA051545EA16754FEA06164FEADE
:103F6000C30343EA52734FEAC2025FEA1C1CC0D18A
:103F700011F4801F0BD141EA00014FF000004FF017
:103F8000004CB6E711F4801F04BF01430020B4F1D8
:103F9000FD0C88BFBCF5E06F3FF6AFAEB5EB030C90
:103FA00004BFB6EB020C5FEA500C50F1000041EB8D
:103FB000045170BD0EF0004E4EEA113114EB5C045A
:103FC000C2BFD4EB0C0541EA045170BD41F480112D
:103FD0004FF0000E013C90E645EA060E8DE60CEA35
:103FE000135594EA0C0F08BF95EA0C0F3FF43BAF52
:103FF00094EA0C0F0AD150EA01347FF434AF95EA09
:104000000C0F7FF425AF104619462CE795EA0C0FEC
:1040100006D152EA03353FF4FDAE1046194622E7B9
:1040200050EA410618BF52EA43067FF4C5AE50EA93
:1040300041047FF40DAF52EA43057FF4EBAE12E783
:1040400008B50021044601F03BFB044B1868C36B24
:1040500003B19847204604F017F900BF50830000D1
:1040600070B50D4E0D4D761BB61006D000240134F0
:1040700055F8043B9847A642F9D1094E094D761BE5
:1040800004F004F9B61006D00024013455F8043BBE
:104090009847A642F9D170BD700A0420700A042026
:1040A000780A0420700A0420F0B4860743D0541E16
:1040B000002A3ED0CAB2034602E014F1FF3438D3DE
:1040C00003F8012B9D07F8D1032C2BD9CDB245EA7B
:1040D00005250F2C45EA054516D9A4F110073F091F
:1040E00003F1200606EB071603F1100242E904551E
:1040F00042E902551032B242F8D104F00F04013700
:10410000032C03EB07130DD91E462246043A032A5B
:1041100046F8045BFAD8221F22F00302043213444B
:1041200004F003042CB1C9B21C4403F8011B9C42E7
:10413000FBD1F0BC704714460346C5E70EB430B55A
:104140009CB01FAB0C4C0D4D53F8042B0193014652
:1041500002910691206802A96FF000440794CDE90E
:10416000044500F07DF8029B00221A701CB0BDE8E7
:10417000304003B0704700BFC00004200802FFFFBA
:1041800090F800F06DE9024520F007016FF0000C97
:1041900010F0070491F820F040F049804FF000043F
:1041A0006FF00700D1E9002391F840F000F108001A
:1041B00082FA4CF2A4FA8CF283FA4CF3A2FA8CF352
:1041C0004BBBD1E9022382FA4CF200F10800A4FAB9
:1041D0008CF283FA4CF3A2FA8CF3E3B9D1E904230D
:1041E00082FA4CF200F10800A4FA8CF283FA4CF344
:1041F000A2FA8CF37BB9D1E9062301F1200182FAFE
:104200004CF200F10800A4FA8CF283FA4CF3A2FA03
:104210008CF3002BC6D0002A04BF04301A4612BA11
:10422000B2FA82F2FDE8024500EBD2007047D1E914
:10423000002304F00305C4F100004FEAC50514F0A3
:10424000040F91F840F00CFA05F562EA05021CBF74
:1042500063EA050362464FF00004A9E7000000008E
:104260002DE9F04FC1B00C46089191460B9309908F
:1042700002F0A4FB036814931846FFF781FFA3899B
:1042800013901D0603D52369002B00F018879FEDBE
:10429000947B00238DED107BCDE924330DF1C00814
:1042A0000F93129315930693CDF88C80C246CB469C
:1042B0009BF80030002B00F09980252B5C4602D142
:1042C0001CE0252B03D014F8013F002BF9D1A4EBFF
:1042D0000B0585B1DDE9243201332A44072BCAF8E6
:1042E00000B0CAF80450CDE9243277DC0AF1080A9C
:1042F000069B2B4406932378002B77D000231A4685
:104300008DF86F30194607931F464FF0FF306378E2
:10431000059004F1010B0BF1010B9946A9F1200363
:10432000582B00F27583DFE813F0C30273037303A5
:10433000BE02730373037303730373037303B20245
:10434000AD02730367034C0373036C03B600B6003E
:10435000B600B600B600B600B600B600B6007303ED
:10436000730373037303730373037303730373039D
:1043700073033703E4027303E402730373037303E9
:104380007303DF0273037303A500730373037303E3
:10439000730373037500730373038D027303730355
:1043A000730373037303730373037303730373035D
:1043B0007C012F01E402E402E4022A012F017303CD
:1043C00073031D0173030901A700CA00C50073032D
:1043D000E1007303770073037303CB0223AADDE9C3
:1043E000081003F0E1FB40B9C24681E7259B23B1E9
:1043F0000998089923AA03F0D7FB089B9B8913F01F
:10440000400F069B18BF4FF0FF330693069841B04C
:10441000BDE8F08F47F01007BE0640F127850B9DE1
:10442000073525F0070303F10802D3E900450B9295
:104430000123059A002601328DF86F6000F0288470
:1044400027F08002039254EA050240F0C080059AEA
:10445000002A40F0B086002B40F0D68417F001030C
:104460000A9300F0488540AB1A46302302F8413DDC
:104470000D92CDE047F0100717F0200300F0008503
:104480000B9D073525F0070303F10802D3E900452A
:104490000B920023CDE7A9F1300300201BF8019B0C
:1044A00000EB800003EB4000A9F13003092BF5D9A4
:1044B000079033E747F020079BF800302BE70B9A73
:1044C000094B14681293043247F63003ADF870308C
:1044D00047F002070B92002502234FF07809A8E766
:1044E0000000000000000000788300000B9A1368B1
:1044F0000D9300248DF86F40151D002B00F00B86E6
:10450000059A531C00F0B38621460D9802F028FD51
:10451000002800F094870D9B0594C31A0A930B950D
:10452000039723EAE3739DF86F6004930E94002EC3
:1045300000F08980049B0133049384E0002A41F059
:10454000A4800B9AB90652F8043B0B9200F1128535
:10455000FA0600F106867F0640F10386BDF81820B2
:104560001A80A5E69BF800306C2B03BF9BF8013046
:1045700047F020070BF1010B47F01007CBE647F09F
:1045800040079BF80030C6E6002A41F06080BC0678
:1045900040F10A820B9D073525F00703D3E900455A
:1045A00003F108020B92002C75F10003C0F2AF84F6
:1045B000059B9DF86F60013300F0B48427F0800202
:1045C000039254EA05024FF001033FF440AF012B80
:1045D00000F06283022B00F08283414600E0114626
:1045E000E20842EA4572E80804F00703054614466B
:1045F000303354EA050001F8013C01F1FF32EED1FD
:1046000003980D92C00700F15984A8EB02030A93A6
:10461000059B0A9A9342B8BF1346049300230E9356
:1046200085E70B9900230A688DF86F301E468DF8D8
:10463000982001230A1DCDE90373CDE90A3226AB88
:1046400005960E960D93039B13F0020702D0049B70
:1046500002330493039B259C13F084030C933FD1F6
:10466000079B049A9D1A002D3ADD102D249B29DD0D
:1046700052462146AA461026DDE9085406E0AAF172
:10468000100ABAF1100F02F1080218DD0133BB481D
:104690001031072BCDE92431C2E90006EFDD23AA52
:1046A0002946204603F080FA00287FF4A6AEAAF13E
:1046B000100ABAF1100FDDE924314246E6DC554616
:1046C0000C4692460133AD4A2C44072BCDE92434E5
:1046D000CAE9002500F349859DF86F600AF1080AD0
:1046E00076B1249B013301340DF16F010122072BB8
:1046F000CDE92434CAE9001200F3DB820AF1080A8A
:104700006FB1249B013302341CA90222072BCDE98F
:104710002434CAE9001200F3D7820AF1080A0C9B7C
:10472000802B00F0E781059B0A9A9D1A002D31DD50
:10473000102D249A924F22DD534621461026DDE9A2
:1047400008A404E0103D102D03F1080315DD01322B
:104750001031072ACDE92421C3E90076F2DD23AA2E
:104760005146204603F020FA00287FF446AE103D63
:10477000102DDDE924214346E9DC9A460C4601323E
:104780002C44072ACDE92424CAE9007500F3BC8231
:104790000AF1080A039BDF0500F15081249B0D9A62
:1047A000CAF800200A9ACAF8042001331444072BDF
:1047B0002594249300F30E820AF1080A039B5A07FA
:1047C00031D5079B049A9D1A002D2CDD102D249BBA
:1047D0001FDD1026DDE9089704E0103D102D0AF1D9
:1047E000080A16DD0133654A1034072BCDE924345D
:1047F000CAE90026F1DD23AA4946384603F0D4F978
:1048000000287FF4FAAD103D102DDDE92434C246B6
:10481000E8DC0133594A2C44072BCDE92434CAE99A
:10482000002500F35E83DDE9063204998A42ACBFBD
:104830009B185B180693002C40F09581002324936D
:10484000C24635E5002A40F010874E4B1293B90658
:104850003DD50B9D073525F00703D3E9004503F14E
:1048600008020B92FE0740F1D18054EA050300F0E4
:10487000CD8030238DF870308DF8719047F00207AD
:104880000223D6E59BF8003001222B2143E50B984B
:104890009BF8003004680794002C00F10400C0F27B
:1048A0000A840B9037E547F001079BF8003032E5AA
:1048B0009BF8003000297FF42EAD012220212AE54B
:1048C000002A40F0E686304B1293B906C1D40B9B08
:1048D000FA0653F8044B0B9300F111837B0640F169
:1048E0000E83A4B20025BDE747F008079BF800300F
:1048F00011E5002A40F0BD860B9D073525F0070520
:1049000095ED007B52EC171B22F0004317938DEDC1
:10491000167A05F10804DDE916014FF0FF321B4B52
:104920000B948DED107B03F0E3FA002840F0318307
:104930004FF0FF32154BDDE9160103F0BBFA0028FA
:1049400040F0278300220023DDE9100103F0A8FADC
:10495000002840F025859DF86F600D4A0D4B03211E
:10496000002027F08004B9F1470FD8BF1A46CDE9DF
:10497000041003940D920A910E90D8E598830000DC
:10498000A88300006483000078830000FFFFEF7FAE
:104990005883000054830000002A40F06E8647F0E0
:1049A0001007BC063FF5F6AD0B9BF80653F8044B19
:1049B0000B9300F1A682790640F1A38224B2E51799
:1049C000F1E59BF80090B9F12A0F0BF1010000F01E
:1049D0001886A9F13003092B834600F207850020D1
:1049E0001BF8019B00EB800003EB4000A9F13003B2
:1049F000092BF5D9059091E49BF8003047F00407A6
:104A000089E447F080079BF8003084E4022310E536
:104A1000002A40F03686B9F1000F3FF4E7AC0023DE
:104A200001221E468DF86F3005930E9326AB04923B
:104A30008DF8989003970A920D9304E6B9F1650FEB
:104A400040F3D38000220023DDE9100103F01EFAB9
:104A5000002800F06981249BB14ACAF80020013384
:104A600001340122072BCDE92434CAF8042000F3D5
:104A7000CE830AF1080A1D9B0F9A259C934280F26F
:104A80002B82249B149ACAF80020139ACAF8042097
:104A900001331444072BCDE9243400F331830AF1A8
:104AA000080A0F9B5D1E002D7FF788AE102D249AFB
:104AB0009C4F40F3858323461026DDE9084905E035
:104AC0000AF1080A103D102D40F3798301321033AA
:104AD000072ACDE92423CAE90076F1DD23AA21467D
:104AE000484603F061F800287FF487ACDDE9242311
:104AF000C246E7E7079B049A9D1A002D7FF713AE85
:104B0000102D249A874F22DD534621461026DDE9D9
:104B100008A404E0103D102D03F1080315DD013257
:104B20001031072ACDE92421C3E90076F2DD23AA5A
:104B30005146204603F038F800287FF45EAC103D63
:104B4000102DDDE924214346E9DC9A460C4601326A
:104B50002C44072ACDE92424CAE9007500F33A83DE
:104B60000AF1080ADFE523AADDE9081003F01CF8C2
:104B700000283FF463AE40E423AADDE9081003F007
:104B800013F800287FF439AC1D9B259CC2461BB945
:104B90000F9A002A00F07583249A1499CAF800101D
:104BA0001399CAF8041001320C44072A2594249260
:104BB00000F350840AF1080A002BC0F287840F9B8F
:104BC0000D9901321C44072ACDE92424CAE90013B7
:104BD0007FF7F2AD23AADDE9081002F0E5FF002817
:104BE0007FF40BAC259CC246E8E50F9A249B012A72
:104BF00004F1010403F101050AF1080640F34A81BA
:104C000001230D9ACAF80020072DCDE92454CAF8D3
:104C1000043000F3B882139B149A01351C44072D0D
:104C2000CDE92454C6E9002300F3B98208366B1C91
:104C30001F46B9460F9F0A93013F00220023DDE97A
:104C40001001059706F1080A03F020F9002840F04A
:104C5000E1800D9B776001333C44B9F1070F33606D
:104C60002594CDF8909000F33B8206F1100305F1F6
:104C7000020956469A46159A726014441FABB9F160
:104C8000070F2594CDF8909033607FF797ADA1E79B
:104C9000012B03977FF49EAC002D08BF0A2C80F0F7
:104CA000478140AB303403F8414D0D9301230A9303
:104CB000AEE423AADDE9081002F076FF00287FF4B5
:104CC0009CAB259CC2461BE523AADDE9081002F037
:104CD0006BFF00287FF491AB259CC2461FE5129F15
:104CE0004246230904F00F0043EA057329091C46D4
:104CF0000D463B5C02F8013D54EA0503F1D1A8EBF7
:104D000002030D920A9383E423AADDE9081002F05E
:104D10004BFF00287FF471AB259CC2463AE500BFEB
:104D200094830000A88300001D9B002B40F35E824B
:104D3000DDE90E329342A8BF1346002B1D460EDD5F
:104D4000249B0D9ACAF8002001332C44072B25948C
:104D5000CAF80450249300F318830AF1080A0E9B42
:104D6000002DA8BF5B1B002B1D4600F380811D9BFF
:104D70000F9A9342C0F2E481039AD00700F1E081D8
:104D80000F9A0E98D31A151A9D42A8BF1D46002DE2
:104D90000FDD249A0D99CAF80450013201442C44C5
:104DA000072ACAF80010CDE9242400F323830AF16E
:104DB000080A002DACBF5D1B1D46002D7FF7FEAC21
:104DC000102D249AC54F40F3FB8123461026DDE9C0
:104DD000084905E00AF1080A103D102D40F3EF8163
:104DE00001321033072ACDE92423CAE90076F1DD28
:104DF00023AA2146484602F0D7FE00287FF4FDAAE8
:104E0000DDE92423C246E7E7059B0A93CDF8348009
:104E1000FFF7FEBB059A002A7FF72DAF102AAF4F90
:104E200040F3EA83334692464FF0100922460A9D2A
:104E3000DDE9086407E00833AAF1100ABAF1100F9F
:104E400040F3EF8101351032072DCDE92452C3E93B
:104E50000079F0DD23AA3146204602F0A5FE0028A5
:104E60007FF4CBAADDE924524346E5E70B9BFD0620
:104E700053F8044B0B9376D500250123FFF7D9BADD
:104E80000B9A52F8044B0B9217F0100279D00025C0
:104E9000FFF7CFBA039AD1073FF5B2AE01220D99C1
:104EA000CAF80010072DCDE92454CAF8042000F3F5
:104EB000178103F102090AF1100ADCE6302B00F039
:104EC00039810D9A0239302302F8013CA8EB010325
:104ED0000A930D91FFF79CBB039BDE073FF5D1AD15
:104EE0006CE423AADDE9081002F05EFE00287FF4DE
:104EF00084AA259C97E4CDF83480FFF789BB002570
:104F0000B0E4E517002C75F10003BFF651AB059B2B
:104F100064424FF02D0665EB450501338DF86F6057
:104F20007FF44CAB002D08BF0A2C0397FFF4B9AEF9
:104F30004746204629460A22002303F017F830325C
:104F400007F8012D2046294600230A2203F00EF817
:104F500004460D4654EA0503EBD1A8EB07030D9771
:104F60000A93FFF755BB780648BFA4B2002501237A
:104F7000FFF75FBA069A1046D117C3E90001FFF7A1
:104F800097B917F040031CBF1346A4B20025FFF7E2
:104F900050BADDE9100102460B4602F0A9FF0028D5
:104FA00040F00383059B5A1C29F0200600F0448240
:104FB000472E00F06B81119B47F48072002B039207
:104FC000C0F20B829DED107B8DED187B00230C93BE
:104FD000B9F1660F00F02082B9F1460F00F05C8253
:104FE000452E00F0588121AA1EABCDE900320221E6
:104FF0001DAB059A09989DED180B00F06DFCB9F1F9
:10500000670F0D9040F02F83FB0740F169810D9BE6
:10501000059A9C1800220023DDE9180102F036FFF2
:10502000002800F0CE8123460D9A9B1A0F93472E3D
:105030001D9B0E9300F05D81B9F1660F40F0618118
:105040000E9B002B059B40F3D082002B40F0B982D1
:10505000FD0700F1B6820E9B04930A930C9B002B74
:1050600040F07A8105939DF86F60FFF760BA102BCE
:10507000249A1A4F40F3EF8023461026DDE90849B1
:1050800005E00AF1080A103D102D40F3E3800132DB
:105090001033072ACDE92423CAE90076F1DD23AADB
:1050A0002146484602F080FD00287FF4A6A9DDE9EC
:1050B0002423C246E7E7644207940B909EE4402114
:1050C000099801F08DFC089B18601861002800F019
:1050D000C282089A40235361FFF7D9B8A883000021
:1050E00023AADDE9081002F05FFD00287FF485A9FE
:1050F000DDE924340DF1C80A03F101094646BAE599
:1051000023AADDE9081002F04FFD00287FF475A9FD
:10511000259CC246C5E4059B0D9E0596062B28BF1F
:10512000062304930A93BA4B0B9503970E960D939F
:10513000FFF7FDB90D9BA8EB03030A93FFF768BACD
:10514000249A1499CAF800101399CAF8041001326D
:105150000C44072A2594249200F327810AF1080AB7
:105160000EE6069A1A60FFF7A3B823AADDE9081035
:1051700002F01AFD00287FF440A99DF86F60259C7D
:10518000C246FFF7ADBA23AADDE9081002F00CFD14
:1051900000287FF432A9DDE9245446463BE523AAE2
:1051A000DDE9081002F000FD00287FF426A9DDE902
:1051B000245446463BE5012B7FF40CAA71E51C46BE
:1051C00001322C44072ACDE92424CAE900757FF76F
:1051D000F3AAFFE423AADDE9081002F0E5FC0028A9
:1051E0007FF40BA9259CC246FFF79DBA249A8949F2
:1051F000CAF80010013201340121072ACDE9242424
:10520000CAF804103FF7B8AC0AF1080ABFE423AAB1
:10521000DDE9081002F0C8FC00287FF4EEA8C246C1
:1052200029E414461E46CDF814A005F1010903F146
:105230000802059BCDF890901C44B9F1070F259406
:10524000C6E900733FF74CAF09F1010902F1080A02
:10525000164610E51C4601322C44072ACDE92424C9
:10526000CAE9007500F327810AF1080A7FE50D9865
:105270000594FEF785FF0397CDE90A050346FFF77E
:1052800050B9039AD5077FF599AA85E4002B08BF8A
:10529000012305938FE6059B09985D1C21A91EAB90
:1052A000CDE900312A461DAB02219DED180B00F01F
:1052B00013FB0D90B9F1470F40F0C381FB0740F19C
:1052C000B9810D9BB9F1460F03EB05047FF4A2AE43
:1052D0000D9B1B78302B00F05A811D9D2C4499E6C4
:1052E0001D9A219B0E920D9A472EA3EB02030F935A
:1052F00007D10E9BDA1C02DB059A9A4233DAA9F138
:1053000002090E9B8DF87C90013B002B1D93BDBFC5
:105310000E9BC3F101032D222B22092B8DF87D203A
:1053200000F30181303330228DF87F308DF87E20FC
:1053300020AB1FAA9B1A0F9A1593012A13440A93B4
:1053400040F349810A9B139A13440A9323EAE373B7
:10535000049300230E9381E62D2600238DF86F60C1
:105360000593FFF7E7B8DDE90E318B42C0F280808C
:10537000F80740F105810E9B139A13440A9323EA20
:10538000E37304934FF0670968E623AADDE9081088
:1053900002F00AFC00287FF430A8259CC246DEE417
:1053A0002D268DF86F60FFF7D8BA23AADDE9081023
:1053B00002F0FAFB00287FF420A81D9B259CC24622
:1053C000DEE4219BA342BFF42FAE30215A1C219270
:1053D0001970219B9C42F9D826E6DDE9101202F1F2
:1053E000004319932D2318910C93F1E500230593A5
:1053F000FEF794BF23AADDE9081002F0D5FB0028D0
:105400007EF4FBAF1D9B0F9A259CD31AC246D0E4B5
:105410008C83000094830000059D099821AA1EAB8F
:10542000CDE9003203211DAB2A469DED180B00F09B
:1054300053FA0D9044194BE706230593BBE5059BF2
:1054400004930A9305900B9503970E909DF86F6057
:10545000FFF76DB823AADDE9081002F0A5FB0028CC
:105460007EF4CBAF1D9BDDE92424C246FFF7A4BB2D
:10547000139A0F9B13440E9A0A93002A06DC0E9B84
:105480000A9AC3F101031A4413460A9223EAE3730A
:1054900004934FF06709E1E5059D099821AA1EAB29
:1054A000CDE9003203211DAB2A469DED180B00F01B
:1054B00013FA0D9005E723AADDE9081002F074FB4A
:1054C00000287EF49AAF259CC24650E45D4210331A
:1054D000724F1CDA1026DDF8249004E00AF1080A65
:1054E000103D102D13DD01321034072ACDE924249C
:1054F000CAE90076F2DD23AA0899484602F054FB77
:1055000000287EF47AAFDDE92424C246E8E70132C0
:105510002C44072ACDE92424CAE900757DDC0AF170
:10552000080AFFF74CBB0DF18B0420465C4D00E0F0
:105530001046A5FB0312D20802EB8201A3EB410344
:1055400003F130011346092B00F8011C00F1FF3272
:10555000EEDC30330238D9B2844202F8011C73D930
:105560000DF17E00134601E013F8011B00F8011B4A
:105570009C42F9D123AB9B1A0DF17E021344D8E66D
:1055800023EAE37204920A934FF0670966E500226A
:105590000023DDE9180102F079FC00287FF49DAEBC
:1055A000C5F101051D952C4434E5119B3D4A002BA6
:1055B000B6BF2D269DF86F608DF86F603A4BFFF7F0
:1055C000CEB90E9B139A1344059A1A4422EAE27349
:1055D0000A92049342E517F001030E937FF4B2AEF2
:1055E0000A9B23EAE373049338E53BB9FC0705D42F
:1055F000012304930A9331E552461AE6139B0133C3
:10560000E2E70B9D9BF801302C68834644EAE47482
:10561000281D05940B90FEF77EBE23AADDE9081035
:1056200002F0C2FA00287EF4E8AEDDE92424C24686
:10563000FFF7C5BA1D9A219B0E920D9A9B1A0F93E4
:1056400057E60D9B5C19E5E40DF17E0371E68DF8DC
:105650006F10FEF79CBF099A0C2313604FF0FF33C5
:105660000693FEF7D3BE059D24E68DF86F10FFF775
:10567000ECB88DF86F10FFF73FB98DF86F10FFF79A
:105680008EB98DF86F10FFF7C6B98DF86F10FEF761
:1056900058BF8DF86F10FFF716B900BFA883000040
:1056A000CDCCCCCC608300005C830000024B13B1F6
:1056B000024800F079B87047000000000167000060
:1056C0002DE9F04F354B85B00F460390186801F077
:1056D00083F9334B1B68019303F5A4730293B94616
:1056E000019BD3F848613EB3DDF808A04FF00108F4
:1056F0007468651E0FD4013406EB84040027B9F1E9
:10570000000F20D0D4F800314B451CD0013D6B1C5C
:10571000A4F10404F3D1234B73B1D6E90032002A7B
:1057200034D1002B32D03046CAF80030AFF30080BD
:10573000DAF80060002EDBD1184B186805B0BDE820
:10574000F04F01F04BB973682268013BAB420CBFCC
:1057500075602760002AD9D0D6F88811D6F804B031
:1057600008FA05F30B4208D1904773685B45B7D13F
:10577000DAF80030B342C9D0B2E7D6F88C01D4F8D9
:105780008010034207D103989047EEE7B2461E46C9
:10579000002EADD1D0E708469047E6E7F00404209C
:1057A0005083000000000000002301461A461846FE
:1057B00002F082BA2DE9F04F03690F69BB4283B052
:1057C000C0F28680013F01F1140900F1140A59F872
:1057D00027205AF82730BC000132B3FBF2F80AEB5D
:1057E0000403009409EB040B0193B8F1000F38D0C7
:1057F00000252E46CE46D4465EF8044BDCF8003039
:10580000A2B208FB0255220C2C0C08FB0242ADB2DE
:10581000751B96B2C6EB134615FA83F306EB2346C7
:105820009BB243EA0643F3454FEA12454CF8043B6A
:105830004FEA2646E0D2009B5AF803308BB9019A12
:10584000131F9A450CD252F8043C4BB9A2F108033D
:1058500002E01A68043B1AB99A4507F1FF37F8D3FA
:105860000761044601F0ECFE00282DDB08F1010879
:105870005546002359F8041B28688AB29A1A0B0C63
:1058800012FA80F2C3EB104303EB224392B242EAD6
:105890000342CB4545F8042B4FEA2343EAD25AF89A
:1058A00027200AEB87037AB91A1F92450BD253F8C7
:1058B000042C42B9083B02E01A68043B1AB99A4525
:1058C00007F1FF37F8D32761404603B0BDE8F08FFA
:1058D000002003B0BDE8F08F2DE9F04F55EC104BE0
:1058E0009BB0066C0291814607920593CDE9004575
:1058F00056B1426C726001239340B360314601F0AF
:10590000AFFC0023C9F84030B5F10008249AB4BFB9
:10591000012300231360764BBCBF28F00048CDF86C
:10592000048033EA080300F0A680DDE90067002266
:1059300000233046394602F0A9FA054678B1059AA7
:1059400001231360259B002B00F0C080694B259A32
:1059500003F1FF3B136058461BB0BDE8F08F18AA57
:1059600019A947EC106B484601F0FCFE5FEA185499
:10597000824640F0A080DDE918542C4404F2324302
:10598000202B40F32E84C3F1400308FA03F8009B58
:1059900004F2124023FA00F048EA0000FEF7C4F8CF
:1059A00001230646013CA1F1F8770F9330463946B2
:1059B0000022514BFDF77AFF47A3D3E90023FEF7FE
:1059C0002DF947A3D3E90023FDF772FF06462046D1
:1059D0000F46FEF7B9F844A3D3E90023FEF71EF9FA
:1059E00002460B4630463946FDF762FF06460F4633
:1059F00002F094FA0022069000233046394602F065
:105A00004FFA002840F07382069E162E00F25D8247
:105A10003A4B03EBC603D3E90001DDE9002302F0B2
:105A20005DFA002800F0D983731E069300230D93BE
:105A30002C1BB4F1010800F1548200230893069B4B
:105A4000002BC0F2458298440C9300230B93029BD9
:105A5000092B5BD8052B40F3C283043B029300253E
:105A6000029B023B032B00F29A84DFE813F0E10370
:105A7000C103EA03F704059A42F20F731360009B17
:105A800083B9C8F313036BB9259BDFF874B0002BFF
:105A90003FF461AF0BF10803259A584613601BB021
:105AA000BDE8F08F259BDFF85CB0002B3FF453AFCF
:105AB0000BF10303F0E7C7F3130343F07F570F9590
:105AC000A4F2FF3447F44017189D6FE7DFF838B0B1
:105AD00058461BB0BDE8F08F61436F63A787D23F84
:105AE000B3C8608B288AC63FFB799F501344D33FCD
:105AF0000000F07F958300000000F83F0084000064
:105B0000B8830000C4830000948300004FF0FF348A
:105B10000125CDE909450023029307930021C9F827
