:1000000000400020015D00003D5D00003D5D0000FE
:100010003D5D00003D5D00003D5D00000000000012
:100020000000000000000000000000003D5D000036
:100030003D5D0000000000003D5D00003D5D0000F2
:10004000F5360000255C0000335C0000415C0000D8
:10005000515C00003D5D0000C527000079270000CD
:100060008D330000B5160000C51600003D5D000090
:100070003D5D0000891100008D5200006D480000B8
:100080009D4800003D5D000041200000A1100000DF
:10009000654A00007D4A00003D5D00003D5D0000B6
:1000A000054A00001D4A0000354A00004D4A000084
:1000B000D9550000015600003D5D00003D5D000087
:1000C0003D5D00003D5D00003D5D0000F51200005B
:1000D0003D5D00003D5D00003D5D00003D5D0000B8
:1000E0003D5D00004126000085480000DD25000040
:1000F0003D5D0000110E0000110C0000000000002A
:1001000000000000000000000000000000000000EF
:1001100000000000000000000000000000000000DF
:100120003D5D00003D5D00003D5D00003D5D000067
:100130003D5D00003D5D00003D5D00003D5D000057
:100140000000000000000000AD5200002956000031
:10015000515600003D5D0000000000003D5D0000C4
:10018000FFFFFFFFFFFFFFFFFFFFFFFFFFFFFFFF7F
:1001900003329CA7FD000000FFFFFFFFFFFFFFFFF2
:1001C00010B5054C237833B9044B13B10448AFF391
:1001D00000800123237010BD000C042000000000EB
:1001E0003C40010008B5034B1BB103490348AFF382
:1001F000008008BD00000000040C04203C40010009
:10020000154B002B08BF134B9D46A3F5803A0021E8
:100210008B460F461348144A121A08F075FC0F4B10
:10022000002B00D098470E4B002B00D098470020A1
:10023000002104000D000D48002802D00C480DF0EC
:1002400011FB08F03DFC2000290007F051FD08F0EB
:1002500013FC00BF00000800004000200000000068
:1002600000000000000C0420EC19042065D80000F8
:100270005DEA000080B483B000AF0346FB7197F9DC
:100280000730002B0BDBFB7903F01F02074997F9BE
:1002900007305B09012000FA02F241F8232000BF79
:1002A0000C37BD465DF8047B704700BF00E100E0FD
:1002B00080B483B000AF0346FB7197F90730002B81
:1002C00010DBFB7903F01F02094997F907305B093E
:1002D000012000FA02F2203341F82320BFF34F8FB0
:1002E000BFF36F8F00BF0C37BD465DF8047B7047CE
:1002F00000E100E080B483B000AF0346FB7197F9E2
:100300000730002B0CDBFB7903F01F02074997F93C
:1003100007305B09012000FA02F2603341F8232024
:1003200000BF0C37BD465DF8047B704700E100E07C
:1003300080B588B000AFF860B9607A603B60002398
:10034000FB61BB68BB617A680021B86808F0DCFB20
:10035000EFF310833B613B69FB6172B61949FB689F
:10036000BA6941F83320174AFB68DB0013445A6826
:10037000BB695A60FB697B617B6983F31088BB6949
:100380005B6840221A802E20FFF7B4FF2E20FFF773
:1003900071FFBB695B6843F601421A84B86900F0DB
:1003A0001EFCBB6900221A63BB69074A5A61054AF1
:1003B000FB6852F833203B681A6000231846203748
:1003C000BD4680BD000004207109000080B586B0E4
:1003D00000AF78600B46FB707B683B610023BB601D
:1003E0000023FB810023FB75FB78002B30D03B6999
:1003F0001B6803F00103002B51D107F108031946D4
:10040000002001F053FF0346002B1ED1BB681B09DF
:10041000254AA2FB0323DB09FB813B695B681B8840
:100420009AB23B695B6842F0010292B21A803B6962
:100430005B68FA89C2F30A0292B29A803B691B6830
:1004400043F001023B691A6029E00F23FB7526E0A7
:100450003B691B6803F00103012B20D13B691B683A
:1004600003F00203022B0AD10021786800F01EF885
:100470000346FB75FB7D002B01D0FB7D10E03B6943
:100480005B681B889AB23B695B6822F0010292B2FA
:100490001A803B691B6823F001023B691A60FB7DEF
:1004A00018461837BD4680BDC55A7C0A80B485B051
:1004B00000AF78600B46FB707B68FB60FB78002B1D
:1004C00010D0FB685B681B889AB2FB685B6842F0DF
:1004D000100292B21A80FB681B6843F00202FB68AC
:1004E0001A600FE0FB685B681B889AB2FB685B6868
:1004F00022F0100292B21A80FB681B6823F00602F9
:10050000FB681A60002318461437BD465DF8047B6B
:100510007047000080B485B000AF78600B46FB7078
:100520000023FB737B68BB60BB685B681B889AB267
:10053000BB685B6822F00E0292B21A80FB78032B34
:100540002BD801A252F823F0590500006F050000D6
:10055000A105000085050000BB685B681B889AB296
:10056000BB685B6842F0060292B21A8019E0BB6871
:100570005B681B889AB2BB685B6842F0040292B267
:100580001A800EE0BB685B681B889AB2BB685B6828
:1005900042F0080292B21A8003E00623FB7300E0E7
:1005A00000BFFB7B18461437BD465DF8047B7047DF
:1005B00080B485B000AF78607B68FB60FB681B6827
:1005C00023F48072FB681A60FB685B684FF480421A
:1005D0009A84FB681B6843F08002FB681A60FB6822
:1005E0005B681B889AB2FB685B6842F0200292B29B
:1005F0001A80002318461437BD465DF8047B704707
:1006000080B485B000AF786039607B68FB60FB68C0
:100610001B6803F48073B3F5807F03D13B6801222C
:100620001A7002E03B6800221A7000231846143743
:10063000BD465DF8047B704780B485B000AF78603C
:1006400039607B68FB60FB685B681B8A7B817B8908
:1006500023F0FF037B813B689BB2013B9AB27B890D
:1006600013437B81FB685B687A891A8200231846F2
:100670001437BD465DF8047B704780B485B000AF89
:10068000786039607B68FB60FB685B681B8A7B81F4
:100690007B89DBB27B813B689BB21B029AB27B8970
:1006A00013437B81FB685B687A891A8200231846B2
:1006B0001437BD465DF8047B704780B485B000AF49
:1006C00078600B46FB707B68FB60FB78002B04D0E6
:1006D000002B34DB042B32DC1AE0FB685B689B8A5E
:1006E0009AB2FB685B6822F4804292B29A82FB68FD
:1006F0001B6803F40063002B03D1FB685B680022D6
:100700009A82FB681B6823F48062FB681A6018E019
:10071000FB785B00013B012202FA03F37B81FB685B
:100720005A687B896FEA83436FEA93439BB2938253
:10073000FB681B6843F48062FB681A6001E00623D3
:1007400000E0002318461437BD465DF8047B70476F
:1007500080B586B000AF786039607B687B6100232C
:100760003B613B681B68184600F012FA38617B69F0
:100770001833FB60FB6801221A80FB6801225A8053
:100780003B689B68012B06D1FB681B8843F0020382
:100790009AB2FB681A80FB683A685A603B685A68EC
:1007A000FB689A603B689B683A6902FB03F2FB684E
:1007B000DA603B681A68FB681A617B695B69002133
:1007C00078699847002318461837BD4680BD80B524
:1007D00086B000AF786039607B683B610023FB75B1
:1007E0003B69DB69002B01D1032323E03B693033F4
:1007F00000221946002002F019F80346FB73FB7B28
:10080000002B01D00A2315E03B695B8B03F0020348
:10081000002B01D00D23FB753B69DA693B681A6038
:100820003B690022DA613B691B6823F008023B69DF
:100830001A60FB7D18461837BD4680BD80B584B070
:1008400000AF78600B46FB707B68FB60FB78002B89
:100850000CD0FB681B6843F00802FB681A602E206E
:10086000FFF708FDF86800F02BF80DE02E20FFF7E9
:100870001FFDFB685B690621F8689847FB681B68E9
:1008800023F00802FB681A60002318461037BD46A3
:1008900080BD000080B485B000AF7860074BFB607E
:1008A0007B689B00FA681344FB60FB681B889BB263
:1008B00018461437BD465DF8047B70473070004021
:1008C00080B584B000AF78607B685B689B899BB221
:1008D00003F40053FB607B681833BB607B681B68C4
:1008E00003F04003002B09D17B685B684FF6FF7271
:1008F0009A847B685B684FF6FF721A85BB681B6938
:10090000FA681343FB60BB681B8803F00103002BEC
:1009100003D0FB6843F48053FB60BB681B8803F083
:100920000203002B04D0FB6843F48043FB6003E028
:10093000FB6843F40043FB607B681B6843F04002A4
:100940007B681A607B685B689B8999B2FB689AB286
:100950007B685B680A4392B29A817B685B6901217C
:1009600078689847012318461037BD4680BD0000BF
:1009700090B589B000AF78600B46FB707B68183388
:10098000BB617B681B6A002B13D1FB78022B0ED155
:100990007B685B689B8C9BB2DBB2FB81FB89194651
:1009A000786800F0C1F87B685B68FA899A84002354
:1009B000AFE0FB78062B00F2A88001A252F823F0EA
:1009C000DD0900000B0B00009F0A0000BB0A0000BD
:1009D0000B0B00000B0B0000CB0A00007B68002211
:1009E0001A6195E07B685B689B8C9BB2DBB23B61D4
:1009F0003B69DBB2002B57D07B681B69012202FAEE
:100A000003F3FB6111E07B681B695A1C7B681A6168
:100A10007B681B69072B02D97B6800221A617B68FF
:100A20001B69012202FA03F3FB61FA693B69134077
:100A3000002BE8D0BB691A697B681B6922FA03F3B3
:100A400003F00103002B06D1344B354A40F60A016E
:100A5000344807F0F3FF7B681A69BB699C6810464D
:100A6000FFF718FF03462380BB699B689A1CBB698C
:100A70009A607B685B68FA6992B29A84BB69DB68AA
:100A80005A1EBB69DA607B681B695A1C7B681A6155
:100A90007B681B69072B02D97B6800221A61BB693E
:100AA000DB68002B9ED100E000BFBB69DB68002B38
:100AB0002DD1786800F055F829E0BB695B8843F0D8
:100AC00002039AB2BB695A8022E07B685B681B8C88
:100AD000FB827B685B6800221A847B685B6800226B
:100AE0009A817B685B684FF6FF729A847B681B680B
:100AF00023F040027B681A60FF21786800F014F848
:100B00007B685B68FA8A1A8402E000BF00E000BFDD
:100B1000002318462437BD4690BD00BF7C3201003B
:100B200078330100CC32010080B584B000AF78602A
:100B300039600023FB600DE03A68FB6822FA03F39A
:100B400003F00103002B02D0F868FFF7A3FEFB6857
:100B50000133FB60FB68072BEED900BF1037BD46A1
:100B600080BD80B582B000AF78607B685B68002292
:100B70009A817B681B6823F040027B681A607B685F
:100B80003033184601F0FEFE00BF0837BD4680BD79
:100B900080B485B000AF78607B68DBB2FB60FB6837
:100BA00003F05502FB685B0803F055031344FB6038
:100BB000FB6803F03302FB689B0803F03303134424
:100BC000FB60FB681A09FB68134403F00F03FB602A
:100BD000FB6818461437BD465DF8047B704780B447
:100BE00085B000AF78600023FB817B685B680022E2
:100BF0009A82FB8943F00403FB817B685B68FA8976
:100C00001A8000BF1437BD465DF8047B70470000B2
:100C100080B584B000AF7D4B1B68BB60BB685B6870
:100C20009B8C9BB2DBB2002B14D0BB681B6803F01B
:100C30002003002B05D1BB685B690221B868984787
:100C400008E0BB685B689B8C9AB2BB685B68D2B2F9
:100C500092B29A84BB685B689B8C9BB203F47F431F
:100C6000002B73D0BB685B689B8C9BB21BB2002BC4
:100C700015DABB681B6843F00402BB681A60BB68E6
:100C80005B684FF400429A84BB68DB68002B06D097
:100C9000BB68DB68BA689068002201219847BB688E
:100CA0005B689B8C9BB203F48043002B15D0BB6820
:100CB0001B6843F48072BB681A60BB685B684FF4C2
:100CC00080429A84BB68DB68002B06D0BB68DB6877
:100CD000BA689068002200219847BB685B689B8CCB
:100CE0009BB203F48073002B0AD0BB681B6843F4EB
:100CF0000072BB681A60BB685B684FF480729A84AC
:100D0000BB685B689B8C9BB203F40073002B0AD01A
:100D1000BB681B6843F40052BB681A60BB685B6821
:100D20004FF400729A84BB685B689B8C9BB203F49F
:100D30008063002B0AD0BB681B6843F48042BB6809
:100D40001A60BB685B684FF480629A84BB685B681A
:100D50001B8D9BB2002B12D0BB685B681B8DFB8088
:100D6000BB681B6803F02003002B04D1BB685B69E0
:100D70000321B8689847BB685B68FA881A85BB6826
:100D80005B689B8D9BB2002B3BD0BB685B689B8DE7
:100D90009BB23B60BB681B6803F02003202B2BD168
:100DA000BB68DB68002B27D00023FB6021E0FB68D9
:100DB0005B0001229A403B681340002B06D0BB68C1
:100DC000DB68BA689068FA6803219847FB685B00A3
:100DD000013301229A403B681340002B06D0BB68C8
:100DE000DB68BA689068FA6804219847FB680133A9
:100DF000FB60FB68032BDAD9BB685B683A6892B288
:100E00009A8500BF1037BD4680BD00BF000004209A
:100E100090B587B000AF524B3B613B691B68FB60EC
:100E20004FF47C43FB823B695B681B78DBB2002B91
:100E300000F08280FB681B889BB223F47F7323F051
:100E400003039CB22346FB82FB689B889BB2234032
:100E50009CB2234603F40843002B28D03B695B680F
:100E60001B783B695B681433184601F08BFD3B69C6
:100E70005B681B78DAB23B695B6822F00C02D2B285
:100E80001A70FB681B889BB223F480739AB2FB68CC
:100E90001A803B695B685B68002B08D03B695B6824
:100EA0005B683A695268906821460022984704F4CA
:100EB00080539BB2002B3FD03B695B68BB60BB6833
:100EC0001B7CDAB2BB685B7C9A4235D2BB68D968BE
:100ED000BB681B7CDBB23A1D5B000B441B88138094
:100EE000BB681B7CDBB20133DAB2BB681A74BB6827
:100EF000D968BB681B7CDBB23A465B000B441B889D
:100F00001380BB681B7CDBB20133DAB2BB681A7496
:100F10003B799BB21B029AB27B799BB213439AB284
:100F2000FB681A813B789BB21B029AB27B789BB21A
:100F300013439AB2FB689A81FB689B889BB21AB2F2
:100F4000B7F9163023F47F7323F003031BB2134366
:100F50001BB29AB2FB689A8000BF1C37BD4690BD99
:100F60001C0C042080B483B000AF0346FB7197F9DA
:100F70000730002B0BDBFB7903F01F02074997F9C1
:100F800007305B09012000FA02F241F8232000BF7C
:100F90000C37BD465DF8047B704700BF00E100E000
:100FA00080B584B000AF0023FB60EFF310837B605B
:100FB0007B68FB6072B61B4B1B7883F00103DBB2CE
:100FC000002B26D0174B01221A70174B5B68164A6C
:100FD00043F001035360154A134B9A601320FFF747
:100FE000C1FF6FF07843BB600F4ABB6813620E4AC3
:100FF000BB68D3620C4ABB6853630B4ABB68D363BC
:10100000094ABB689364084ABB68D364064ABB6854
:101010001365FB683B603B6883F3108800BF1037A3
:10102000BD4680BD001404200000014000100420D3
:1010300080B489B000AF0346B9607A60FB730023C7
:10104000FB77164AFB7BDB0013440433BB61BB69AF
:10105000BA681A60BB697A685A60FB7B012202FA9F
:1010600003F37B61BB68002B08D00C4BD3F8DC206A
:101070000A497B691343C1F8DC3008E0074BD3F819
:10108000DC207B69DB4305491340C1F8DC30FB7F82
:1010900018462437BD465DF8047B704700140420D1
:1010A00080B58AB000AF2C4BDB6CFB612A4B9B6C8C
:1010B000BB61294B1B6D7B61284BD3F8DC20B969E0
:1010C0007B690B4313407B627B6A002B37D0202364
:1010D0003B617B6AB3FA83F33B622CE03A693B6A7B
:1010E000D31A013BFB600122FB6802FA03F3BB60E9
:1010F0001A4AFB68DB00134404337B607B681B687F
:10110000002B0FD0BA69BB681340002B01D001231C
:1011100000E002233B607B681B687A68506800220D
:1011200039689847BB68DB437A6A13407B627B6A05
:10113000B3FA83F33B623A6A3B699A42CED3064ADA
:10114000BB699364044A7B691365034AFB69D364F2
:1011500000BF2837BD4680BD0000014000140420B8
:1011600080B483B000AF7860396000BF7B681B68D3
:101170001A683B681340002BF8D100BF0C37BD46FE
:101180005DF8047B7047000080B582B000AF00239B
:10119000FB710023BB71544BDB683B603B681B68F1
:1011A0001A683B685A613B681B683A6852691A6062
:1011B0003B685A694D4B13403A6893613B689B69A1
:1011C000002B01D00123BB71BB7983F00103DBB29B
:1011D000002B45D03B685B6903F00803002B36D039
:1011E0003B689B6A002B2BD03B681A6A3B681B68E4
:1011F000DA603B681B6A03F108023B681A623B68CD
:101200005A6A3B681B6812681A613B685B6A1A1D60
:101210003B685A623B685A6A3B681B6812685A61AD
:101220003B685B6A1A1D3B685A623B689B6AA3F184
:1012300008023B689A623B681B6804229A6011E0CE
:1012400001213868FFF78CFF0123FB710AE03B683E
:101250005B6903F00403002B04D00123FB7101E060
:101260000123FB71FB79002B39D03B681B685A685E
:101270003B681B6822F007025A603B681B681C4AE7
:101280001A623B681B681A6B3B681B6822F00302FA
:101290001A633B681B6800221A623B6800225A7777
:1012A0003B689B68002B15D0BB7983F00103DBB250
:1012B000002B07D03B689B683A68D0680022002169
:1012C000984707E03B689B683A68D0683A6892693B
:1012D000012198473B682C33184601F053FB00BFAF
:1012E0000837BD4680BD00BF08000420F0AF01B83C
:1012F00065756C6780B582B000AF314BDB687B6091
:101300007B681B681A687B685A617B681B687A680F
:1013100052691A607B685A692A4B13407A68936154
:101320007B681B68284A1A627B681B681A6B7B689B
:101330001B6822F003021A637B681B6800221A6292
:101340007B6800229A627B6800225A777B689B68E0
:10135000002B2CD07B689B69002B0CD17B681B7FFA
:10136000DBB2002B07D17B689B687A68D0680022CB
:10137000002198471BE07B689B69002B08D17B68A4
:101380009B687A68D0687A689269012198470EE074
:101390007B681B7FDBB2002B09D17B689B687A6876
:1013A000D0687A68127FD2B21146002298477B68D3
:1013B0002C33184601F0E6FA00BF0837BD4680BD61
:1013C00008000420F0AF01B865756C6780B483B085
:1013D00000AF0346FB7197F90730002B0BDBFB795D
:1013E00003F01F02074997F907305B09012000FA53
:1013F00002F241F8232000BF0C37BD465DF8047BA4
:10140000704700BF00E100E080B584B000AF7860B5
:101410003960144B1B69002B1ED1124A7B68136183
:101420000023FB600FE00F4B1B69FA68002143F8B3
:1014300032100C4B1A69FB68DB00134400225A601F
:10144000FB680133FB60FB68012BECD90920FFF737
:10145000BDFF0A20FFF7BAFF002318461037BD462C
:1014600080BD00BF1800042080B487B000AF0346E1
:10147000FB710B46BB801346BB7100237B61FB797C
:10148000154A52F823303B61EFF31083FB60FB6891
:101490007B6172B6BB79002B08D03B699B889AB2FE
:1014A000BB8813439AB23B699A8009E03B699B88E9
:1014B0009AB2BB88DB439BB213409AB23B699A80D5
:1014C0007B69BB60BB6883F31088002318461C3718
:1014D000BD465DF8047B70471800042080B487B0D7
:1014E00000AF0346FB710B46BB801346BB71002364
:1014F0007B61FB79154A52F823303B61EFF310838F
:10150000FB60FB687B6172B6BB79002B08D03B693E
:101510009B899AB2BB8813439AB23B699A8109E0CE
:101520003B699B899AB2BB88DB439BB213409AB25A
:101530003B699A817B69BB60BB6883F31088002399
:1015400018461C37BD465DF8047B70471800042020
:1015500080B485B000AF03460A46FB711346BB80DA
:10156000FB79074A52F82330FB60FB68BA881A837C
:10157000002318461437BD465DF8047B704700BF52
:101580001800042080B485B000AF03460A46FB7102
:101590001346BB80FB79074A52F82330FB60FB6897
:1015A000BA889A83002318461437BD465DF8047B39
:1015B000704700BF1800042080B485B000AF034618
:1015C0000A46FB711346BB80FB79074A52F8233069
:1015D000FB60FB68BA881A84002318461437BD469E
:1015E0005DF8047B704700BF1800042080B485B00C
:1015F00000AF03463A60FB710B46BB80FB79094A9A
:1016000052F82330FB60FB681B8A9AB2BB881340F8
:101610009AB23B681A80002318461437BD465DF81D
:10162000047B70471800042080B586B000AF0346E5
:101630000A46FB711346BB711D4B1A69FB79DB002F
:1016400013443B610023FB752BE0FB7D184A52F8E5
:101650002330FB6097F90630092B03D1FB681B8D03
:10166000BB8202E0FB689B8DBB82FB681B8E9AB23B
:10167000BB8A13409BB27B817A89FB681A863B69DF
:101680001B68002B0AD07B89002B07D03B691B68A5
:101690003A695068F97D07F10A029847FB7D0133EA
:1016A000FB75FB7D032BD0D900BF1837BD4680BD2D
:1016B0001800042080B500AF09210020FFF7B4FF17
:1016C00000BF80BD80B500AF0A210120FFF7ACFF4D
:1016D00000BF80BD80B483B000AF0346FB7197F9B3
:1016E0000730002B0BDBFB7903F01F02074997F94A
:1016F00007305B09012000FA02F241F8232000BF05
:101700000C37BD465DF8047B704700BF00E100E088
:1017100080B483B000AF0346FB7197F90730002B0C
:1017200010DBFB7903F01F02094997F907305B09C9
:10173000012000FA02F2203341F82320BFF34F8F3B
:10174000BFF36F8F00BF0C37BD465DF8047B704759
:1017500000E100E080B586B000AFF860B9607A6063
:101760003B60BB687B613B6800221A60194AFB68DA
:101770001B0113440C33BA681A607A680021B868F8
:1017800007F0C2F9FB681B01124A1A447B695A60D0
:10179000104AFB681B01134404331A687B691A6002
:1017A0007B695968FA6813465B0013449B000A4A38
:1017B00013448B607B6900221A63786900F044FA55
:1017C0000346FB743B687A691A6000231846183791
:1017D000BD4680BD2C0004203C00042080B586B0AE
:1017E00000AFF860B9607A60FB6800221A74B968CB
:1017F000F86800F0C9F8FB6893F82C30002B19D179
:10180000FB68303300221946002001F00FF8034630
:10181000FB75FB7D002B01D00D2332E000BF1B4B7D
:101820001B881A46FB681B689B889BB203F488637D
:101830009A42F4D1FB6893F82D301A467B681A60FF
:10184000FB6893F82D30002B04D0FB68082283F846
:101850002C2013E0BB689B89002B0FD0BB689B7BBF
:10186000002B0BD0FB681B681B8B9BB203F00103A2
:10187000002B03D1FB68072283F82C20FB6893F828
:101880002C3018461837BD4680BD00BFE014042038
:1018900080B582B000AF78607B6800221A637868F8
:1018A00000F0D2F9034618460837BD4680BD000057
:1018B00080B586B000AF7860396007F1080319463B
:1018C000002000F0F3FC0346002B01D0042335E098
:1018D0003B681C4A934201D901232FE0BA683B6858
:1018E000B2FBF3F35B087B617B697B827B8A7A695D
:1018F0009A4201D0012321E07B8A073B3B827B8A0D
:10190000013BFB813B8A1B023B820F4B1B881A4623
:101910003B8ADBB29A4207D10B4B1B881A46FB89E4
:1019200003F47F439A4201D0012307E07B681B68E0
:10193000398AFA890A4392B29A84002318461837E2
:10194000BD4680BD801A0600E014042080B483B038
:1019500000AF78600B467B800A4B1B8819467A885B
:101960004FF680731340994201D00B2303E07B684C
:101970007A889A81002318460C37BD465DF8047BAF
:10198000704700BFE014042080B582B000AF7860DB
:1019900039607B68002283F82C207B68002283F862
:1019A0002D207B6800225A8500BF2C4B1B881A46CD
:1019B0007B681B689B889BB203F488639A42F4D1CE
:1019C0003B681A687B685A613B689A887B681A830F
:1019D0003B68DA7B7B689A727B689B895B009BB271
:1019E000DBB29AB27B68DA813B689B7B002B18D014
:1019F0003B689A687B685A623B689A897B681A855B
:101A00007B680022DA617B6800221A847B68DB89AC
:101A100043F001039AB27B68DA81786800F092F8AB
:101A200017E07B6800225A627B6800221A853B68B7
:101A30009A687B68DA613B689A897B681A847B685C
:101A4000DB8923F001039AB27B68DA81786800F0C1
:101A500007F800BF0837BD4680BD00BFE014042072
:101A600080B584B000AF78607B685B6893F9003024
:101A70001846FFF72FFE7B681B681B889AB27B68AD
:101A80001B6842F0210292B21A807B681B68B3F88F
:101A90004C309BB21B119BB203F003039BB2C3F10A
:101AA0000203FB8116E07B685B691B78DAB27B6816
:101AB0001B6892B29A817B685B695A1C7B685A6189
:101AC0007B681B8B9BB2013B9AB27B681A83FB89B4
:101AD000013BFB817B681B8B9BB2002B21D0FB89D8
:101AE000002BE0D11DE07B68DB691B78DAB27B68F4
:101AF0001B6892B29A817B68DB695A1C7B68DA6149
:101B00007B681B8C9BB2013B9AB27B681A847B6812
:101B10005B8D9BB201339AB27B685A85FB89013B8E
:101B2000FB817B681B8C9BB2002B02D0FB89002BB6
:101B3000D9D17B681B687A68D2891A8300BF1037B5
:101B4000BD4680BD80B584B000AF78607B685B68BF
:101B500093F900301846FFF7BDFD7B681B681B88B2
:101B60009AB27B681B6842F0110292B21A807B68BD
:101B70001B8D9BB2B3F5807F0DD97B681B684FF43A
:101B800080721A827B681B8D9BB2A3F580739AB218
:101B90007B681A850AE07B681B8D9AB27B681B689C
:101BA000013A92B21A827B6800221A857B681B8BED
:101BB0009BB2002B3FD07B681B681B889AB27B6866
:101BC0001B6842F0200292B21A807B681B68B3F84F
:101BD0004C309BB21B119BB203F003039BB2C3F1C9
:101BE0000203FB8116E07B685B691B78DAB27B68D5
:101BF0001B6892B29A817B685B695A1C7B685A6148
:101C00007B681B8B9BB2013B9AB27B681A83FB8972
:101C1000013BFB817B681B8B9BB2002B02D0FB89B5
:101C2000002BE0D17B68DA897B681B6822F0010217
:101C300092B21A8304E07B681B687A68D2891A839F
:101C400000BF1037BD4680BD80B584B000AF78605E
:101C50007B685B6893F900301846FFF759FD7B6895
:101C60001B689B889BB2FB817B681B68FA8992B2D8
:101C70009A8004E07B681B689B899BB2BB81234BE5
:101C80001B881A467B681B68B3F84C309BB203F084
:101C9000C0039A42EED17B681B6800221A807B68E1
:101CA0001B680122A3F850207B685B689A687B68F8
:101CB0001B6812881A807B685B689A687B681B685F
:101CC00052889A847B685B689A687B681B689288F4
:101CD000A3F850207B685B689A687B681B68D28891
:101CE000A3F854207B685B689A687B681B6812893C
:101CF000A3F858207B685B689B685A897B689A8147
:101D0000002318461037BD4680BD00BFE0140420F4
:101D100080B485B000AF78607B681B68B3F84C3046
:101D20009BB21B119BB203F003039BB2C3F10203EE
:101D3000FB8116E07B685B691B78DAB27B681B6805
:101D400092B29A817B685B695A1C7B685A617B6896
:101D50001B8B9BB2013B9AB27B681A83FB89013BC8
:101D6000FB817B681B8B9BB2002B02D0FB89002B75
:101D7000E0D17B681B8B9BB2002B30D17B681B8D25
:101D80009BB2002B23D07B681B687A68D2891A83A8
:101D900025E07B68DB691B78DAB27B681B6892B24E
:101DA0009A817B68DB695A1C7B68DA617B681B8CD3
:101DB0009BB2013B9AB27B681A847B685B8D9BB2B5
:101DC00001339AB27B685A85FB89013BFB817B68B2
:101DD0001B8C9BB2002B02D0FB89002BD9D17B68D6
:101DE0001B8B9BB2002B16D17B681B8C9BB2002BEC
:101DF00011D12023BB817B681B681B889BB21AB260
:101E0000B7F90C30DB431BB213401BB27B817B68FC
:101E10001B687A891A807B681B8C9BB2002B03D1CC
:101E20007B681B6804229A8000BF1437BD465DF8AA
:101E3000047B704780B485B000AF78607B681B6816
:101E4000B3F84C309BB29B119BB203F00303FB81B0
:101E500040E0FB89013BFB817B685B8D9BB20133DA
:101E60009AB27B685A857B681B681B899AB27B682B
:101E70005B6AD2B21A707B685B6A5A1C7B685A62D2
:101E80007B681B689B8A9BB2002B23D17B681B8DD0
:101E90009BB2B3F5807F0DD97B681B684FF48072CD
:101EA0001A827B681B8D9BB2A3F580739AB27B6804
:101EB0001A850FE07B681B8D9BB2002B0AD07B68D4
:101EC0001B8D9AB27B681B68013A92B21A827B68BA
:101ED00000221A85FB89002BBBD100BF1437BD46F9
:101EE0005DF8047B7047000080B582B000AF786079
:101EF00000BF0D4B1B881A467B681B689B889BB2F2
:101F000003F488639A42F4D17B685B6893F90030EC
:101F10001846FFF7FDFB7B681B68044A12881A808D
:101F200000BF0837BD4680BDE01404203C000420FB
:101F300080B483B000AF7860404B1B881A467B6842
:101F40001B8903F010039A4208D07B6893F82D3068
:101F500043F00103DAB27B6883F82D20374B1B88EE
:101F60001A467B681B8903F080039A4208D07B687D
:101F700093F82D3043F00203DAB27B6883F82D200A
:101F80002E4B1B881A467B681B8903F020039A425C
:101F900008D07B6893F82D3043F00403DAB27B68F5
:101FA00083F82D20254B1B881A467B681B8903F478
:101FB00000739A4208D07B6893F82D3043F01003E9
:101FC000DAB27B6883F82D201C4B1B881A467B688D
:101FD0001B8903F480539A4208D07B6893F82D3014
:101FE00043F02003DAB27B6883F82D207B6893F8F6
:101FF0002D305AB27B6893F82E305BB2DB435BB274
:1020000013405BB2DAB27B6883F82D207B6893F8CB
:102010002D30002B0BD17B6893F82E309AB2074BF2
:102020001B889A4203D17B68082283F82D2000BFC9
:102030000C37BD465DF8047B704700BFE0140420F8
:1020400080B582B000AF284BDB687B607B681B6883
:102050009B889AB27B681A817B689B7A002B07D099
:102060007B681B687A68D2891A837B6800229A721F
:102070001E4B1B881A467B681B8903F004039A4297
:1020800002D07868FFF744FE184B1B881A467B681D
:102090001B8903F008039A4202D07868FFF7CAFE52
:1020A000124B1B881A467B681B89194641F2B023E4
:1020B0000B409A4202D07868FFF73AFF0B4B1B881F
:1020C0001A467B681B8903F480739A4207D07868AC
:1020D000FFF70AFF7B683033184600F053FC00BF5F
:1020E0000837BD4680BD00BF2C000420E01404204A
:1020F00080B483B000AF0346FB7197F90730002B23
:102100000BDBFB7903F01F02074997F907305B09E6
:10211000012000FA02F241F8232000BF0C37BD462F
:102120005DF8047B704700BF00E100E080B500AFC0
:102130002A4B4CF61432DA60284B294A1A61294B93
:1021400000221A60254B4CF61432DA60234B1B69CF
:10215000224A43F00203136100BF204B1B6903F4C2
:102160000073002BF9D0204B1B681F4A23F0030398
:1021700013601D4B00221A601B4B1C4A5A601A4BFD
:1021800000229A60184B46F61A02DA60164B5F225C
:102190005A61174B00221A60154B00229A60144BAB
:1021A00000225A640D4B4CF61432DA600B4B1B695B
:1021B0000A4A23F0080313610620FFF799FF07205E
:1021C000FFF796FF2920FFF793FF2B20FFF790FFE3
:1021D00003F0B8FD0023184680BD00BF00C10440D5
:1021E00002C00100E414042000C3044004041000F1
:1021F00000C0044080B500AF03F0A4FD00231846E2
:1022000080BD000080B487B000AF0346FB7100239F
:102210007B61EFF31083BB60BB687B6172B60E4BD2
:102220004CF61432DA600C4B1B6923F001033B615E
:10223000FB79033B3A6913433B61074A3B691361EE
:102240007B69FB60FB6883F31088002318461C370A
:10225000BD465DF8047B704700C1044080B487B080
:1022600000AF0346FB7100237B61EFF31083BB607B
:10227000BB687B6172B60C4B1B6823F003033B61A8
:10228000FB79093B3A6913433B61074A3B69136099
:102290007B69FB60FB6883F31088002318461C37BA
:1022A000BD465DF8047B704700C3044080B584B030
:1022B00000AF03463960FB7103F044FD134B1B680C
:1022C000BB60FB79002B07D0012B0CD1104B5B6856
:1022D00003F03F03FB6008E00D4B5B681B0A03F053
:1022E0003F03FB6001E004230BE0FB68002B01D1FE
:1022F0000123FB60BA68FB68B2FBF3F23B681A602B
:10230000002318461037BD4680BD00BF00150420CD
:1023100000C3044080B588B000AF03460A46FB7195
:102320001346BB8000237B61FB79012B04D0022B79
:102330000ED0002B05D011E03F23FB61BB88BB61B1
:102340000EE04FF47C53FB61BB881B02BB6107E0CE
:10235000144BFB61BB881B04BB6101E004231CE040
:10236000EFF31083BB60BB687B6172B60E4B5B689A
:102370003B61FB69DB433A6913403B613A69BB69E6
:1023800013433B61084A3B6953607B69FB60FB6810
:1023900083F3108803F0D6FC002318462037BD468F
:1023A00080BD00BF0000FF0100C3044080B48BB0BB
:1023B00000AF03460A46FB711346BB7100237B62E4
:1023C00000233B620023FB610023BB61FB79042BEC
:1023D0002DD801A252F823F0ED230000FD230000C8
:1023E0000D2400002F2400001D24000008237B6220
:1023F0002F4B3B624FF40063FB611AE004237B62C6
:102400002B4B3B624FF48063FB6112E002237B6243
:10241000274B3B624FF40073FB610AE04FF40073FB
:102420007B62244B3B624FF40073FB6101E00923A4
:1024300038E0EFF310833B613B69BB6172B61E4B22
:102440004CF61432DA60BB79002B11D03B6A1A6863
:102450007B6A1A433B6A1A60FB79042B0FD1174B36
:102460001B6803F001037B617B69012BF7D106E058
:102470003B6A1A687B6ADB431A403B6A1A60BB6995
:10248000FB60FB6883F31088FB69002B09D0BB79E4
:10249000002B06D000BF084B1A69FB691340002BC4
:1024A000F9D0002318462C37BD465DF8047B7047F1
:1024B00010C104400CC3044000C1044018C30440D0
:1024C00080B485B000AF03463960FB71334B1B69A4
:1024D000FB603B6800221A70FB79032B4DD801A2E8
:1024E00052F823F0192500003D250000F5240000D6
:1024F00061250000FB6803F00203002B41D0FB685C
:1025000003F40073002B03D03B6802221A7038E0FA
:102510003B6801221A7034E0FB6803F00803002BCB
:1025200031D0FB6803F40063002B03D03B68022228
:102530001A7028E03B6801221A7024E0FB6803F05F
:102540000403002B21D0FB6803F48063002B03D02D
:102550003B6802221A7018E03B6801221A7014E0EE
:10256000FB6803F48073002B03D03B6802221A70CF
:102570000CE03B6801221A7008E03B6803221A70E5
:1025800004E000BF02E000BF00E000BF00231846E7
:102590001437BD465DF8047B704700BF00C104409E
:1025A00080B483B000AF0346FB71FB79012B06D1E9
:1025B000094B5B6C084A43F00203536405E0064B89
:1025C0005B6C054A23F002035364002318460C3762
:1025D000BD465DF8047B704700C0044080B582B002
:1025E00000AF144B9B6903F006037B60124B1B6822
:1025F000002B18D07B6803F00403002B07D00E4B90
:102600001B680E4A106800220F2198470BE07B6878
:1026100003F00203002B06D0074B1B68074A106823
:1026200000220E219847034A7B68936100BF083758
:10263000BD4680BD00C30440E4140420E814042017
:1026400080B584B000AF474B9B6903F4CC43BB60BB
:10265000454B1A69454B13407B600023FB60444B9C
:102660001B68002B66D0BB68002B31D0BB6803F41D
:102670008043002B04D0FB6843F00B03FB601CE09D
:10268000BB6803F40053002B04D0FB6843F00A033B
:10269000FB6012E0BB6803F40073002B04D0FB68FE
:1026A00043F00C03FB6008E0BB6803F48063002B7D
:1026B00003D0FB6843F00D03FB60FB68002B39D0AF
:1026C0002B4B1B682B4A10680022F968984731E0B1
:1026D0007B68002B2ED07B68002B13DA244B1B6801
:1026E000244A10680022072198477B6803F40053AE
:1026F000002B1FD01E4B1B681E4A106800220621AB
:10270000984717E07B6803F08043002B12D0184BEA
:102710001B68184A10680022082198477B6803F458
:102720008003002B06D0124B1B68124A106800224F
:1027300009219847BB68002B03D00A4ABB68936104
:102740000CE07B68002B09D0074B4CF61432DA60A2
:10275000054B1A6904497B6813430B6100BF1037AE
:10276000BD4680BD00C3044000C10440002040C0FD
:10277000E4140420E814042080B582B000AF0E4BAE
:102780005B687B607B6803F00103002B10D00B4B70
:102790001B68002B06D0094B1B68094A10680022F1
:1027A00079689847044B5B68034A43F00103536020
:1027B00000BF0837BD4680BD00C00440E4140420BB
:1027C000E814042080B582B000AF154B5B687B60D5
:1027D000144B1B68002B17D07B6803F00403002BFD
:1027E00006D0104B1B68104A106800220021984741
:1027F0007B6803F00203002B06D00A4B1B680A4AD1
:102800001068002201219847054B5A687B6803F045
:102810000603034913434B6000BF0837BD4680BD24
:1028200000C00440E4140420E814042080B491B0F3
:1028300000AF03463960FB711346BB710023FB6395
:102840000023BB6300237B633B68002B05D1FB6B3C
:1028500043F00203FB63464B3B60FB79032B1CD820
:1028600001A252F823F000BF7D2800007928000063
:102870008728000091280000002372E0BB6B43F022
:102880000603BB630BE0FB6B43F00403FB6306E052
:10289000FB6B43F00603FB6301E0062361E0EFF30B
:1028A0001083FB61FB697B6372B6324B44F65902BD
:1028B000DA60304B9B6823F00302FB792D49134308
:1028C0008B602D4B1A69FB6B1A43BB6BDB432A49A8
:1028D00013400B61EFF311833B623B6A3B63274B71
:1028E0001B89FB85264B1B68BB62BB795B017B6246
:1028F0007B6A83F311880DE0BFF34F8F30BF7B6B92
:102900007B617B6983F31088EFF31083BB61BB6944
:102910007B6372B63B681B68002BEDD03B681B687D
:102920005A1E3B681A603B6B3B613B6983F311881D
:10293000124AFB8D1381BB6A03F00103002B02D006
:102940000F4B01225A600C4B1B690B4A23F0020308
:102950001361BFF34F8F7B6BFB60FB6883F31088C1
:10296000002318464437BD465DF8047B704700BF1E
:10297000EC14042000C0044000ED00E0002C0040F6
:102980000000014080B487B000AF786000237B6115
:102990007B68002B1AD1134B7B60EFF31083FB6035
:1029A000FB687B6172B6104B9B680F4A23F00303F0
:1029B00093600E4B1B690D4A23F006031361BFF3AE
:1029C0004F8F7B693B613B6983F310887B681B6891
:1029D0005A1C7B681A60002318461C37BD465DF8F8
:1029E000047B7047EC14042000C0044000ED00E0BC
:1029F00080B483B000AF0346FB7197F90730002B1A
:102A00000BDBFB7903F01F02074997F907305B09DD
:102A1000012000FA02F241F8232000BF0C37BD4626
:102A20005DF8047B704700BF00E100E080B586B030
:102A300000AFF860B9607A603B60BB687B613B685F
:102A400000221A607A680021B86806F05DF86449CF
:102A5000FA6813465B0013449B000B441A687B69B9
:102A60001A6000BF7B691B681B899BB203F080035F
:102A7000002BF7D17B691B6800221A8000BF7B699D
:102A80001B689B8D9BB203F48053002BF7D17B69AD
:102A90001B6800221A8500BF7B691B689B889BB25C
:102AA00003F08003802BF7D100BF7B691B689B8DEF
:102AB0009BB203F48043B3F5804FF6D100BF7B692E
:102AC0001B681B899BB203F48073002BF7D17B69D1
:102AD0001B687E229A8000BF7B691B689B889BB223
:102AE00003F48073B3F5807FF6D17B691B683D4AA0
:102AF000934204D17B691B681F229A8503E07B699E
:102B00001B680F229A8500BF7B691B68B3F884306D
:102B10009BB203F00103002BF6D17B691B6841F6E1
:102B2000FD72A3F8482000BF7B691B68B3F88030B2
:102B30009BB203F00103012BF6D100BF7B691B6838
:102B40001B899BB203F4C063002BF7D17B691B6820
:102B500000229A817B691B6800221A8200BF7B6970
:102B60001B689B889BB203F4C063B3F5C06FF6D1BA
:102B70001B49FA6813465B0013449B000B4408335F
:102B80007A691A60FA6813465B0013449B00144A82
:102B90001A447B695A61FA6813465B0013441B01AF
:102BA000114A13441946786900F014FB3B687A69AE
:102BB0001A600B49FA6813465B0013449B000B44F0
:102BC000043393F900207B691A737B6993F90C3005
:102BD0001846FFF70DFF002318461837BD4680BD85
:102BE00048000420001400406000042080B487B036
:102BF00000AF78600B46FB707B687B6100BF7B6930
:102C00001B681B899BB203F08003002BF7D10023C4
:102C10003B61EFF31083FB60FB683B6172B6FB78AE
:102C2000002B0AD07B691B681B889AB27B691B68E2
:102C300042F0020292B21A8009E07B691B681B888D
:102C40009AB27B691B6822F0020292B21A803B6939
:102C5000BB60BB6883F3108800BF7B691B689B88DF
:102C60009BB203F08003802BF7D1002318461C375A
:102C7000BD465DF8047B704780B487B000AF7860D4
:102C80000B46FB707B687B6100BF7B691B681B89FF
:102C90009BB203F08003002BF7D100233B61EFF3DD
:102CA0001083FB60FB683B6172B6FB78002B0AD097
:102CB0007B691B681B889AB27B691B6842F0010222
:102CC00092B21A8009E07B691B681B889AB27B6903
:102CD0001B6822F0010292B21A803B69BB60BB689C
:102CE00083F3108800BF7B691B689B889BB203F04D
:102CF0008003802BF7D1002318461C37BD465DF8B2
:102D0000047B704780B489B000AFF860B9601346A7
:102D1000FB71FB68BB6100BFBB691B681B899BB271
:102D200003F08003002BF7D100BFBB691B689B8DAC
:102D30009BB203F48053002BF7D10023FB77834B26
:102D400000221A80824B00221A80824B00221A80B5
:102D5000814B00221A80814B00221A80804B002276
:102D60001A8020E0BB6803F00103002B15D0FB7F25
:102D70007C4A52F833307B61FB7F7A4ADB00134494
:102D80009B887B827B691A887B8A012101FA03F385
:102D90009BB213439AB27B691A80BB685B08BB6025
:102DA000FB7F0133FB77BB68002BDBD1FB79002B6A
:102DB0004AD0BB691B681B8899B2644B1A88BB69EF
:102DC0001B680A4392B21A80BB691B681B8D99B2BB
:102DD0005F4B1A88BB691B680A4392B21A85BB69AC
:102DE0001B68B3F8503099B25A4B1A88BB691B68FC
:102DF0000A4392B2A3F85020BB691B68B3F8543061
:102E000099B2554B1A88BB691B680A4392B2A3F862
:102E10005420BB691B68B3F84C3099B24F4B1A88E9
:102E2000BB691B680A4392B2A3F84C20BB691B68BC
:102E3000B3F8C43099B24A4B1A88BB691B680A437D
:102E400092B2A3F8C42067E0BB691B681B889BB2E1
:102E50001AB23E4B1B881BB2DB431BB213401AB2A3
:102E6000BB691B6892B21A80BB691B681B8D9BB241
:102E70001AB2374B1B881BB2DB431BB213401AB28A
:102E8000BB691B6892B21A85BB691B68B3F85030E6
:102E90009BB21AB22F4B1B881BB2DB431BB21340F1
:102EA0001AB2BB691B6892B2A3F85020BB691B68B9
:102EB000B3F854309BB21AB2274B1B881BB2DB43CA
:102EC0001BB213401AB2BB691B6892B2A3F854201C
:102ED000BB691B68B3F84C309BB21AB21F4B1B88FE
:102EE0001BB2DB431BB213401AB2BB691B6892B220
:102EF000A3F84C20BB691B68B3F8C4309BB21AB26C
:102F0000174B1B881BB2DB431BB213401AB2BB69C1
:102F10001B6892B2A3F8C42000BFBB691B689B88E2
:102F20009BB203F08003802BF7D100BFBB691B6805
:102F30009B8D9BB203F48043B3F5804FF6D1002301
:102F400018462437BD465DF8047B7047F014042012
:102F5000F2140420F4140420F6140420F8140420BD
:102F6000FA140420C000042080B584B000AF78605B
:102F7000396007F108031946786800F08FFD0346B1
:102F8000FB737B891B043A891A433B681A60FB7BFD
:102F900018461037BD4680BD80B487B000AF78605A
:102FA00039607B687B6100BF7B691B681B899BB2B2
:102FB00003F4C053002BF7D100233B61EFF31083E0
:102FC000BB60BB683B6172B67B691B683A6892B2B2
:102FD0009A823B681A0C7B691B6892B21A837B69E0
:102FE0001B680022A3F844203B69FB60FB6883F365
:102FF000108800BF7B691B689B889BB203F4C05399
:10300000B3F5C05FF6D100BF7B691B689B8D9BB297
:1030100003F40043B3F5004FF6D1002318461C37E4
:10302000BD465DF8047B704780B489B000AF78601E
:103030000B46FB707B68FB6100BFFB691B689B8DC7
:103040009BB203F48053002BF7D10023BB61EFF355
:103050001083FB60FB68BB6172B6FB691B681B8D4C
:103060009BB223F4F073FB82FB789BB25B019AB2B4
:10307000FB8A1343FB82FB691B68FA8A1A85BB69CA
:103080003B613B6983F3108800BFFB691B689B8D24
:103090009BB203F48043B3F5804FF6D1002318466A
:1030A0002437BD465DF8047B704780B487B000AF1D
:1030B000F860B9607A60FB687B6100BF7B691B6860
:1030C0001B899BB203F08003002BF7D17B69BA68A0
:1030D0005A607B697A689A60002318461C37BD469F
:1030E0005DF8047B704780B487B000AF78603960CA
:1030F0007B687B6100BF7B691B681B899BB203F403
:10310000C063002BF7D100BF7B691B681B899BB292
:1031100003F4C063002BF7D100233B61EFF310836E
:10312000BB60BB683B6172B67B691B683A6892B250
:103130009A813B681A0C7B691B6892B21A823B69C0
:10314000FB60FB6883F3108800BF7B691B689B886A
:103150009BB203F4C063B3F5C06FF6D100231846E9
:103160001C37BD465DF8047B704780B485B000AF66
:103170007860084611461A4603467B800B467B70F2
:1031800013463B707B68FB607A887B781A433B78F8
:103190001343BB6000BFFB681B681B899BB203F431
:1031A0000053002BF7D1FB681B68BA6892B29A8370
:1031B00000BFFB681B689B889BB203F40053B3F508
:1031C000005FF6D1002318461437BD465DF8047B36
:1031D0007047000080B483B000AF7860396000BFF2
:1031E0007B681B681B899BB203F08003002BF7D11F
:1031F0007B681B683A6812881A8000BF7B681B686E
:103200009B8D9BB203F48053002BF7D17B681B6826
:103210003A6852881A8500BF7B681B681B899BB27D
:1032200003F4C063002BF7D17B681B683A6892886F
:103230009A817B681B683A68D2881A8200BF7B68D3
:103240001B681B899BB203F4C053002BF7D17B682A
:103250001B683A6812899A827B681B683A685289AF
:103260001A8300BF7B681B689B8D9BB203F40053DD
:10327000002BF7D17B681B683A689289A3F8442039
:103280007B681B68404A93424FD100BF7B681B6834
:10329000B3F884309BB203F05E03002BF6D17B6859
:1032A0001B683A68128AA3F84C207B681B683A684E
:1032B000528AA3F850207B681B683A68928AA3F868
:1032C00054207B681B683A68D28AA3F858207B6830
:1032D0001B683A68128BA3F8702000BF7B681B68DC
:1032E000B3F8D8309BB203F45C53002BF6D17B6863
:1032F0001B683A68D28CA3F8C4207B681B683A68C4
:10330000128DA3F8C8207B681B683A68528DA3F819
:10331000CC207B681B683A68928DA3F8E0207B681C
:103320001B683A68D28DA3F8E42000BF7B681B6855
:103330009B889BB203F4F453B3F5F45FF6D100BF5E
:103340007B681B689B8D9BB203F44043B3F5404FF1
:10335000F6D100BF7B681B68B3F880309BB203F0E6
:103360005E035E2BF6D100BF7B681B68B3F8D430D8
:103370009BB203F45C53B3F55C5FF5D100BF0C372F
:10338000BD465DF8047B70470014004080B586B0F0
:1033900000AF00237B6100233B61A14B9B68FB6076
:1033A000FB681B681B889BB21A464FF60403134048
:1033B0003B61FB681B689B889BB203F07E037B81AB
:1033C0007B89002B56D03B69002B53D03B6903F01F
:1033D0001003002B08D07B8903F00403002B03D0DB
:1033E0007B6943F002037B613B6903F00403002B1C
:1033F00008D07B8903F00203002B03D07B6943F0E4
:1034000001037B613B6903F48053002B08D07B8967
:1034100003F00803002B03D07B6943F004037B61B6
:103420003B6903F40043002B08D07B8903F0400381
:10343000002B03D07B6943F020037B613B6903F4DD
:103440008043002B08D07B8903F02003002B03D09E
:103450007B6943F010037B613B6903F40053002B4D
:1034600008D07B8903F01003002B03D07B6943F065
:1034700008037B61FB681B681B8D9BB203F01F0375
:103480003B61FB681B689B8D9BB203F00F033B8184
:103490003B89002B3AD03B69002B37D03B6903F0C6
:1034A0000803002B08D03B8903F00803002B03D04E
:1034B0007B6943F400737B613B6903F00403002BD9
:1034C00008D03B8903F00403002B03D07B6943F44D
:1034D00080737B613B6903F00203002B08D03B89BA
:1034E00003F00203002B03D07B6943F080037B6170
:1034F0003B6903F00103002B08D03B8903F0010373
:10350000002B03D07B6943F040037B61FB681B68A1
:10351000B3F850309BB21A4641F6FE7313403B613C
:10352000FB681B68B3F848309AB241F6FD7313404C
:10353000FB80FB88002B75D03B69002B72D03B6968
:1035400003F48053002B08D0FB8803F48053002B36
:1035500003D07B6943F480437B613B6903F40063E0
:10356000002B08D0FB8803F40063002B03D07B6999
:1035700043F400537B613B6903F48063002B08D064
:10358000FB8803F48063002B03D07B6943F48053F2
:103590007B613B6903F40073002B08D0FB8803F4C4
:1035A0000073002B03D07B6943F400637B613B69AC
:1035B00003F48073002B08D0FB8803F48073002B86
:1035C00003D07B6943F480137B613B6903F0800384
:1035D000002B08D0FB8803F04003002B03D07B694D
:1035E00043F400137B613B6903F04003002B08D0D8
:1035F000FB8803F08003002B03D07B6943F4800336
:103600007B613B6903F02003002B0BD0FB8803F0A8
:103610002003002B06D07B6943F400037B6101E0AB
:1036200048000420FB681B68B3F850309BB21A4670
:103630004FF21C4313403B61FB88002B3AD03B699F
:10364000002B37D03B6903F48043002B08D0FB8864
:1036500003F01003002B03D07B6943F480237B61CC
:103660003B6903F40053002B08D0FB8803F00803E8
:10367000002B03D07B6943F400337B613B6903F487
:103680008053002B08D0FB8803F00403002B03D0E9
:103690007B6943F480337B613B6903F48063002BD7
:1036A00008D0FB8803F00103002B03D07B6943F4AF
:1036B00000437B61FB685B68002B09D07B69002BB2
:1036C00006D0FB685B68FA689068002279699847C1
:1036D000FB681B687A899A80FB681B683A899A851F
:1036E000FB681B68FA88A3F8482000BF1837BD465E
:1036F00080BD00BF80B586B000AF00237B61002392
:103700003B61A84B5B69FB60FB681B681B889BB235
:103710001A464FF6040313403B61FB681B689B8805
:103720009BB203F07E037B817B89002B56D03B69E3
:10373000002B53D03B6903F01003002B08D07B898A
:1037400003F00403002B03D07B6943F002037B6189
:103750003B6903F00403002B08D07B8903F00203CC
:10376000002B03D07B6943F001037B613B6903F4C9
:103770008053002B08D07B8903F00803002B03D073
:103780007B6943F004037B613B6903F40043002B36
:1037900008D07B8903F04003002B03D07B6943F002
:1037A00020037B613B6903F48043002B08D07B89B5
:1037B00003F02003002B03D07B6943F010037B61EF
:1037C0003B6903F40053002B08D07B8903F01003FE
:1037D000002B03D07B6943F008037B61FB681B6807
:1037E0001B8D9BB203F01F033B61FB681B689B8D25
:1037F0009BB203F01F033B813B89002B48D03B6900
:10380000002B45D03B6903F01003002B08D03B8907
:1038100003F01003002B03D07B6943F480637B61CA
:103820003B6903F00803002B08D03B8903F0080331
:10383000002B03D07B6943F400737B613B6903F089
:103840000403002B08D03B8903F00403002B03D0B2
:103850007B6943F480737B613B6903F00203002BB7
:1038600008D03B8903F00203002B03D07B6943F0AF
:1038700080037B613B6903F00103002B08D03B8987
:1038800003F00103002B03D07B6943F040037B610D
:10389000FB681B68B3F850309BB21A4641F6FE73C2
:1038A00013403B61FB681B68B3F848309AB241F69D
:1038B000FD731340FB80FB88002B75D03B69002B08
:1038C00072D03B6903F48053002B08D0FB8803F4CB
:1038D0008053002B03D07B6943F480437B613B69B9
:1038E00003F40063002B08D0FB8803F40063002B73
:1038F00003D07B6943F400537B613B6903F480632D
:10390000002B08D0FB8803F48063002B03D07B6975
:1039100043F480537B613B6903F40073002B08D0B0
:10392000FB8803F40073002B03D07B6943F400632E
:103930007B613B6903F48073002B08D0FB8803F4A0
:103940008073002B03D07B6943F480137B613B6958
:1039500003F08003002B08D0FB8803F04003002B0A
:1039600003D07B6943F400137B613B6903F04003A0
:10397000002B08D0FB8803F08003002B03D07B6969
:1039800043F480037B613B6903F02003002B0BD0E1
:10399000FB8803F02003002B06D07B6943F400036F
:1039A0007B6101E048000420FB681B68B3F84C30E1
:1039B0009BB21A464FF21C4313403B61FB88002B1D
:1039C0003AD03B69002B37D03B6903F48043002B8E
:1039D00008D0FB8803F01003002B03D07B6943F46D
:1039E00080237B613B6903F40053002B08D0FB88E4
:1039F00003F00803002B03D07B6943F400337B61A1
:103A00003B6903F48053002B08D0FB8803F00403C8
:103A1000002B03D07B6943F480337B613B6903F463
:103A20008063002B08D0FB8803F00103002B03D038
:103A30007B6943F400437B61FB685B68002B09D022
:103A40007B69002B06D0FB685B68FA6890680022EF
:103A500079699847FB681B689B8899B2FB681B686B
:103A60007A890A4392B29A80FB681B689B8D99B24F
:103A7000FB681B683A890A4392B29A85FB681B6807
:103A8000B3F8483099B2FB681B68FA880A4392B2CF
:103A9000A3F8482000BF1837BD4680BD2DE9F04F80
:103AA0009DB000AF78603960002287F86F204FF03A
:103AB00000014FF00002C7E918120222BA657A68C5
:103AC0007A6500BF7A6D1268128992B202F4C06200
:103AD000002AF7D100223A65EFF31082BA63BA6B7D
:103AE0003A6572B67A6D126847F2276111847A6D71
:103AF0001268128E92B2BA847A6D1268928E92B265
:103B0000FA847A6D1268128F92B23A857A6D1268D1
:103B100047F2276111847A6D1268128E92B27A850B
:103B20007A6D1268928E92B2BA857A6D1268128F8F
:103B300092B2FA857A6D126847F2276111847A6D24
:103B40001268128E92B23A867A6D1268928E92B292
:103B50007A867A6D1268128F92B2BA867A6D12687E
:103B6000128DA7F84E203A6DFA63FA6B82F3108833
:103B7000704A11687A6D1268914211D0B7F84E20E0
:103B8000520910464FF000010A4601464FF00F0A55
:103B90004FF0000B01EA0A0102EA0B02C7E9181212
:103BA000386E4FF001014FF00002A0F1200EC0F17D
:103BB000200C02FA00F601FA0EFE46EA0E0621FA81
:103BC0000CFC46EA0C0601FA00F515F1FF3146F14E
:103BD000FF32C7E910120022FA6552E0F96D0A4679
:103BE00052000A44520007F170010A444A3A12880E
:103BF00091B24FF000024FEA11494FEA0148F96DC6
:103C00000A4652000A44520007F170010A444C3A35
:103C1000128891B24FF0000241EA080A42EA090B09
:103C2000386EA0F12006C0F120050BFA00F40AFA64
:103C300006F634432AFA05F52C430AFA00F3F96D27
:103C40000A4652000A44520007F170010A44483AF9
:103C5000128895B24FF00006D7E9101201EA050A62
:103C600002EA060B4AEA03014BEA0402F86DC000BF
:103C700007F1700528446838C0E90012FA6D013276
:103C8000FA65FA6D022AA9D9D7E90612D7E90434F0
:103C9000A24208BF994236D0D7E90612D7E90456A6
:103CA0006B1C46F10004A24208BF99422BD0D7E911
:103CB0000612D7E90234A24208BF994223D0D7E9BD
:103CC0000612D7E902566B1C46F10004A24208BF57
:103CD000994218D0D7E90412D7E90234A24208BFAA
:103CE00099420AD0D7E90412D7E902566B1C46F173
:103CF0000004A24208BF994202D10123BB6502E041
:103D0000012387F86F303968BA6D13465B0013449E
:103D10005B0007F170021344A3F14C020B461168DB
:103D2000196092889A8097F86F3018467437BD46AC
:103D3000BDE8F08F4800042080B483B000AF034694
:103D4000FB7197F90730002B0BDBFB7903F01F02A7
:103D5000074997F907305B09012000FA02F241F8A0
:103D6000232000BF0C37BD465DF8047B704700BFC1
:103D700000E100E080B483B000AF0346FB7197F927
:103D80000730002B10DBFB7903F01F02094997F97C
:103D900007305B09012000FA02F2203341F82320AA
:103DA000BFF34F8FBFF36F8F00BF0C37BD465DF879
:103DB000047B704700E100E080B586B000AFF8609A
:103DC000B9607A603B60BB687B617A680021B86843
:103DD00004F09AFEFA6813469B0013449B002D4A98
:103DE0001A447B695A602B49FA6813469B001344B6
:103DF0009B000B441033BA681A602649FA681346D0
:103E00009B0013449B000B4408331A687B691A60BB
:103E10007B6900229A62FB689B001F4A13443B6146
:103E20007B691B683A6912881A827B691B683A6948
:103E300052889A813B687A691A607B691B681B8A81
:103E40009AB27B691B6842F0010292B21A82FDF7B6
:103E5000A7F87B695B685B88DBB27A690F49184613
:103E6000FDF7E6F80346002B01D00E230EE07B6938
:103E70005B68DB88DBB27A6909491846FDF7D8F838
:103E80000346002B01D00E2300E00023184618370C
:103E9000BD4680BDB801042090330100F947000001
:103EA0008747000080B485B000AF78600B46FB7098
:103EB0007B681B689B8AFB81FB8923F00703FB81DE
:103EC000FB781BB203F007031AB2B7F90E301343A5
:103ED0001BB2FB817B681B68FA899A820023184613
:103EE0001437BD465DF8047B704780B483B000AFE3
:103EF00078600B46FB70FB78002B0AD07B681B6850
:103F00001B8A9AB27B681B6842F4006292B21A82E2
:103F100009E07B681B681B8A9AB27B681B6822F4E5
:103F2000006292B21A82002318460C37BD465DF833
:103F3000047B704780B584B000AF7860396007F1CA
:103F4000080319460020FEF7B1F90346002B01D003
:103F500003231BE03B685A00BB689A4201D90C233B
:103F600014E0BA683B68B2FBF3F35B089BB2013B19
:103F7000FB81FA89FB8903F03F039A4201D00723B2
:103F800004E07B681B68FA899A8100231846103781
:103F9000BD4680BD80B483B000AF78600B46FB7037
:103FA000FB78002B0AD07B681B681B8A9AB27B685F
:103FB0001B6842F0080292B21A8209E07B681B6813
:103FC0001B8A9AB27B681B6822F0080292B21A829E
:103FD000002318460C37BD465DF8047B704780B45B
:103FE00083B000AF78600B46FB707B68FA7883F88B
:103FF0002620002318460C37BD465DF8047B704729
:1040000080B483B000AF78600B46FB70FB78002B68
:104010000AD07B681B681B8A9AB27B681B6842F0D7
:10402000040292B21A8209E07B681B681B8A9AB26A
:104030007B681B6822F0040292B21A8200231846A1
:104040000C37BD465DF8047B704780B584B000AF87
:10405000786039607B68012283F8252039687868A8
:1040600000F014F80346FB737B68002283F82520D8
:10407000FB7B002B05D17B681B69002B01D00F2334
:10408000FB73FB7B18461037BD4680BD80B584B0FE
:1040900000AF7860396000237B733B681A687B68E7
:1040A0005A613B685A687B689A613B681A897B68E9
:1040B0009A833B685A897B68DA833B681A7B7B6802
:1040C00083F820203B685A7B7B6883F821203B687B
:1040D0009A7B7B6883F823203B68DA7B7B6883F8D4
:1040E00024207B68002283F822207B6800221A614A
:1040F0007B681B681B8A9AB27B681B6822F441525A
:1041000092B21A827B6893F82330002B0AD07B6826
:104110001B689B8A9AB27B681B6822F4005292B299
:104120009A822AE04FF40053FB817B689B8B002B23
:1041300003D0FB8943F40073FB817B68DB8B002B8E
:1041400003D0FB8943F48063FB817B681B689B8AF7
:1041500099B27B681B68FA890A4392B29A827B689B
:10416000DB8B002B09D17B681B681B8A9AB27B68AA
:104170001B6842F0400292B21A827B681B681B885F
:104180009BB27B817B681B687A8992B21A807B68BC
:104190001B681B8A9AB27B681B6842F0020292B2CB
:1041A0001A827B6893F826207B681B6892B21A8675
:1041B0003968786800F018F87B6893F82530002B90
:1041C0000DD07B682833002219460020FEF72EFB15
:1041D00003463B733B7B002B01D00D2300E07B7B30
:1041E00018461037BD4680BD80B588B000AF7860F6
:1041F00039607B6893F82330002B0CD07B6893F8F0
:104200002430002B07D03B685B89012B03D17B68EE
:10421000002283F823207B681B681B8A9AB27B6884
:104220001B6842F4405292B21A827B681B681B8A58
:104230009AB27B681B6822F4405292B21A827B6861
:104240001B689B8B9AB27B681B6822F0070292B2B4
:104250009A830023BB837B6893F82330002B00F004
:10426000B9800123BB833B681B897B837B8B002B3D
:1042700055D07B685B685B88FB827B685B681B88CA
:104280005BB21846FFF758FDFB8A9A4A012101FAF2
:1042900003F3C2F81438FB8A964A012101FA03F3AA
:1042A0009362FB8A934A012101FA03F35362FB8A6A
:1042B000904A012101FA03F353637B8B03F001035E
:1042C000002B02D07B8B01337B833B681A687B8B8E
:1042D000023BD118884B1A68FB8A1B0113440A461B
:1042E0001A607B681B6803F10801834B1A68FB8A1C
:1042F0001B0113440A465A607B8B5B089BB2013B4F
:104300001B017D4A1168FA8A12010A4443F04543B1
:1043100043F001039360BB8B43F00203BB833B6814
:104320005B897B837B8B002B54D07B685B68DB884D
:10433000BB827B685B689B885BB21846FFF7FCFC1E
:10434000BB8A6C4A012101FA03F3C2F81C38BB8A0C
:10435000684A012101FA03F39362BB8A654A01218D
:1043600001FA03F35362BB8A624A012101FA03F3A3
:1043700053637B8B03F00103002B02D07B8B013353
:104380007B837B681B68191D5B4B1A68BB8A1B010A
:1043900013440A461A603B685A687B8B023BD1186B
:1043A000554B1A68BB8A1B0113440A465A607B8B23
:1043B0005B089BB2013B1B014F4A1168BA8A12018C
:1043C0000A4443F09A4343F001039360BB8B43F0EC
:1043D0000403BB837B681B6800229A847B6893F884
:1043E0002430002B2DD07B689B8B013B3B617B688D
:1043F0001B689B8C9AB27B681B6822F0F00292B219
:104400009A847B681B689B8C9AB23B699BB29B0029
:104410009BB213439AB27B681B6842F0010292B2CE
:104420009A847B681B681B8A9AB27B681B6842F47B
:10443000006292B21A827B681B687A68D28B1A83F8
:1044400028E07B68DB8B002B0AD17B681B681B8A0A
:104450009AB27B681B6842F4805292B21A820DE0D5
:104460007B689B8B002B09D17B681B681B8A9AB2E7
:104470007B681B6842F4005292B21A827B689A8B66
:104480007B68DB8B934238BF1346FB837B681B68DA
:10449000FA8B1A837B6893F8233083F00103DBB235
:1044A000002B2BD07B685B69002B52D00023FB8351
:1044B00017E07B685B691A787B681B6892B21A8187
:1044C0007B685B697A6892F820201A447B685A619D
:1044D0007B689B8B013B9AB27B689A83FB8B013391
:1044E000FB83FB8B072B34D87B689B8B002BE0D1A5
:1044F0002FE000BF000001408C3301007B681B6887
:104500009B8B99B27B681B68BA8B0A4392B29A83E1
:104510007B6893F82330002B1BD03B681B89002B52
:1045200017D000233B830FE07B681B681B8C9BB27A
:104530007B817B899BB203F00F03FB81FB89002BFE
:1045400006D13B8B01333B833B8B632BECD900E0E3
:1045500000BF7B681B681B8A9BB203F04003402BA3
:1045600003D07B681B689B88BB817B685B6893F981
:104570000C301846FFF7E0FB00BF2037BD4680BD7A
:1045800080B586B000AF78600023FB747B681B6841
:104590001B883B820023FB817B681B683A8A1A8058
:1045A0007B681B681B8CBB81FB8943F08003FB810C
:1045B000FB8943F01003FB81FA893B8A13409BB2CD
:1045C000002B1AD03B8A03F010039BB2002B05D0BE
:1045D0007B681B6943F001027B681A613B8A03F028
:1045E00080039BB2002B05D07B681B6943F002025D
:1045F0007B681A610123FB7459E0BB8903F00F0348
:104600009BB2C3F10803FB82BB891B0A9BB203F078
:104610000F03BB8217E07B685B691A787B681B68B5
:1046200092B21A817B685B697A6892F820201A44FA
:104630007B685A617B689B8B013B9AB27B689A834B
:10464000FB8A013BFB82FB8A002B03D07B689B8BA0
:10465000002BE0D17B6893F8243083F00103DBB2B8
:10466000002B1DD17B689B8B002B20D118E07B6831
:104670001B689B889AB27B689B69D2B21A707B6870
:104680009B697A6892F821201A447B689A617B685A
:10469000DB8B013B9AB27B68DA83BB8A013BBB822E
:1046A000BB8A002B03D07B68DB8B002BDFD17B68C0
:1046B000DB8B002B31D17B689B8B002B2DD17B6852
:1046C0001B681B8A9BB203F00203022B19D13B8AA1
:1046D00003F00203002B07D17B681B681B889BB289
:1046E00003F00203022B18D10123FB747B681B68C3
:1046F0009B8B9AB27B681B6822F0010292B29A836C
:104700000BE00123FB747B681B689B8B9AB27B6870
:104710001B6822F0010292B29A83FB7C002B2ED000
:104720007B681B689B8A9AB27B681B6822F41852CC
:1047300092B29A827B68012283F822207B685B68B0
:1047400093F90C301846FFF715FB7B681B681B8834
:104750003B827B681B683A8A1A807B689B68002BC7
:1047600008D07B689B687A68D0687A6811690022F3
:10477000984704E07B6828331846FEF703F900BF2A
:104780001837BD4680BD80B586B000AFF860B9600F
:104790007A60FB687B61BB68012B02D0022B07D0DB
:1047A0000DE07B691B6943F004027B691A610DE02F
:1047B0007B691B6943F010027B691A6106E07B6923
:1047C0001B6943F040027B691A6100BF7B699B68EB
:1047D000002B08D07B699B687A69D0687A69116977
:1047E0000022984704E07B6928331846FEF7CAF890
:1047F00000BF1837BD4680BD80B586B000AFF860F9
:10480000B9607A607B687B61BB68012B02D0022BA8
:1048100007D00DE07B691B6943F008027B691A61D0
:104820000DE07B691B6943F020027B691A6106E099
:104830007B691B6943F080027B691A6100BF7B6959
:104840009B68002B08D07B699B687A69D0687A697D
:1048500011690022984704E07B6928331846FEF767
:1048600091F800BF1837BD4680BD000080B500AF8D
:10487000034B1B691846FFF783FE00BF80BD00BFD6
:10488000B801042080B500AF034B5B6A1846FFF700
:1048900077FE00BF80BD00BFB801042080B500AF27
:1048A000034B9B6B1846FFF76BFE00BF80BD00BF3C
:1048B000B801042080B582B000AF786039607B68B1
:1048C00000229A837B681B689B8B9AB27B681B686B
:1048D00022F0020292B29A837B68DB8B002B29D1F3
:1048E0003B68002B0AD07B681B689B8A9AB27B6866
:1048F0001B6842F4005292B29A821BE07B681B68EC
:104900009B8A9AB27B681B6822F4185292B29A82F0
:104910007B689B68002B08D07B689B687A68D068AE
:104920007A6811690022984704E07B6828331846AA
:10493000FEF728F800BF0837BD4680BD80B582B0BD
:1049400000AF786039607B680022DA837B681B687F
:104950009B8B9AB27B681B6822F0040292B29A8306
:104960007B681B681B8A9AB27B681B6842F4805282
:1049700092B21A827B689B8B002B3ED13B68002B46
:104980000AD07B681B689B8A9AB27B681B6842F4DA
:10499000005292B29A8230E07B681B689B8A9AB27E
:1049A0007B681B6822F4185292B29A827B681B685B
:1049B0009B8B9AB27B681B6822F0010292B29A83A9
:1049C0007B68012283F822207B685B6893F90C30B6
:1049D0001846FFF7CFF97B689B68002B08D07B68EF
:1049E0009B687A68D0687A6811690022984704E069
:1049F0007B6828331846FDF7C5FF00BF0837BD4662
:104A000080BD000080B500AF034B1B690121184633
:104A1000FFF750FF00BF80BDB801042080B500AF94
:104A2000034B1B6901211846FFF788FF00BF80BDBB
:104A3000B801042080B500AF034B5B6A0121184622
:104A4000FFF738FF00BF80BDB801042080B500AF7C
:104A5000034B5B6A01211846FFF770FF00BF80BD62
:104A6000B801042080B500AF034B9B6B01211846B1
:104A7000FFF720FF00BF80BDB801042080B500AF64
:104A8000034B9B6B01211846FFF758FF00BF80BD09
:104A9000B801042080B483B000AF0346FB7197F9DE
:104AA0000730002B0BDBFB7903F01F02074997F956
:104AB00007305B09012000FA02F241F8232000BF11
:104AC0000C37BD465DF8047B704700BF00E100E095
:104AD00080B483B000AF0346FB7197F90730002B19
:104AE00010DBFB7903F01F02094997F907305B09D6
:104AF000012000FA02F2203341F82320BFF34F8F48
:104B0000BFF36F8F00BF0C37BD465DF8047B704765
:104B100000E100E080B483B000AF0346FB7197F979
:104B20000730002B0CDBFB7903F01F02074997F9D4
:104B300007305B09012000FA02F2603341F82320BC
:104B400000BF0C37BD465DF8047B704700E100E014
:104B500080B588B000AFF860B9607A60FB68BB616F
:104B6000BB695B6A5B6B5B697B610023FB61BB6854
:104B7000012B02D0022B05D009E0FB6943F48073BE
:104B8000FB6109E0FB6943F48063FB6104E0FB69BE
:104B900043F48053FB6100BF7B691B68002B13D07B
:104BA0007B699B7C002B0FD0BB699A69FB691A4318
:104BB000BB699A617B6900225A74BB695B6A0022F7
:104BC0001946B86900F0FBFDBB699A69FB691A4395
:104BD000BB699A61BB695B6A00221946B86900F03B
:104BE000EEFD00BF2037BD4680BD80B588B000AF68
:104BF000F860B9607A60FB68BB61BB691B6A5B6B7C
:104C00005B697B610023FB61BB68012B02D0022B37
:104C100005D009E0FB6943F40073FB6109E0FB691F
:104C200043F40063FB6104E0FB6943F40053FB6160
:104C300000BF7B691B68002B13D07B699B7C002B1A
:104C40000FD0BB699A69FB691A43BB699A617B699A
:104C500000225A74BB691B6A01221946B86900F028
:104C6000AEFDBB699A69FB691A43BB699A61BB696E
:104C70001B6A01221946B86900F0A1FD00BF203768
:104C8000BD4680BD80B586B000AFF8607A603B60FD
:104C90000B46FB720023FB823B6A00221A607B6892
:104CA0003B613A680021786803F02EFFFB681B0126
:104CB0006E4A1A443B695A606C4AFB681B011344F4
:104CC00008331A683B699A603B69FA7A1A707B6804
:104CD00030337B60FCF764F9FB7A012B3CD03B69F5
:104CE0007A681A623B691B6A002283F83C203B69A0
:104CF0001A6A3B691B6A1A633B691A6A3B691B6A39
:104D00009A633B691A6A3B691B6A5A633B691B6A6F
:104D100000229A643B691B6A554A1A643B691A6A05
:104D20003B691B6A18325A613B691A6A3B691B6A04
:104D3000DA623B695B681B783A694E491846FCF7B2
:104D400077F90346002B04D0386900F09BF80F2355
:104D500087E07B684C337B60FB7A002B39D03B6962
:104D60007A685A623B695B6A002283F83C203B699F
:104D70005A6A3B695B6A1A633B695A6A3B695B6AB8
:104D80009A633B695A6A3B695B6A5A633B695B6A2F
:104D900000229A643B695B6A374A1A643B695A6A23
:104DA0003B695B6A18325A613B695A6A3B695B6AC4
:104DB000DA623B695B685B783A6930491846FCF710
:104DC00037F90346002B04D0386900F05BF80F2355
:104DD00047E0F968386900F0B3FD3B699B681B8CBC
:104DE0009BB203F00103002B14BF01230023DAB2AE
:104DF0003B6983F82D203B699B681B8C9BB29B1100
:104E00009BB203F00303FB82FB8A1D4AD25C3B6921
:104E100083F82E203B6A3A691A60144AFB681B012A
:104E200013440C333A691A603B695B6893F90430A8
:104E30001846FFF76FFE3B695B6893F9043018462C
:104E4000FFF728FE3B695B6893F902301846FFF7CD
:104E500021FE3B695B6893F903301846FFF71AFEA1
:104E6000002318461837BD4680BD00BFF40104205A
:104E7000954F0000EB4B0000A1500000514B00008B
:104E8000B833010080B582B000AF78607B689B6862
:104E900000229A807B685B6893F903301846FFF71D
:104EA00017FE7B685B6893F902301846FFF710FE27
:104EB0007B685B6893F904301846FFF709FE7B684E
:104EC0005B680022DA60002318460837BD4680BDC3
:104ED00080B584B000AFF860B9607A60FB70FB68A1
:104EE0001B6A1B6BBA681A60FB681B6A1B6B7A68CB
:104EF0005A60FB681B6A1B6B7A68DA60FB681B6A86
:104F00001B6B00229A60FB681B6A1B6B01225A74A0
:104F1000FB681B6A1B6BFA789A74FB681B6A012298
:104F200083F84520FB681B6A022283F84420FB7843
:104F3000002B0CD0FB685B681B781946144A0123D0
:104F40008B405363FB681B6A1B6B01221A74FB685E
:104F50001B6A1A6BFB681B6A52691A63FB681B6A3F
:104F600093F83C30002B0DD1FB681B6A022283F8BA
:104F70003C20FB681B6A1B6CFA68126A526B114674
:104F8000F8689847002318461037BD4680BD00BF1B
:104F90000000014080B489B000AF786039603B68A0
:104FA0009B7C002B5BD07B685B681B7819463A4A78
:104FB00001238B40C2F814387B685B681B78194664
:104FC000354A01238B4093627B685B681B781946E6
:104FD000314A01238B4053623B681B681A463B6889
:104FE0005B681A442D4B19687B685B681B781B0152
:104FF0000B44013A1A607B689B681946274B1A6874
:105000007B685B681B781B0113440A465A603B6847
:105010005B68013B1B01214A11687A68526812786B
:1050200012010A4443F0404343F00103936000231C
:10503000BB61EFF310833B613B69BB6172B67B6878
:105040009B689B889AB27B689B6842F0100292B280
:105050009A80BB697B617B6983F3108816E000232B
:10506000FB61EFF31083BB60BB68FB6172B67B68CA
:105070009B689B889AB27B689B6842F0020292B25E
:105080009A80FB69FB60FB6883F3108800BF2437BC
:10509000BD465DF8047B7047000001408C33010081
:1050A00080B489B000AF786039603B689B7C002B8E
:1050B0005BD07B685B685B7819463A4A01238B407A
:1050C000C2F81C387B685B685B781946354A012357
:1050D0008B4093627B685B685B781946314A012399
:1050E0008B4053627B689B6819462F4B1A687B681C
:1050F0005B685B781B0113440A461A603B681B68B7
:105100001A463B685B681A44274B19687B685B68E2
:105110005B781B010B44013A5A603B685B68013BBA
:105120001B01214A11687A685268527812010A44B8
:1051300043F0406343F0010393600023BB61EFF34E
:1051400010833B613B69BB6172B67B689B689B883F
:105150009AB27B689B6842F0200292B29A80BB6947
:105160007B617B6983F3108816E00023FB61EFF31A
:105170001083BB60BB68FB6172B67B689B689B88D1
:105180009AB27B689B6842F0010292B29A80FB69F6
:10519000FB60FB6883F3108800BF2437BD465DF8D1
:1051A000047B7047000001408C33010080B483B061
:1051B00000AF786039603B6800221A707B689B689A
:1051C0009B8A9BB203F04003402B02D13B68012233
:1051D0001A70002318460C37BD465DF8047B7047F3
:1051E00080B485B000AF7860084611461A46034681
:1051F000FB700B46BB7013467B707B689B689B897A
:105200009BB223F00F03FB817A78BB781343DAB2A9
:10521000FB781343DBB29AB2FB891343FB817B68B3
:105220009B68FA899A81002318461437BD465DF8B9
:10523000047B704780B485B000AFF8600846114623
:105240001A4603467B810B467B721346FB80FB6844
:105250009B687A891A857B7A9BB2DB029AB2FB88BB
:1052600013439BB2FA6892686FEA43436FEA534371
:105270009BB29384FB689B683A7E92B29A85002326
:1052800018461437BD465DF8047B704780B582B080
:1052900000AF054BDB687B60786800F017F800BF53
:1052A0000837BD4680BD00BFF401042080B582B040
:1052B00000AF054BDB697B60786800F007F800BF42
:1052C0000837BD4680BD00BFF401042080B58EB014
:1052D00002AF78607B689B681B899BB203F00E036A
:1052E0000C2B00F2718101A252F823F0EB53000065
:1052F000C955000021530000C95500003D5300006E
:10530000C95500004D530000C9550000C9550000A3
:10531000C9550000C9550000C955000029530000B7
:10532000786800F00FFA52E17B689B689B8E9BB215
:10533000DBB21946786800F09FF948E17B6893F882
:105340002E301946786800F097F940E10023FB629F
:105350007B689B689B8ABB83BB8B03F010039BB26B
:10536000002B05D07B689B681B888023FB6209E0CB
:10537000BB8B03F008039BB2002B03D0FB6A43F006
:105380001003FB62BB8B03F004039BB2002B03D022
:10539000FB6A43F02003FB62BB8B03F002039BB26A
:1053A000002B03D0FB6A43F04003FB62FB6A002B37
:1053B00000F00C817B681B7D83F00103DBB2002BC6
:1053C00000F004817B689A69FB6A1A437B689A61E2
:1053D0007B681B78002B00F0F9807B685B6A0422F5
:1053E0001946786800F0EBF9F0E00023BB627B68B7
:1053F0009B68B3F844309BB203F00F037B837B6858
:105400009B68B3F840309BB203F001033B837B8B76
:10541000002B00F0C9803B8B002B00F0C58007F10A
:105420000C0319460020FCF741FF0346002B01D076
:105430000023FB607B689B68B3F848309BB21B037A
:105440007B617B689B68B3F844309BB21B099BB2BD
:105450001A467B6913437B617B8B03F00103002BAE
:105460006FD07B689B689B8C9BB203F40043B3F5C1
:10547000004F4DD1002387F827304FF400633B6184
:105480000123FB837B693F2B06D87B695B02DA082B
:105490003B69D31A3B6228E07B697F2B09D87B6983
:1054A0001B02DA083B69D31A3B62012387F82730D5
:1054B0001BE07B69FF2B09D87B69DB01DA083B69BC
:1054C000D31A3B62022387F827300EE07B691B0A60
:1054D000FB837B699A01FB8BDB00B2FBF3F23B6938
:1054E000D31A3B62032387F827303B6A9AB2F98BC1
:1054F00097F827300093134601227868FFF79AFE49
:10550000FB68DA007B69B2FBF3F27B689A6206E023
:10551000FB68DA007B69B2FBF3F27B689A627B6816
:10552000DB68002B3DD07B6893F82C30002B38D003
:105530007B68DB687A6810697A68926A0321984709
:105540002FE07B8B03F00203002B03D0BB6A43F4F4
:105550000073BB627B8B03F00403002B03D0BB6A98
:1055600043F48073BB627B8B03F00803002B03D0F2
:10557000BB6A43F48063BB627B68DB68002B0DD0A1
:105580007B685B6A93F83C30022B07D17B68DB6851
:105590007A681069BA6A0521984702E07B68BA6A9E
:1055A000DA617B689B681B887B689B68B3F8403036
:1055B0009AB27B689B6822F0070292B2A3F840205F
:1055C0007B6800221A7502E000BF00E000BF00BF48
:1055D0003037BD4680BD00BF80B582B000AF074BFD
:1055E000DB687B607B681B6A01221946786800F0E3
:1055F000E6F800BF0837BD4680BD00BFF4010420B7
:1056000080B582B000AF074BDB687B607B685B6A6C
:1056100000221946786800F0D2F800BF0837BD466E
:1056200080BD00BFF401042080B582B000AF074BFD
:10563000DB697B607B681B6A01221946786800F091
:10564000BEF800BF0837BD4680BD00BFF40104208E
:1056500080B582B000AF074BDB697B607B685B6A1B
:1056600000221946786800F0AAF800BF0837BD4646
:1056700080BD00BFF401042080B586B000AF786023
:105680000B46FB707B685B6A5B6B7B617B691B68AD
:105690003B613B69002B05D07B695B7C002B01D013
:1056A000012300E00023FB73FB7B03F00103FB738A
:1056B000FB7B002B28D00EE07B689B681B8899B28F
:1056C0007B699B683A691344CAB21A707B699B680C
:1056D0005A1C7B699A60FB785A1EFA70002B05D021
:1056E0007B699A687B695B689A42E5D37B699A68B3
:1056F0007B695B689A4221D17B685B6A002219460C
:10570000786800F05CF819E07B68DB68002B06D055
:105710007B68DB687A6810690022022198477B6900
:105720001B68002B0AD17B695B7C83F00103DBB231
:10573000002B03D07B689B681B8800BF00BF183715
:10574000BD4680BD80B584B000AF78607B681B6AC1
:105750005B6B1B68002B2ED07B681B6A5B6B5B7CD2
:10576000002B28D07B681B6A5B6B1B68FB607B6827
:105770001B6A5B6B9B68FA6813441B78DAB27B6820
:105780009B6892B21A807B681B6A5B6B9A680132D5
:105790009A607B681B6A5B6B9A687B681B6A5B6BB1
:1057A0005B689A4207D37B681B6A012219467868B6
:1057B00000F005F800BF00BF1037BD4680BD80B5C2
:1057C0008CB000AFF860B9601346FB71BB6893F80A
:1057D0003C30002B08D0BB685B6B00225A74BB685E
:1057E0005B6B5A69BB685A63BB685B6B5B7C87F811
:1057F0002F300023BB62EFF31083BB61BB69BB6238
:1058000072B6FB79012B0AD1FB689B689B889AB220
:10581000FB689B6822F0120292B29A801BE0FB6840
:105820009B689B889AB2FB689B6822F0200292B228
:105830009A80FB6893F82D3083F00103DBB2002BD4
:1058400009D0FB689B689B889AB2FB689B6822F032
:10585000010292B29A80BB6A7B617B6983F31088F4
:10586000FB68DB68002B3AD0BB6893F83C30022B16
:1058700035D1FB689B697B62FB6800229A61BB683B
:105880009B6B1B683B623B6AFB61BB689B6B0022A6
:105890001A60BB689B6B5A69BB689A63BB689B6B59
:1058A0001B68002B03D1BB68002283F83C207B6A75
:1058B000002B07D0FB68DB68FA6810697A6A04215C
:1058C000984706E0FB68DB68FA681069F979FA69BD
:1058D0009847BB6848331846FDF754F820E0FB7939
:1058E000012B0ED100BFFB689B689B8A9BB203F023
:1058F0004003402BF7D1FB689B681B8F9BB2002BAA
:10590000F1D1BB689B6B5B691B68002B03D1BB6843
:10591000002283F83C20BB6848331846FDF732F874
:1059200097F82F30002B06D0BB681B6CBA68526BFF
:105930001146F868984700BF3037BD4680BD00006B
:1059400080B485B000AF786039603A681346DB00F8
:105950009B1A5B00154A1344FB607B689B68FA68DE
:1059600012889A817B689B68FA6852881A857B68DE
:105970009B68FA6892889A847B689B68FA68D288E8
:105980009A857B689B68FA6812891A847B689B6891
:10599000FA6852899A877B689B68FA6892899A802C
:1059A00000BF1437BD465DF8047B70479C3301008F
:1059B00080B483B000AF0346FB7197F90730002B2A
:1059C0000BDBFB7903F01F02074997F907305B09EE
:1059D000012000FA02F241F8232000BF0C37BD4637
:1059E0005DF8047B704700BF00E100E080B483B045
:1059F00000AF0346FB7197F90730002B10DBFB79F2
:105A000003F01F02094997F907305B09012000FAEA
:105A100002F2203341F82320BFF34F8FBFF36F8F83
:105A200000BF0C37BD465DF8047B704700E100E025
:105A300080B582B000AF78603960084B1B68002BDE
:105A400007D13A680021786803F05EF8034A7B6862
:105A50001360002318460837BD4680BDFC1404209F
:105A600080B58AB000AF03460A46FB711346BB718E
:105A70000023FB61FB799B000F2202FA03F3BB6159
:105A8000FB79052B08D1BB795B0543F480137B625E
:105A9000042387F823300EE0BB7943F00803DBB220
:105AA0001A46FB799B0002FA03F37B62FB79013310
:105AB000DBB287F82330EFF31083FB60FB68FB61F8
:105AC00072B60F4B1B687B61BB69DB437A6913407D
:105AD0007B617A697B6A13437B61094A7B69136046
:105AE000FB693B613B6983F3108897F923301846C3
:105AF000FFF75EFF002318462837BD4680BD00BF74
:105B000080C0044080B588B000AF0346FB7100231D
:105B1000BB61FB79052B02D10423FB7703E0FB7902
